
Display.elf:     file format elf32-littlearm

Sections:
Idx Name          Size      VMA       LMA       File off  Algn
  0 .isr_vector   00000188  08000000  08000000  00010000  2**0
                  CONTENTS, ALLOC, LOAD, READONLY, DATA
  1 .text         0000318c  08000188  08000188  00010188  2**2
                  CONTENTS, ALLOC, LOAD, READONLY, CODE
  2 .rodata       000001b0  08003314  08003314  00013314  2**2
                  CONTENTS, ALLOC, LOAD, READONLY, DATA
  3 .ARM.extab    00000000  080034c4  080034c4  0002000c  2**0
                  CONTENTS
  4 .ARM          00000000  080034c4  080034c4  0002000c  2**0
                  CONTENTS
  5 .preinit_array 00000000  080034c4  080034c4  0002000c  2**0
                  CONTENTS, ALLOC, LOAD, DATA
  6 .init_array   00000004  080034c4  080034c4  000134c4  2**2
                  CONTENTS, ALLOC, LOAD, DATA
  7 .fini_array   00000004  080034c8  080034c8  000134c8  2**2
                  CONTENTS, ALLOC, LOAD, DATA
  8 .data         0000000c  20000000  080034cc  00020000  2**2
                  CONTENTS, ALLOC, LOAD, DATA
  9 .bss          00000108  2000000c  080034d8  0002000c  2**2
                  ALLOC
 10 ._user_heap_stack 00000604  20000114  080034d8  00020114  2**0
                  ALLOC
 11 .ARM.attributes 00000030  00000000  00000000  0002000c  2**0
                  CONTENTS, READONLY
 12 .debug_info   0000af0f  00000000  00000000  0002003c  2**0
                  CONTENTS, READONLY, DEBUGGING
 13 .debug_abbrev 00001ae6  00000000  00000000  0002af4b  2**0
                  CONTENTS, READONLY, DEBUGGING
 14 .debug_aranges 00000940  00000000  00000000  0002ca38  2**3
                  CONTENTS, READONLY, DEBUGGING
 15 .debug_ranges 00000878  00000000  00000000  0002d378  2**3
                  CONTENTS, READONLY, DEBUGGING
 16 .debug_macro  0001c7ac  00000000  00000000  0002dbf0  2**0
                  CONTENTS, READONLY, DEBUGGING
 17 .debug_line   00009626  00000000  00000000  0004a39c  2**0
                  CONTENTS, READONLY, DEBUGGING
 18 .debug_str    0009f6bc  00000000  00000000  000539c2  2**0
                  CONTENTS, READONLY, DEBUGGING
 19 .comment      0000007b  00000000  00000000  000f307e  2**0
                  CONTENTS, READONLY
 20 .debug_frame  0000241c  00000000  00000000  000f30fc  2**2
                  CONTENTS, READONLY, DEBUGGING

Disassembly of section .text:

08000188 <__do_global_dtors_aux>:
 8000188:	b510      	push	{r4, lr}
 800018a:	4c05      	ldr	r4, [pc, #20]	; (80001a0 <__do_global_dtors_aux+0x18>)
 800018c:	7823      	ldrb	r3, [r4, #0]
 800018e:	b933      	cbnz	r3, 800019e <__do_global_dtors_aux+0x16>
 8000190:	4b04      	ldr	r3, [pc, #16]	; (80001a4 <__do_global_dtors_aux+0x1c>)
 8000192:	b113      	cbz	r3, 800019a <__do_global_dtors_aux+0x12>
 8000194:	4804      	ldr	r0, [pc, #16]	; (80001a8 <__do_global_dtors_aux+0x20>)
 8000196:	f3af 8000 	nop.w
 800019a:	2301      	movs	r3, #1
 800019c:	7023      	strb	r3, [r4, #0]
 800019e:	bd10      	pop	{r4, pc}
 80001a0:	2000000c 	.word	0x2000000c
 80001a4:	00000000 	.word	0x00000000
 80001a8:	080032fc 	.word	0x080032fc

080001ac <frame_dummy>:
 80001ac:	b508      	push	{r3, lr}
 80001ae:	4b03      	ldr	r3, [pc, #12]	; (80001bc <frame_dummy+0x10>)
 80001b0:	b11b      	cbz	r3, 80001ba <frame_dummy+0xe>
 80001b2:	4903      	ldr	r1, [pc, #12]	; (80001c0 <frame_dummy+0x14>)
 80001b4:	4803      	ldr	r0, [pc, #12]	; (80001c4 <frame_dummy+0x18>)
 80001b6:	f3af 8000 	nop.w
 80001ba:	bd08      	pop	{r3, pc}
 80001bc:	00000000 	.word	0x00000000
 80001c0:	20000010 	.word	0x20000010
 80001c4:	080032fc 	.word	0x080032fc

080001c8 <InitDigits>:
//-----------------------------------------------------
//Func: DrawRecuSelect(Recu)
//Desc: Draws Recu + digit
//-----------------------------------------------------
void InitDigits()
{
 80001c8:	b580      	push	{r7, lr}
 80001ca:	b08c      	sub	sp, #48	; 0x30
 80001cc:	af00      	add	r7, sp, #0
	  unsigned char down[] = {0x00, 0x00, 0x00, 0x00, 0x00, 0x00, 0x1F, 0x1F};
 80001ce:	4a2e      	ldr	r2, [pc, #184]	; (8000288 <InitDigits+0xc0>)
 80001d0:	f107 0328 	add.w	r3, r7, #40	; 0x28
 80001d4:	e892 0003 	ldmia.w	r2, {r0, r1}
 80001d8:	e883 0003 	stmia.w	r3, {r0, r1}
	  unsigned char up[] = {0x1F, 0x1F, 0x00, 0x00, 0x00, 0x00, 0x00, 0x00};
 80001dc:	4a2b      	ldr	r2, [pc, #172]	; (800028c <InitDigits+0xc4>)
 80001de:	f107 0320 	add.w	r3, r7, #32
 80001e2:	e892 0003 	ldmia.w	r2, {r0, r1}
 80001e6:	e883 0003 	stmia.w	r3, {r0, r1}
	  unsigned char MLO[] = {0x00, 0x10, 0x10, 0x18, 0x18, 0x1C, 0x1C, 0x1E};
 80001ea:	4a29      	ldr	r2, [pc, #164]	; (8000290 <InitDigits+0xc8>)
 80001ec:	f107 0318 	add.w	r3, r7, #24
 80001f0:	e892 0003 	ldmia.w	r2, {r0, r1}
 80001f4:	e883 0003 	stmia.w	r3, {r0, r1}
	  unsigned char MRO[] = {0x00, 0x01, 0x01, 0x03, 0x03, 0x07, 0x07, 0x0F};
 80001f8:	4a26      	ldr	r2, [pc, #152]	; (8000294 <InitDigits+0xcc>)
 80001fa:	f107 0310 	add.w	r3, r7, #16
 80001fe:	e892 0003 	ldmia.w	r2, {r0, r1}
 8000202:	e883 0003 	stmia.w	r3, {r0, r1}
	  unsigned char MLU[] = {0x0F, 0x0F, 0x07, 0x07, 0x03, 0x03, 0x01, 0x00};
 8000206:	4a24      	ldr	r2, [pc, #144]	; (8000298 <InitDigits+0xd0>)
 8000208:	f107 0308 	add.w	r3, r7, #8
 800020c:	e892 0003 	ldmia.w	r2, {r0, r1}
 8000210:	e883 0003 	stmia.w	r3, {r0, r1}
	  unsigned char MRU[] = {0x1E, 0x1E, 0x1C, 0x1C, 0x18, 0x18, 0x10, 0x00};
 8000214:	4a21      	ldr	r2, [pc, #132]	; (800029c <InitDigits+0xd4>)
 8000216:	463b      	mov	r3, r7
 8000218:	e892 0003 	ldmia.w	r2, {r0, r1}
 800021c:	e883 0003 	stmia.w	r3, {r0, r1}
	  InitDisplay(&hspi3);
 8000220:	481f      	ldr	r0, [pc, #124]	; (80002a0 <InitDigits+0xd8>)
 8000222:	f000 fa16 	bl	8000652 <InitDisplay>
	  DefineCharacter(&hspi3, 0x00, down);
 8000226:	f107 0328 	add.w	r3, r7, #40	; 0x28
 800022a:	461a      	mov	r2, r3
 800022c:	2100      	movs	r1, #0
 800022e:	481c      	ldr	r0, [pc, #112]	; (80002a0 <InitDigits+0xd8>)
 8000230:	f000 fa75 	bl	800071e <DefineCharacter>
	  DefineCharacter(&hspi3, 0x01, up);
 8000234:	f107 0320 	add.w	r3, r7, #32
 8000238:	461a      	mov	r2, r3
 800023a:	2101      	movs	r1, #1
 800023c:	4818      	ldr	r0, [pc, #96]	; (80002a0 <InitDigits+0xd8>)
 800023e:	f000 fa6e 	bl	800071e <DefineCharacter>
	  DefineCharacter(&hspi3, 0x02, MLO);
 8000242:	f107 0318 	add.w	r3, r7, #24
 8000246:	461a      	mov	r2, r3
 8000248:	2102      	movs	r1, #2
 800024a:	4815      	ldr	r0, [pc, #84]	; (80002a0 <InitDigits+0xd8>)
 800024c:	f000 fa67 	bl	800071e <DefineCharacter>
	  DefineCharacter(&hspi3, 0x03, MRO);
 8000250:	f107 0310 	add.w	r3, r7, #16
 8000254:	461a      	mov	r2, r3
 8000256:	2103      	movs	r1, #3
 8000258:	4811      	ldr	r0, [pc, #68]	; (80002a0 <InitDigits+0xd8>)
 800025a:	f000 fa60 	bl	800071e <DefineCharacter>
	  DefineCharacter(&hspi3, 0x04, MLU);
 800025e:	f107 0308 	add.w	r3, r7, #8
 8000262:	461a      	mov	r2, r3
 8000264:	2104      	movs	r1, #4
 8000266:	480e      	ldr	r0, [pc, #56]	; (80002a0 <InitDigits+0xd8>)
 8000268:	f000 fa59 	bl	800071e <DefineCharacter>
	  DefineCharacter(&hspi3, 0x05, MRU);
 800026c:	463b      	mov	r3, r7
 800026e:	461a      	mov	r2, r3
 8000270:	2105      	movs	r1, #5
 8000272:	480b      	ldr	r0, [pc, #44]	; (80002a0 <InitDigits+0xd8>)
 8000274:	f000 fa53 	bl	800071e <DefineCharacter>
	  InitDisplay(&hspi3);
 8000278:	4809      	ldr	r0, [pc, #36]	; (80002a0 <InitDigits+0xd8>)
 800027a:	f000 f9ea 	bl	8000652 <InitDisplay>
}
 800027e:	bf00      	nop
 8000280:	3730      	adds	r7, #48	; 0x30
 8000282:	46bd      	mov	sp, r7
 8000284:	bd80      	pop	{r7, pc}
 8000286:	bf00      	nop
 8000288:	08003330 	.word	0x08003330
 800028c:	08003338 	.word	0x08003338
 8000290:	08003340 	.word	0x08003340
 8000294:	08003348 	.word	0x08003348
 8000298:	08003350 	.word	0x08003350
 800029c:	08003358 	.word	0x08003358
 80002a0:	20000028 	.word	0x20000028

080002a4 <DrawGuiFsd>:
void DrawGuiFsd(uint8_t mission, uint8_t state)
{
 80002a4:	b580      	push	{r7, lr}
 80002a6:	b082      	sub	sp, #8
 80002a8:	af00      	add	r7, sp, #0
 80002aa:	4603      	mov	r3, r0
 80002ac:	460a      	mov	r2, r1
 80002ae:	71fb      	strb	r3, [r7, #7]
 80002b0:	4613      	mov	r3, r2
 80002b2:	71bb      	strb	r3, [r7, #6]
	WriteString(&hspi3,"Mission: ");
 80002b4:	494a      	ldr	r1, [pc, #296]	; (80003e0 <DrawGuiFsd+0x13c>)
 80002b6:	484b      	ldr	r0, [pc, #300]	; (80003e4 <DrawGuiFsd+0x140>)
 80002b8:	f000 fa58 	bl	800076c <WriteString>
	SetPosition(&hspi3,1, 0);
 80002bc:	2200      	movs	r2, #0
 80002be:	2101      	movs	r1, #1
 80002c0:	4848      	ldr	r0, [pc, #288]	; (80003e4 <DrawGuiFsd+0x140>)
 80002c2:	f000 fa95 	bl	80007f0 <SetPosition>
    switch (mission)
 80002c6:	79fb      	ldrb	r3, [r7, #7]
 80002c8:	2b07      	cmp	r3, #7
 80002ca:	d83b      	bhi.n	8000344 <DrawGuiFsd+0xa0>
 80002cc:	a201      	add	r2, pc, #4	; (adr r2, 80002d4 <DrawGuiFsd+0x30>)
 80002ce:	f852 f023 	ldr.w	pc, [r2, r3, lsl #2]
 80002d2:	bf00      	nop
 80002d4:	080002f5 	.word	0x080002f5
 80002d8:	080002ff 	.word	0x080002ff
 80002dc:	08000309 	.word	0x08000309
 80002e0:	08000313 	.word	0x08000313
 80002e4:	0800031d 	.word	0x0800031d
 80002e8:	08000327 	.word	0x08000327
 80002ec:	08000331 	.word	0x08000331
 80002f0:	0800033b 	.word	0x0800033b
    {
    case 0:
        WriteString(&hspi3,"None");
 80002f4:	493c      	ldr	r1, [pc, #240]	; (80003e8 <DrawGuiFsd+0x144>)
 80002f6:	483b      	ldr	r0, [pc, #236]	; (80003e4 <DrawGuiFsd+0x140>)
 80002f8:	f000 fa38 	bl	800076c <WriteString>
        break;
 80002fc:	e027      	b.n	800034e <DrawGuiFsd+0xaa>
    case 1:
    	WriteString(&hspi3,"Acceleration");
 80002fe:	493b      	ldr	r1, [pc, #236]	; (80003ec <DrawGuiFsd+0x148>)
 8000300:	4838      	ldr	r0, [pc, #224]	; (80003e4 <DrawGuiFsd+0x140>)
 8000302:	f000 fa33 	bl	800076c <WriteString>
        break;
 8000306:	e022      	b.n	800034e <DrawGuiFsd+0xaa>
    case 2:
    	WriteString(&hspi3,"Skidpad     ");
 8000308:	4939      	ldr	r1, [pc, #228]	; (80003f0 <DrawGuiFsd+0x14c>)
 800030a:	4836      	ldr	r0, [pc, #216]	; (80003e4 <DrawGuiFsd+0x140>)
 800030c:	f000 fa2e 	bl	800076c <WriteString>
        break;
 8000310:	e01d      	b.n	800034e <DrawGuiFsd+0xaa>
    case 3:
    	WriteString(&hspi3,"Trackdrive  ");
 8000312:	4938      	ldr	r1, [pc, #224]	; (80003f4 <DrawGuiFsd+0x150>)
 8000314:	4833      	ldr	r0, [pc, #204]	; (80003e4 <DrawGuiFsd+0x140>)
 8000316:	f000 fa29 	bl	800076c <WriteString>
        break;
 800031a:	e018      	b.n	800034e <DrawGuiFsd+0xaa>
    case 4:
    	WriteString(&hspi3,"Braketest   ");
 800031c:	4936      	ldr	r1, [pc, #216]	; (80003f8 <DrawGuiFsd+0x154>)
 800031e:	4831      	ldr	r0, [pc, #196]	; (80003e4 <DrawGuiFsd+0x140>)
 8000320:	f000 fa24 	bl	800076c <WriteString>
        break;
 8000324:	e013      	b.n	800034e <DrawGuiFsd+0xaa>
    case 5:
    	WriteString(&hspi3,"Inspection  ");
 8000326:	4935      	ldr	r1, [pc, #212]	; (80003fc <DrawGuiFsd+0x158>)
 8000328:	482e      	ldr	r0, [pc, #184]	; (80003e4 <DrawGuiFsd+0x140>)
 800032a:	f000 fa1f 	bl	800076c <WriteString>
        break;
 800032e:	e00e      	b.n	800034e <DrawGuiFsd+0xaa>
    case 6:
    	WriteString(&hspi3,"Autocross   ");
 8000330:	4933      	ldr	r1, [pc, #204]	; (8000400 <DrawGuiFsd+0x15c>)
 8000332:	482c      	ldr	r0, [pc, #176]	; (80003e4 <DrawGuiFsd+0x140>)
 8000334:	f000 fa1a 	bl	800076c <WriteString>
        break;
 8000338:	e009      	b.n	800034e <DrawGuiFsd+0xaa>
    case 7:
    	WriteString(&hspi3,"Manual      ");
 800033a:	4932      	ldr	r1, [pc, #200]	; (8000404 <DrawGuiFsd+0x160>)
 800033c:	4829      	ldr	r0, [pc, #164]	; (80003e4 <DrawGuiFsd+0x140>)
 800033e:	f000 fa15 	bl	800076c <WriteString>
        break;
 8000342:	e004      	b.n	800034e <DrawGuiFsd+0xaa>
    default:
    	WriteString(&hspi3,"Faulty ID   ");
 8000344:	4930      	ldr	r1, [pc, #192]	; (8000408 <DrawGuiFsd+0x164>)
 8000346:	4827      	ldr	r0, [pc, #156]	; (80003e4 <DrawGuiFsd+0x140>)
 8000348:	f000 fa10 	bl	800076c <WriteString>
        break;
 800034c:	bf00      	nop
    }
    SetPosition(&hspi3,2, 0);
 800034e:	2200      	movs	r2, #0
 8000350:	2102      	movs	r1, #2
 8000352:	4824      	ldr	r0, [pc, #144]	; (80003e4 <DrawGuiFsd+0x140>)
 8000354:	f000 fa4c 	bl	80007f0 <SetPosition>
    WriteString(&hspi3,"State: ");
 8000358:	492c      	ldr	r1, [pc, #176]	; (800040c <DrawGuiFsd+0x168>)
 800035a:	4822      	ldr	r0, [pc, #136]	; (80003e4 <DrawGuiFsd+0x140>)
 800035c:	f000 fa06 	bl	800076c <WriteString>
    SetPosition(&hspi3,3, 0);
 8000360:	2200      	movs	r2, #0
 8000362:	2103      	movs	r1, #3
 8000364:	481f      	ldr	r0, [pc, #124]	; (80003e4 <DrawGuiFsd+0x140>)
 8000366:	f000 fa43 	bl	80007f0 <SetPosition>
    switch (state)
 800036a:	79bb      	ldrb	r3, [r7, #6]
 800036c:	2b05      	cmp	r3, #5
 800036e:	d82d      	bhi.n	80003cc <DrawGuiFsd+0x128>
 8000370:	a201      	add	r2, pc, #4	; (adr r2, 8000378 <DrawGuiFsd+0xd4>)
 8000372:	f852 f023 	ldr.w	pc, [r2, r3, lsl #2]
 8000376:	bf00      	nop
 8000378:	08000391 	.word	0x08000391
 800037c:	0800039b 	.word	0x0800039b
 8000380:	080003a5 	.word	0x080003a5
 8000384:	080003af 	.word	0x080003af
 8000388:	080003b9 	.word	0x080003b9
 800038c:	080003c3 	.word	0x080003c3
        {
        case 0:
        	WriteString(&hspi3,"Select         ");
 8000390:	491f      	ldr	r1, [pc, #124]	; (8000410 <DrawGuiFsd+0x16c>)
 8000392:	4814      	ldr	r0, [pc, #80]	; (80003e4 <DrawGuiFsd+0x140>)
 8000394:	f000 f9ea 	bl	800076c <WriteString>
            break;
 8000398:	e01d      	b.n	80003d6 <DrawGuiFsd+0x132>
        case 1:
        	WriteString(&hspi3,"Check          ");
 800039a:	491e      	ldr	r1, [pc, #120]	; (8000414 <DrawGuiFsd+0x170>)
 800039c:	4811      	ldr	r0, [pc, #68]	; (80003e4 <DrawGuiFsd+0x140>)
 800039e:	f000 f9e5 	bl	800076c <WriteString>
            break;
 80003a2:	e018      	b.n	80003d6 <DrawGuiFsd+0x132>
        case 2:
        	WriteString(&hspi3,"Ready          ");
 80003a4:	491c      	ldr	r1, [pc, #112]	; (8000418 <DrawGuiFsd+0x174>)
 80003a6:	480f      	ldr	r0, [pc, #60]	; (80003e4 <DrawGuiFsd+0x140>)
 80003a8:	f000 f9e0 	bl	800076c <WriteString>
            break;
 80003ac:	e013      	b.n	80003d6 <DrawGuiFsd+0x132>
        case 3:
        	WriteString(&hspi3,"Driving        ");
 80003ae:	491b      	ldr	r1, [pc, #108]	; (800041c <DrawGuiFsd+0x178>)
 80003b0:	480c      	ldr	r0, [pc, #48]	; (80003e4 <DrawGuiFsd+0x140>)
 80003b2:	f000 f9db 	bl	800076c <WriteString>
            break;
 80003b6:	e00e      	b.n	80003d6 <DrawGuiFsd+0x132>
        case 4:
        	WriteString(&hspi3,"Finish         ");
 80003b8:	4919      	ldr	r1, [pc, #100]	; (8000420 <DrawGuiFsd+0x17c>)
 80003ba:	480a      	ldr	r0, [pc, #40]	; (80003e4 <DrawGuiFsd+0x140>)
 80003bc:	f000 f9d6 	bl	800076c <WriteString>
            break;
 80003c0:	e009      	b.n	80003d6 <DrawGuiFsd+0x132>
        case 5:
        	WriteString(&hspi3,"Emergency Brake");
 80003c2:	4918      	ldr	r1, [pc, #96]	; (8000424 <DrawGuiFsd+0x180>)
 80003c4:	4807      	ldr	r0, [pc, #28]	; (80003e4 <DrawGuiFsd+0x140>)
 80003c6:	f000 f9d1 	bl	800076c <WriteString>
            break;
 80003ca:	e004      	b.n	80003d6 <DrawGuiFsd+0x132>
        default:
        	WriteString(&hspi3,"Faulty ID      ");
 80003cc:	4916      	ldr	r1, [pc, #88]	; (8000428 <DrawGuiFsd+0x184>)
 80003ce:	4805      	ldr	r0, [pc, #20]	; (80003e4 <DrawGuiFsd+0x140>)
 80003d0:	f000 f9cc 	bl	800076c <WriteString>
            break;
 80003d4:	bf00      	nop
        }
}
 80003d6:	bf00      	nop
 80003d8:	3708      	adds	r7, #8
 80003da:	46bd      	mov	sp, r7
 80003dc:	bd80      	pop	{r7, pc}
 80003de:	bf00      	nop
 80003e0:	08003360 	.word	0x08003360
 80003e4:	20000028 	.word	0x20000028
 80003e8:	0800336c 	.word	0x0800336c
 80003ec:	08003374 	.word	0x08003374
 80003f0:	08003384 	.word	0x08003384
 80003f4:	08003394 	.word	0x08003394
 80003f8:	080033a4 	.word	0x080033a4
 80003fc:	080033b4 	.word	0x080033b4
 8000400:	080033c4 	.word	0x080033c4
 8000404:	080033d4 	.word	0x080033d4
 8000408:	080033e4 	.word	0x080033e4
 800040c:	080033f4 	.word	0x080033f4
 8000410:	080033fc 	.word	0x080033fc
 8000414:	0800340c 	.word	0x0800340c
 8000418:	0800341c 	.word	0x0800341c
 800041c:	0800342c 	.word	0x0800342c
 8000420:	0800343c 	.word	0x0800343c
 8000424:	0800344c 	.word	0x0800344c
 8000428:	0800345c 	.word	0x0800345c

0800042c <MX_GPIO_Init>:
        * Output
        * EVENT_OUT
        * EXTI
*/
void MX_GPIO_Init(void)
{
 800042c:	b580      	push	{r7, lr}
 800042e:	b08a      	sub	sp, #40	; 0x28
 8000430:	af00      	add	r7, sp, #0

  GPIO_InitTypeDef GPIO_InitStruct = {0};
 8000432:	f107 0314 	add.w	r3, r7, #20
 8000436:	2200      	movs	r2, #0
 8000438:	601a      	str	r2, [r3, #0]
 800043a:	605a      	str	r2, [r3, #4]
 800043c:	609a      	str	r2, [r3, #8]
 800043e:	60da      	str	r2, [r3, #12]
 8000440:	611a      	str	r2, [r3, #16]

  /* GPIO Ports Clock Enable */
  __HAL_RCC_GPIOC_CLK_ENABLE();
 8000442:	4b45      	ldr	r3, [pc, #276]	; (8000558 <MX_GPIO_Init+0x12c>)
 8000444:	695b      	ldr	r3, [r3, #20]
 8000446:	4a44      	ldr	r2, [pc, #272]	; (8000558 <MX_GPIO_Init+0x12c>)
 8000448:	f443 2300 	orr.w	r3, r3, #524288	; 0x80000
 800044c:	6153      	str	r3, [r2, #20]
 800044e:	4b42      	ldr	r3, [pc, #264]	; (8000558 <MX_GPIO_Init+0x12c>)
 8000450:	695b      	ldr	r3, [r3, #20]
 8000452:	f403 2300 	and.w	r3, r3, #524288	; 0x80000
 8000456:	613b      	str	r3, [r7, #16]
 8000458:	693b      	ldr	r3, [r7, #16]
  __HAL_RCC_GPIOF_CLK_ENABLE();
 800045a:	4b3f      	ldr	r3, [pc, #252]	; (8000558 <MX_GPIO_Init+0x12c>)
 800045c:	695b      	ldr	r3, [r3, #20]
 800045e:	4a3e      	ldr	r2, [pc, #248]	; (8000558 <MX_GPIO_Init+0x12c>)
 8000460:	f443 0380 	orr.w	r3, r3, #4194304	; 0x400000
 8000464:	6153      	str	r3, [r2, #20]
 8000466:	4b3c      	ldr	r3, [pc, #240]	; (8000558 <MX_GPIO_Init+0x12c>)
 8000468:	695b      	ldr	r3, [r3, #20]
 800046a:	f403 0380 	and.w	r3, r3, #4194304	; 0x400000
 800046e:	60fb      	str	r3, [r7, #12]
 8000470:	68fb      	ldr	r3, [r7, #12]
  __HAL_RCC_GPIOA_CLK_ENABLE();
 8000472:	4b39      	ldr	r3, [pc, #228]	; (8000558 <MX_GPIO_Init+0x12c>)
 8000474:	695b      	ldr	r3, [r3, #20]
 8000476:	4a38      	ldr	r2, [pc, #224]	; (8000558 <MX_GPIO_Init+0x12c>)
 8000478:	f443 3300 	orr.w	r3, r3, #131072	; 0x20000
 800047c:	6153      	str	r3, [r2, #20]
 800047e:	4b36      	ldr	r3, [pc, #216]	; (8000558 <MX_GPIO_Init+0x12c>)
 8000480:	695b      	ldr	r3, [r3, #20]
 8000482:	f403 3300 	and.w	r3, r3, #131072	; 0x20000
 8000486:	60bb      	str	r3, [r7, #8]
 8000488:	68bb      	ldr	r3, [r7, #8]
  __HAL_RCC_GPIOB_CLK_ENABLE();
 800048a:	4b33      	ldr	r3, [pc, #204]	; (8000558 <MX_GPIO_Init+0x12c>)
 800048c:	695b      	ldr	r3, [r3, #20]
 800048e:	4a32      	ldr	r2, [pc, #200]	; (8000558 <MX_GPIO_Init+0x12c>)
 8000490:	f443 2380 	orr.w	r3, r3, #262144	; 0x40000
 8000494:	6153      	str	r3, [r2, #20]
 8000496:	4b30      	ldr	r3, [pc, #192]	; (8000558 <MX_GPIO_Init+0x12c>)
 8000498:	695b      	ldr	r3, [r3, #20]
 800049a:	f403 2380 	and.w	r3, r3, #262144	; 0x40000
 800049e:	607b      	str	r3, [r7, #4]
 80004a0:	687b      	ldr	r3, [r7, #4]
  __HAL_RCC_GPIOD_CLK_ENABLE();
 80004a2:	4b2d      	ldr	r3, [pc, #180]	; (8000558 <MX_GPIO_Init+0x12c>)
 80004a4:	695b      	ldr	r3, [r3, #20]
 80004a6:	4a2c      	ldr	r2, [pc, #176]	; (8000558 <MX_GPIO_Init+0x12c>)
 80004a8:	f443 1380 	orr.w	r3, r3, #1048576	; 0x100000
 80004ac:	6153      	str	r3, [r2, #20]
 80004ae:	4b2a      	ldr	r3, [pc, #168]	; (8000558 <MX_GPIO_Init+0x12c>)
 80004b0:	695b      	ldr	r3, [r3, #20]
 80004b2:	f403 1380 	and.w	r3, r3, #1048576	; 0x100000
 80004b6:	603b      	str	r3, [r7, #0]
 80004b8:	683b      	ldr	r3, [r7, #0]

  /*Configure GPIO pin Output Level */
  HAL_GPIO_WritePin(LD2_GPIO_Port, LD2_Pin, GPIO_PIN_RESET);
 80004ba:	2200      	movs	r2, #0
 80004bc:	f44f 5100 	mov.w	r1, #8192	; 0x2000
 80004c0:	4826      	ldr	r0, [pc, #152]	; (800055c <MX_GPIO_Init+0x130>)
 80004c2:	f000 fe91 	bl	80011e8 <HAL_GPIO_WritePin>

  /*Configure GPIO pin Output Level */
  HAL_GPIO_WritePin(OLED_CS_GPIO_Port, OLED_CS_Pin, GPIO_PIN_RESET);
 80004c6:	2200      	movs	r2, #0
 80004c8:	f44f 6100 	mov.w	r1, #2048	; 0x800
 80004cc:	4824      	ldr	r0, [pc, #144]	; (8000560 <MX_GPIO_Init+0x134>)
 80004ce:	f000 fe8b 	bl	80011e8 <HAL_GPIO_WritePin>

  /*Configure GPIO pin Output Level */
  HAL_GPIO_WritePin(OLED_RES_GPIO_Port, OLED_RES_Pin, GPIO_PIN_RESET);
 80004d2:	2200      	movs	r2, #0
 80004d4:	2104      	movs	r1, #4
 80004d6:	4823      	ldr	r0, [pc, #140]	; (8000564 <MX_GPIO_Init+0x138>)
 80004d8:	f000 fe86 	bl	80011e8 <HAL_GPIO_WritePin>

  /*Configure GPIO pin : PtPin */
  GPIO_InitStruct.Pin = B1_Pin;
 80004dc:	f44f 5300 	mov.w	r3, #8192	; 0x2000
 80004e0:	617b      	str	r3, [r7, #20]
  GPIO_InitStruct.Mode = GPIO_MODE_IT_FALLING;
 80004e2:	4b21      	ldr	r3, [pc, #132]	; (8000568 <MX_GPIO_Init+0x13c>)
 80004e4:	61bb      	str	r3, [r7, #24]
  GPIO_InitStruct.Pull = GPIO_NOPULL;
 80004e6:	2300      	movs	r3, #0
 80004e8:	61fb      	str	r3, [r7, #28]
  HAL_GPIO_Init(B1_GPIO_Port, &GPIO_InitStruct);
 80004ea:	f107 0314 	add.w	r3, r7, #20
 80004ee:	4619      	mov	r1, r3
 80004f0:	481b      	ldr	r0, [pc, #108]	; (8000560 <MX_GPIO_Init+0x134>)
 80004f2:	f000 fd07 	bl	8000f04 <HAL_GPIO_Init>

  /*Configure GPIO pin : PtPin */
  GPIO_InitStruct.Pin = LD2_Pin;
 80004f6:	f44f 5300 	mov.w	r3, #8192	; 0x2000
 80004fa:	617b      	str	r3, [r7, #20]
  GPIO_InitStruct.Mode = GPIO_MODE_OUTPUT_PP;
 80004fc:	2301      	movs	r3, #1
 80004fe:	61bb      	str	r3, [r7, #24]
  GPIO_InitStruct.Pull = GPIO_NOPULL;
 8000500:	2300      	movs	r3, #0
 8000502:	61fb      	str	r3, [r7, #28]
  GPIO_InitStruct.Speed = GPIO_SPEED_FREQ_LOW;
 8000504:	2300      	movs	r3, #0
 8000506:	623b      	str	r3, [r7, #32]
  HAL_GPIO_Init(LD2_GPIO_Port, &GPIO_InitStruct);
 8000508:	f107 0314 	add.w	r3, r7, #20
 800050c:	4619      	mov	r1, r3
 800050e:	4813      	ldr	r0, [pc, #76]	; (800055c <MX_GPIO_Init+0x130>)
 8000510:	f000 fcf8 	bl	8000f04 <HAL_GPIO_Init>

  /*Configure GPIO pin : PtPin */
  GPIO_InitStruct.Pin = OLED_CS_Pin;
 8000514:	f44f 6300 	mov.w	r3, #2048	; 0x800
 8000518:	617b      	str	r3, [r7, #20]
  GPIO_InitStruct.Mode = GPIO_MODE_OUTPUT_PP;
 800051a:	2301      	movs	r3, #1
 800051c:	61bb      	str	r3, [r7, #24]
  GPIO_InitStruct.Pull = GPIO_NOPULL;
 800051e:	2300      	movs	r3, #0
 8000520:	61fb      	str	r3, [r7, #28]
  GPIO_InitStruct.Speed = GPIO_SPEED_FREQ_LOW;
 8000522:	2300      	movs	r3, #0
 8000524:	623b      	str	r3, [r7, #32]
  HAL_GPIO_Init(OLED_CS_GPIO_Port, &GPIO_InitStruct);
 8000526:	f107 0314 	add.w	r3, r7, #20
 800052a:	4619      	mov	r1, r3
 800052c:	480c      	ldr	r0, [pc, #48]	; (8000560 <MX_GPIO_Init+0x134>)
 800052e:	f000 fce9 	bl	8000f04 <HAL_GPIO_Init>

  /*Configure GPIO pin : PtPin */
  GPIO_InitStruct.Pin = OLED_RES_Pin;
 8000532:	2304      	movs	r3, #4
 8000534:	617b      	str	r3, [r7, #20]
  GPIO_InitStruct.Mode = GPIO_MODE_OUTPUT_PP;
 8000536:	2301      	movs	r3, #1
 8000538:	61bb      	str	r3, [r7, #24]
  GPIO_InitStruct.Pull = GPIO_NOPULL;
 800053a:	2300      	movs	r3, #0
 800053c:	61fb      	str	r3, [r7, #28]
  GPIO_InitStruct.Speed = GPIO_SPEED_FREQ_LOW;
 800053e:	2300      	movs	r3, #0
 8000540:	623b      	str	r3, [r7, #32]
  HAL_GPIO_Init(OLED_RES_GPIO_Port, &GPIO_InitStruct);
 8000542:	f107 0314 	add.w	r3, r7, #20
 8000546:	4619      	mov	r1, r3
 8000548:	4806      	ldr	r0, [pc, #24]	; (8000564 <MX_GPIO_Init+0x138>)
 800054a:	f000 fcdb 	bl	8000f04 <HAL_GPIO_Init>

}
 800054e:	bf00      	nop
 8000550:	3728      	adds	r7, #40	; 0x28
 8000552:	46bd      	mov	sp, r7
 8000554:	bd80      	pop	{r7, pc}
 8000556:	bf00      	nop
 8000558:	40021000 	.word	0x40021000
 800055c:	48000400 	.word	0x48000400
 8000560:	48000800 	.word	0x48000800
 8000564:	48000c00 	.word	0x48000c00
 8000568:	10210000 	.word	0x10210000

0800056c <main>:
/**
  * @brief  The application entry point.
  * @retval int
  */
int main(void)
{
 800056c:	b580      	push	{r7, lr}
 800056e:	af00      	add	r7, sp, #0
  /* USER CODE END 1 */

  /* MCU Configuration--------------------------------------------------------*/

  /* Reset of all peripherals, Initializes the Flash interface and the Systick. */
  HAL_Init();
 8000570:	f000 fb5a 	bl	8000c28 <HAL_Init>
  /* USER CODE BEGIN Init */

  /* USER CODE END Init */

  /* Configure the system clock */
  SystemClock_Config();
 8000574:	f000 f828 	bl	80005c8 <SystemClock_Config>
  /* USER CODE BEGIN SysInit */

  /* USER CODE END SysInit */

  /* Initialize all configured peripherals */
  MX_GPIO_Init();
 8000578:	f7ff ff58 	bl	800042c <MX_GPIO_Init>
  MX_USART2_UART_Init();
 800057c:	f000 fab8 	bl	8000af0 <MX_USART2_UART_Init>
  MX_SPI3_Init();
 8000580:	f000 f9d4 	bl	800092c <MX_SPI3_Init>
  /* USER CODE BEGIN 2 */
  InitDigits();
 8000584:	f7ff fe20 	bl	80001c8 <InitDigits>
  WriteString(&hspi3, "Team Starcraft e.V.");
 8000588:	490c      	ldr	r1, [pc, #48]	; (80005bc <main+0x50>)
 800058a:	480d      	ldr	r0, [pc, #52]	; (80005c0 <main+0x54>)
 800058c:	f000 f8ee 	bl	800076c <WriteString>
  SetPosition(&hspi3,2,5);
 8000590:	2205      	movs	r2, #5
 8000592:	2102      	movs	r1, #2
 8000594:	480a      	ldr	r0, [pc, #40]	; (80005c0 <main+0x54>)
 8000596:	f000 f92b 	bl	80007f0 <SetPosition>
  WriteString(&hspi3, "#Hurensohn");
 800059a:	490a      	ldr	r1, [pc, #40]	; (80005c4 <main+0x58>)
 800059c:	4808      	ldr	r0, [pc, #32]	; (80005c0 <main+0x54>)
 800059e:	f000 f8e5 	bl	800076c <WriteString>
  HAL_Delay(2000);
 80005a2:	f44f 60fa 	mov.w	r0, #2000	; 0x7d0
 80005a6:	f000 fba5 	bl	8000cf4 <HAL_Delay>
  ClearDisplay(&hspi3);
 80005aa:	4805      	ldr	r0, [pc, #20]	; (80005c0 <main+0x54>)
 80005ac:	f000 f8a4 	bl	80006f8 <ClearDisplay>
  DrawGuiFsd(5,1);
 80005b0:	2101      	movs	r1, #1
 80005b2:	2005      	movs	r0, #5
 80005b4:	f7ff fe76 	bl	80002a4 <DrawGuiFsd>

  /* USER CODE END 2 */

  /* Infinite loop */
  /* USER CODE BEGIN WHILE */
  while (1)
 80005b8:	e7fe      	b.n	80005b8 <main+0x4c>
 80005ba:	bf00      	nop
 80005bc:	0800346c 	.word	0x0800346c
 80005c0:	20000028 	.word	0x20000028
 80005c4:	08003480 	.word	0x08003480

080005c8 <SystemClock_Config>:
/**
  * @brief System Clock Configuration
  * @retval None
  */
void SystemClock_Config(void)
{
 80005c8:	b580      	push	{r7, lr}
 80005ca:	b090      	sub	sp, #64	; 0x40
 80005cc:	af00      	add	r7, sp, #0
  RCC_OscInitTypeDef RCC_OscInitStruct = {0};
 80005ce:	f107 0318 	add.w	r3, r7, #24
 80005d2:	2228      	movs	r2, #40	; 0x28
 80005d4:	2100      	movs	r1, #0
 80005d6:	4618      	mov	r0, r3
 80005d8:	f002 fe88 	bl	80032ec <memset>
  RCC_ClkInitTypeDef RCC_ClkInitStruct = {0};
 80005dc:	1d3b      	adds	r3, r7, #4
 80005de:	2200      	movs	r2, #0
 80005e0:	601a      	str	r2, [r3, #0]
 80005e2:	605a      	str	r2, [r3, #4]
 80005e4:	609a      	str	r2, [r3, #8]
 80005e6:	60da      	str	r2, [r3, #12]
 80005e8:	611a      	str	r2, [r3, #16]

  /** Initializes the RCC Oscillators according to the specified parameters
  * in the RCC_OscInitTypeDef structure.
  */
  RCC_OscInitStruct.OscillatorType = RCC_OSCILLATORTYPE_HSI;
 80005ea:	2302      	movs	r3, #2
 80005ec:	61bb      	str	r3, [r7, #24]
  RCC_OscInitStruct.HSIState = RCC_HSI_ON;
 80005ee:	2301      	movs	r3, #1
 80005f0:	62bb      	str	r3, [r7, #40]	; 0x28
  RCC_OscInitStruct.HSICalibrationValue = RCC_HSICALIBRATION_DEFAULT;
 80005f2:	2310      	movs	r3, #16
 80005f4:	62fb      	str	r3, [r7, #44]	; 0x2c
  RCC_OscInitStruct.PLL.PLLState = RCC_PLL_ON;
 80005f6:	2302      	movs	r3, #2
 80005f8:	637b      	str	r3, [r7, #52]	; 0x34
  RCC_OscInitStruct.PLL.PLLSource = RCC_PLLSOURCE_HSI;
 80005fa:	2300      	movs	r3, #0
 80005fc:	63bb      	str	r3, [r7, #56]	; 0x38
  RCC_OscInitStruct.PLL.PLLMUL = RCC_PLL_MUL16;
 80005fe:	f44f 1360 	mov.w	r3, #3670016	; 0x380000
 8000602:	63fb      	str	r3, [r7, #60]	; 0x3c
  if (HAL_RCC_OscConfig(&RCC_OscInitStruct) != HAL_OK)
 8000604:	f107 0318 	add.w	r3, r7, #24
 8000608:	4618      	mov	r0, r3
 800060a:	f000 fe05 	bl	8001218 <HAL_RCC_OscConfig>
 800060e:	4603      	mov	r3, r0
 8000610:	2b00      	cmp	r3, #0
 8000612:	d001      	beq.n	8000618 <SystemClock_Config+0x50>
  {
    Error_Handler();
 8000614:	f000 f819 	bl	800064a <Error_Handler>
  }
  /** Initializes the CPU, AHB and APB buses clocks
  */
  RCC_ClkInitStruct.ClockType = RCC_CLOCKTYPE_HCLK|RCC_CLOCKTYPE_SYSCLK
 8000618:	230f      	movs	r3, #15
 800061a:	607b      	str	r3, [r7, #4]
                              |RCC_CLOCKTYPE_PCLK1|RCC_CLOCKTYPE_PCLK2;
  RCC_ClkInitStruct.SYSCLKSource = RCC_SYSCLKSOURCE_PLLCLK;
 800061c:	2302      	movs	r3, #2
 800061e:	60bb      	str	r3, [r7, #8]
  RCC_ClkInitStruct.AHBCLKDivider = RCC_SYSCLK_DIV1;
 8000620:	2300      	movs	r3, #0
 8000622:	60fb      	str	r3, [r7, #12]
  RCC_ClkInitStruct.APB1CLKDivider = RCC_HCLK_DIV2;
 8000624:	f44f 6380 	mov.w	r3, #1024	; 0x400
 8000628:	613b      	str	r3, [r7, #16]
  RCC_ClkInitStruct.APB2CLKDivider = RCC_HCLK_DIV1;
 800062a:	2300      	movs	r3, #0
 800062c:	617b      	str	r3, [r7, #20]

  if (HAL_RCC_ClockConfig(&RCC_ClkInitStruct, FLASH_LATENCY_2) != HAL_OK)
 800062e:	1d3b      	adds	r3, r7, #4
 8000630:	2102      	movs	r1, #2
 8000632:	4618      	mov	r0, r3
 8000634:	f001 fcf8 	bl	8002028 <HAL_RCC_ClockConfig>
 8000638:	4603      	mov	r3, r0
 800063a:	2b00      	cmp	r3, #0
 800063c:	d001      	beq.n	8000642 <SystemClock_Config+0x7a>
  {
    Error_Handler();
 800063e:	f000 f804 	bl	800064a <Error_Handler>
  }
}
 8000642:	bf00      	nop
 8000644:	3740      	adds	r7, #64	; 0x40
 8000646:	46bd      	mov	sp, r7
 8000648:	bd80      	pop	{r7, pc}

0800064a <Error_Handler>:
/**
  * @brief  This function is executed in case of error occurrence.
  * @retval None
  */
void Error_Handler(void)
{
 800064a:	b480      	push	{r7}
 800064c:	af00      	add	r7, sp, #0
  \details Disables IRQ interrupts by setting the I-bit in the CPSR.
           Can only be executed in Privileged modes.
 */
__STATIC_FORCEINLINE void __disable_irq(void)
{
  __ASM volatile ("cpsid i" : : : "memory");
 800064e:	b672      	cpsid	i
  /* USER CODE BEGIN Error_Handler_Debug */
  /* User can add his own implementation to report the HAL error return state */
  __disable_irq();
  while (1)
 8000650:	e7fe      	b.n	8000650 <Error_Handler+0x6>

08000652 <InitDisplay>:
//-----------------------------------------------------
//Func: initDispl()
//Desc: initialize the display
//-----------------------------------------------------
void InitDisplay(SPI_HandleTypeDef *hspi)
{
 8000652:	b580      	push	{r7, lr}
 8000654:	b082      	sub	sp, #8
 8000656:	af00      	add	r7, sp, #0
 8000658:	6078      	str	r0, [r7, #4]
	ResetDisplay();
 800065a:	f000 f829 	bl	80006b0 <ResetDisplay>
	WriteIns(hspi,0x3A);	// FunctionSet: N=1 BE=0 RE=1 IS=0
 800065e:	213a      	movs	r1, #58	; 0x3a
 8000660:	6878      	ldr	r0, [r7, #4]
 8000662:	f000 f8f7 	bl	8000854 <WriteIns>
	WriteIns(hspi,0x09);	// 4-line mode
 8000666:	2109      	movs	r1, #9
 8000668:	6878      	ldr	r0, [r7, #4]
 800066a:	f000 f8f3 	bl	8000854 <WriteIns>
	WriteIns(hspi,0x05);	// View: top view=0x05; bottom view=0x06
 800066e:	2105      	movs	r1, #5
 8000670:	6878      	ldr	r0, [r7, #4]
 8000672:	f000 f8ef 	bl	8000854 <WriteIns>
	WriteIns(hspi,0x3A);	// FunctionSet: N=1 BE=0 RE=1 IS=0
 8000676:	213a      	movs	r1, #58	; 0x3a
 8000678:	6878      	ldr	r0, [r7, #4]
 800067a:	f000 f8eb 	bl	8000854 <WriteIns>
	WriteIns(hspi,0x72);	// ROM Selection (RE muss 1 sein)
 800067e:	2172      	movs	r1, #114	; 0x72
 8000680:	6878      	ldr	r0, [r7, #4]
 8000682:	f000 f8e7 	bl	8000854 <WriteIns>
	WriteData(hspi,0x00);// ROM_A : 0x00 ROM_B : 0x04 ROM_C : 0x0C
 8000686:	2100      	movs	r1, #0
 8000688:	6878      	ldr	r0, [r7, #4]
 800068a:	f000 f919 	bl	80008c0 <WriteData>
	WriteIns(hspi,0x38);	// FunctionSet: N=1 DH=0 RE=0 IS=0
 800068e:	2138      	movs	r1, #56	; 0x38
 8000690:	6878      	ldr	r0, [r7, #4]
 8000692:	f000 f8df 	bl	8000854 <WriteIns>
	WriteIns(hspi,0x0C);	// set display mode cursor, blink on off etc.
 8000696:	210c      	movs	r1, #12
 8000698:	6878      	ldr	r0, [r7, #4]
 800069a:	f000 f8db 	bl	8000854 <WriteIns>
	WriteIns(hspi,0x01);	// clear display*/
 800069e:	2101      	movs	r1, #1
 80006a0:	6878      	ldr	r0, [r7, #4]
 80006a2:	f000 f8d7 	bl	8000854 <WriteIns>
}
 80006a6:	bf00      	nop
 80006a8:	3708      	adds	r7, #8
 80006aa:	46bd      	mov	sp, r7
 80006ac:	bd80      	pop	{r7, pc}
	...

080006b0 <ResetDisplay>:
//-----------------------------------------------------
//Func: ResetDisplay
//Desc: Resets the Display
//-----------------------------------------------------
void ResetDisplay(void)
{
 80006b0:	b580      	push	{r7, lr}
 80006b2:	af00      	add	r7, sp, #0
	OLED_CS_HIGH;
 80006b4:	2201      	movs	r2, #1
 80006b6:	f44f 6100 	mov.w	r1, #2048	; 0x800
 80006ba:	480d      	ldr	r0, [pc, #52]	; (80006f0 <ResetDisplay+0x40>)
 80006bc:	f000 fd94 	bl	80011e8 <HAL_GPIO_WritePin>
	HAL_GPIO_WritePin(GPIOD, GPIO_PIN_2, GPIO_PIN_SET);
 80006c0:	2201      	movs	r2, #1
 80006c2:	2104      	movs	r1, #4
 80006c4:	480b      	ldr	r0, [pc, #44]	; (80006f4 <ResetDisplay+0x44>)
 80006c6:	f000 fd8f 	bl	80011e8 <HAL_GPIO_WritePin>
	HAL_GPIO_WritePin(GPIOD, GPIO_PIN_2, GPIO_PIN_RESET);
 80006ca:	2200      	movs	r2, #0
 80006cc:	2104      	movs	r1, #4
 80006ce:	4809      	ldr	r0, [pc, #36]	; (80006f4 <ResetDisplay+0x44>)
 80006d0:	f000 fd8a 	bl	80011e8 <HAL_GPIO_WritePin>
	HAL_Delay(50);
 80006d4:	2032      	movs	r0, #50	; 0x32
 80006d6:	f000 fb0d 	bl	8000cf4 <HAL_Delay>
	HAL_GPIO_WritePin(GPIOD, GPIO_PIN_2, GPIO_PIN_SET);
 80006da:	2201      	movs	r2, #1
 80006dc:	2104      	movs	r1, #4
 80006de:	4805      	ldr	r0, [pc, #20]	; (80006f4 <ResetDisplay+0x44>)
 80006e0:	f000 fd82 	bl	80011e8 <HAL_GPIO_WritePin>
	HAL_Delay(1);
 80006e4:	2001      	movs	r0, #1
 80006e6:	f000 fb05 	bl	8000cf4 <HAL_Delay>
}
 80006ea:	bf00      	nop
 80006ec:	bd80      	pop	{r7, pc}
 80006ee:	bf00      	nop
 80006f0:	48000800 	.word	0x48000800
 80006f4:	48000c00 	.word	0x48000c00

080006f8 <ClearDisplay>:
//-----------------------------------------------------
//Func: ClearDisplay
//Desc: Clears entire Display content and set home pos
//-----------------------------------------------------
void ClearDisplay(SPI_HandleTypeDef *hspi)
{
 80006f8:	b580      	push	{r7, lr}
 80006fa:	b082      	sub	sp, #8
 80006fc:	af00      	add	r7, sp, #0
 80006fe:	6078      	str	r0, [r7, #4]
	WriteIns(hspi,0x01);
 8000700:	2101      	movs	r1, #1
 8000702:	6878      	ldr	r0, [r7, #4]
 8000704:	f000 f8a6 	bl	8000854 <WriteIns>
	WriteIns(hspi,0x80);
 8000708:	2180      	movs	r1, #128	; 0x80
 800070a:	6878      	ldr	r0, [r7, #4]
 800070c:	f000 f8a2 	bl	8000854 <WriteIns>
	HAL_Delay(100);
 8000710:	2064      	movs	r0, #100	; 0x64
 8000712:	f000 faef 	bl	8000cf4 <HAL_Delay>
}
 8000716:	bf00      	nop
 8000718:	3708      	adds	r7, #8
 800071a:	46bd      	mov	sp, r7
 800071c:	bd80      	pop	{r7, pc}

0800071e <DefineCharacter>:
//-----------------------------------------------------
//Func: DefineCharacter(string)
//Desc: Defines a custom character
//-----------------------------------------------------
void DefineCharacter(SPI_HandleTypeDef *hspi, uint8_t memposition, unsigned char *data)
{
 800071e:	b580      	push	{r7, lr}
 8000720:	b086      	sub	sp, #24
 8000722:	af00      	add	r7, sp, #0
 8000724:	60f8      	str	r0, [r7, #12]
 8000726:	460b      	mov	r3, r1
 8000728:	607a      	str	r2, [r7, #4]
 800072a:	72fb      	strb	r3, [r7, #11]
	unsigned char i=0;
 800072c:	2300      	movs	r3, #0
 800072e:	75fb      	strb	r3, [r7, #23]
	WriteIns(hspi, 0x40+8*memposition);
 8000730:	7afb      	ldrb	r3, [r7, #11]
 8000732:	3308      	adds	r3, #8
 8000734:	b2db      	uxtb	r3, r3
 8000736:	00db      	lsls	r3, r3, #3
 8000738:	b2db      	uxtb	r3, r3
 800073a:	4619      	mov	r1, r3
 800073c:	68f8      	ldr	r0, [r7, #12]
 800073e:	f000 f889 	bl	8000854 <WriteIns>

	for(i = 0; i < 8; i++)
 8000742:	2300      	movs	r3, #0
 8000744:	75fb      	strb	r3, [r7, #23]
 8000746:	e00a      	b.n	800075e <DefineCharacter+0x40>
	{
		WriteData(hspi, data[i]);
 8000748:	7dfb      	ldrb	r3, [r7, #23]
 800074a:	687a      	ldr	r2, [r7, #4]
 800074c:	4413      	add	r3, r2
 800074e:	781b      	ldrb	r3, [r3, #0]
 8000750:	4619      	mov	r1, r3
 8000752:	68f8      	ldr	r0, [r7, #12]
 8000754:	f000 f8b4 	bl	80008c0 <WriteData>
	for(i = 0; i < 8; i++)
 8000758:	7dfb      	ldrb	r3, [r7, #23]
 800075a:	3301      	adds	r3, #1
 800075c:	75fb      	strb	r3, [r7, #23]
 800075e:	7dfb      	ldrb	r3, [r7, #23]
 8000760:	2b07      	cmp	r3, #7
 8000762:	d9f1      	bls.n	8000748 <DefineCharacter+0x2a>
	}
}
 8000764:	bf00      	nop
 8000766:	3718      	adds	r7, #24
 8000768:	46bd      	mov	sp, r7
 800076a:	bd80      	pop	{r7, pc}

0800076c <WriteString>:
//-----------------------------------------------------
//Func: WriteString(string)
//Desc: sends a string to display
//-----------------------------------------------------
void WriteString(SPI_HandleTypeDef *hspi, char *data)
{
 800076c:	b580      	push	{r7, lr}
 800076e:	b088      	sub	sp, #32
 8000770:	af02      	add	r7, sp, #8
 8000772:	6078      	str	r0, [r7, #4]
 8000774:	6039      	str	r1, [r7, #0]
	int i;
	unsigned char buffer[5];

	uint8_t rdata[4] = {0, 0, 0, 0};
 8000776:	2300      	movs	r3, #0
 8000778:	60bb      	str	r3, [r7, #8]

	OLED_CS_HIGH;
 800077a:	2201      	movs	r2, #1
 800077c:	f44f 6100 	mov.w	r1, #2048	; 0x800
 8000780:	481a      	ldr	r0, [pc, #104]	; (80007ec <WriteString+0x80>)
 8000782:	f000 fd31 	bl	80011e8 <HAL_GPIO_WritePin>
	OLED_CS_LOW;
 8000786:	2200      	movs	r2, #0
 8000788:	f44f 6100 	mov.w	r1, #2048	; 0x800
 800078c:	4817      	ldr	r0, [pc, #92]	; (80007ec <WriteString+0x80>)
 800078e:	f000 fd2b 	bl	80011e8 <HAL_GPIO_WritePin>

	while (*data) {
 8000792:	e01c      	b.n	80007ce <WriteString+0x62>
		buffer[0] = 0x5F;
 8000794:	235f      	movs	r3, #95	; 0x5f
 8000796:	733b      	strb	r3, [r7, #12]
		buffer[1] = (*data) 		& 0x0F;
 8000798:	683b      	ldr	r3, [r7, #0]
 800079a:	781b      	ldrb	r3, [r3, #0]
 800079c:	f003 030f 	and.w	r3, r3, #15
 80007a0:	b2db      	uxtb	r3, r3
 80007a2:	737b      	strb	r3, [r7, #13]
		buffer[2] = (*data>>4) 	& 0x0F;
 80007a4:	683b      	ldr	r3, [r7, #0]
 80007a6:	781b      	ldrb	r3, [r3, #0]
 80007a8:	091b      	lsrs	r3, r3, #4
 80007aa:	b2db      	uxtb	r3, r3
 80007ac:	73bb      	strb	r3, [r7, #14]
		HAL_SPI_TransmitReceive(hspi, buffer, rdata, 3, 0xFF);
 80007ae:	f107 0208 	add.w	r2, r7, #8
 80007b2:	f107 010c 	add.w	r1, r7, #12
 80007b6:	23ff      	movs	r3, #255	; 0xff
 80007b8:	9300      	str	r3, [sp, #0]
 80007ba:	2303      	movs	r3, #3
 80007bc:	6878      	ldr	r0, [r7, #4]
 80007be:	f001 ff14 	bl	80025ea <HAL_SPI_TransmitReceive>
		i++;
 80007c2:	697b      	ldr	r3, [r7, #20]
 80007c4:	3301      	adds	r3, #1
 80007c6:	617b      	str	r3, [r7, #20]
		data++;
 80007c8:	683b      	ldr	r3, [r7, #0]
 80007ca:	3301      	adds	r3, #1
 80007cc:	603b      	str	r3, [r7, #0]
	while (*data) {
 80007ce:	683b      	ldr	r3, [r7, #0]
 80007d0:	781b      	ldrb	r3, [r3, #0]
 80007d2:	2b00      	cmp	r3, #0
 80007d4:	d1de      	bne.n	8000794 <WriteString+0x28>
	}
	OLED_CS_HIGH;
 80007d6:	2201      	movs	r2, #1
 80007d8:	f44f 6100 	mov.w	r1, #2048	; 0x800
 80007dc:	4803      	ldr	r0, [pc, #12]	; (80007ec <WriteString+0x80>)
 80007de:	f000 fd03 	bl	80011e8 <HAL_GPIO_WritePin>
}
 80007e2:	bf00      	nop
 80007e4:	3718      	adds	r7, #24
 80007e6:	46bd      	mov	sp, r7
 80007e8:	bd80      	pop	{r7, pc}
 80007ea:	bf00      	nop
 80007ec:	48000800 	.word	0x48000800

080007f0 <SetPosition>:
//-----------------------------------------------------
//Func: SetPostion(row, column)
//Desc: set postion
//-----------------------------------------------------
void SetPosition(SPI_HandleTypeDef *hspi,uint8_t row, uint8_t column)
{
 80007f0:	b580      	push	{r7, lr}
 80007f2:	b084      	sub	sp, #16
 80007f4:	af00      	add	r7, sp, #0
 80007f6:	6078      	str	r0, [r7, #4]
 80007f8:	460b      	mov	r3, r1
 80007fa:	70fb      	strb	r3, [r7, #3]
 80007fc:	4613      	mov	r3, r2
 80007fe:	70bb      	strb	r3, [r7, #2]
	uint8_t line_offset;
	  switch (row) {
 8000800:	78fb      	ldrb	r3, [r7, #3]
 8000802:	2b03      	cmp	r3, #3
 8000804:	d816      	bhi.n	8000834 <SetPosition+0x44>
 8000806:	a201      	add	r2, pc, #4	; (adr r2, 800080c <SetPosition+0x1c>)
 8000808:	f852 f023 	ldr.w	pc, [r2, r3, lsl #2]
 800080c:	0800081d 	.word	0x0800081d
 8000810:	08000823 	.word	0x08000823
 8000814:	08000829 	.word	0x08000829
 8000818:	0800082f 	.word	0x0800082f
	    case 0:  line_offset = 0x00; break;  // Line 1
 800081c:	2300      	movs	r3, #0
 800081e:	73fb      	strb	r3, [r7, #15]
 8000820:	e00a      	b.n	8000838 <SetPosition+0x48>
	    case 1:  line_offset = 0x20; break;  // LIne 2
 8000822:	2320      	movs	r3, #32
 8000824:	73fb      	strb	r3, [r7, #15]
 8000826:	e007      	b.n	8000838 <SetPosition+0x48>
	    case 2:  line_offset = 0x40; break;  // Line 3
 8000828:	2340      	movs	r3, #64	; 0x40
 800082a:	73fb      	strb	r3, [r7, #15]
 800082c:	e004      	b.n	8000838 <SetPosition+0x48>
	    case 3:  line_offset = 0x60; break;  // Line 4
 800082e:	2360      	movs	r3, #96	; 0x60
 8000830:	73fb      	strb	r3, [r7, #15]
 8000832:	e001      	b.n	8000838 <SetPosition+0x48>
	    default: line_offset = 0x60;         // line>3
 8000834:	2360      	movs	r3, #96	; 0x60
 8000836:	73fb      	strb	r3, [r7, #15]
	  }
	  WriteIns(hspi,0x80+line_offset + column);
 8000838:	7bfa      	ldrb	r2, [r7, #15]
 800083a:	78bb      	ldrb	r3, [r7, #2]
 800083c:	4413      	add	r3, r2
 800083e:	b2db      	uxtb	r3, r3
 8000840:	3b80      	subs	r3, #128	; 0x80
 8000842:	b2db      	uxtb	r3, r3
 8000844:	4619      	mov	r1, r3
 8000846:	6878      	ldr	r0, [r7, #4]
 8000848:	f000 f804 	bl	8000854 <WriteIns>
}
 800084c:	bf00      	nop
 800084e:	3710      	adds	r7, #16
 8000850:	46bd      	mov	sp, r7
 8000852:	bd80      	pop	{r7, pc}

08000854 <WriteIns>:
//-----------------------------------------------------
//Func: WriteIns(instruction)
//Desc: sends instruction to display
//-----------------------------------------------------
static void WriteIns(SPI_HandleTypeDef *hspi , uint8_t byte)
{
 8000854:	b580      	push	{r7, lr}
 8000856:	b088      	sub	sp, #32
 8000858:	af02      	add	r7, sp, #8
 800085a:	6078      	str	r0, [r7, #4]
 800085c:	460b      	mov	r3, r1
 800085e:	70fb      	strb	r3, [r7, #3]
	unsigned char bufferx[5];
	uint8_t rdata[4] = {0, 0, 0, 0};
 8000860:	2300      	movs	r3, #0
 8000862:	60fb      	str	r3, [r7, #12]
	bufferx[0] = 0x1F;
 8000864:	231f      	movs	r3, #31
 8000866:	743b      	strb	r3, [r7, #16]
	bufferx[1] = byte 		& 0x0F;
 8000868:	78fb      	ldrb	r3, [r7, #3]
 800086a:	f003 030f 	and.w	r3, r3, #15
 800086e:	b2db      	uxtb	r3, r3
 8000870:	747b      	strb	r3, [r7, #17]
	bufferx[2] = byte>>4 	& 0x0F;
 8000872:	78fb      	ldrb	r3, [r7, #3]
 8000874:	091b      	lsrs	r3, r3, #4
 8000876:	b2db      	uxtb	r3, r3
 8000878:	74bb      	strb	r3, [r7, #18]
	OLED_CS_HIGH;
 800087a:	2201      	movs	r2, #1
 800087c:	f44f 6100 	mov.w	r1, #2048	; 0x800
 8000880:	480e      	ldr	r0, [pc, #56]	; (80008bc <WriteIns+0x68>)
 8000882:	f000 fcb1 	bl	80011e8 <HAL_GPIO_WritePin>
	OLED_CS_LOW;
 8000886:	2200      	movs	r2, #0
 8000888:	f44f 6100 	mov.w	r1, #2048	; 0x800
 800088c:	480b      	ldr	r0, [pc, #44]	; (80008bc <WriteIns+0x68>)
 800088e:	f000 fcab 	bl	80011e8 <HAL_GPIO_WritePin>
	HAL_SPI_TransmitReceive(hspi, bufferx, rdata, 3, 0xFF);
 8000892:	f107 020c 	add.w	r2, r7, #12
 8000896:	f107 0110 	add.w	r1, r7, #16
 800089a:	23ff      	movs	r3, #255	; 0xff
 800089c:	9300      	str	r3, [sp, #0]
 800089e:	2303      	movs	r3, #3
 80008a0:	6878      	ldr	r0, [r7, #4]
 80008a2:	f001 fea2 	bl	80025ea <HAL_SPI_TransmitReceive>
	OLED_CS_HIGH;
 80008a6:	2201      	movs	r2, #1
 80008a8:	f44f 6100 	mov.w	r1, #2048	; 0x800
 80008ac:	4803      	ldr	r0, [pc, #12]	; (80008bc <WriteIns+0x68>)
 80008ae:	f000 fc9b 	bl	80011e8 <HAL_GPIO_WritePin>
}
 80008b2:	bf00      	nop
 80008b4:	3718      	adds	r7, #24
 80008b6:	46bd      	mov	sp, r7
 80008b8:	bd80      	pop	{r7, pc}
 80008ba:	bf00      	nop
 80008bc:	48000800 	.word	0x48000800

080008c0 <WriteData>:
//-----------------------------------------------------
//Func: WriteData(data)
//Desc: sends data to display
//-----------------------------------------------------
static void WriteData(SPI_HandleTypeDef *hspi, uint8_t byte)
{
 80008c0:	b580      	push	{r7, lr}
 80008c2:	b088      	sub	sp, #32
 80008c4:	af02      	add	r7, sp, #8
 80008c6:	6078      	str	r0, [r7, #4]
 80008c8:	460b      	mov	r3, r1
 80008ca:	70fb      	strb	r3, [r7, #3]
	unsigned char bufferx[5];
	uint8_t rdata[4] = {0, 0, 0, 0};
 80008cc:	2300      	movs	r3, #0
 80008ce:	60fb      	str	r3, [r7, #12]
	bufferx[0] = 0x5F;
 80008d0:	235f      	movs	r3, #95	; 0x5f
 80008d2:	743b      	strb	r3, [r7, #16]
	bufferx[1] = byte 		& 0x0F;
 80008d4:	78fb      	ldrb	r3, [r7, #3]
 80008d6:	f003 030f 	and.w	r3, r3, #15
 80008da:	b2db      	uxtb	r3, r3
 80008dc:	747b      	strb	r3, [r7, #17]
	bufferx[2] = byte>>4 	& 0x0F;
 80008de:	78fb      	ldrb	r3, [r7, #3]
 80008e0:	091b      	lsrs	r3, r3, #4
 80008e2:	b2db      	uxtb	r3, r3
 80008e4:	74bb      	strb	r3, [r7, #18]
	OLED_CS_HIGH;	// the CS signal is essential in EACH command to the display, not just at a the beginning of a programming sequence
 80008e6:	2201      	movs	r2, #1
 80008e8:	f44f 6100 	mov.w	r1, #2048	; 0x800
 80008ec:	480e      	ldr	r0, [pc, #56]	; (8000928 <WriteData+0x68>)
 80008ee:	f000 fc7b 	bl	80011e8 <HAL_GPIO_WritePin>
	OLED_CS_LOW;
 80008f2:	2200      	movs	r2, #0
 80008f4:	f44f 6100 	mov.w	r1, #2048	; 0x800
 80008f8:	480b      	ldr	r0, [pc, #44]	; (8000928 <WriteData+0x68>)
 80008fa:	f000 fc75 	bl	80011e8 <HAL_GPIO_WritePin>
	HAL_SPI_TransmitReceive(hspi, bufferx, rdata, 3, 0xFF);
 80008fe:	f107 020c 	add.w	r2, r7, #12
 8000902:	f107 0110 	add.w	r1, r7, #16
 8000906:	23ff      	movs	r3, #255	; 0xff
 8000908:	9300      	str	r3, [sp, #0]
 800090a:	2303      	movs	r3, #3
 800090c:	6878      	ldr	r0, [r7, #4]
 800090e:	f001 fe6c 	bl	80025ea <HAL_SPI_TransmitReceive>
	OLED_CS_HIGH;
 8000912:	2201      	movs	r2, #1
 8000914:	f44f 6100 	mov.w	r1, #2048	; 0x800
 8000918:	4803      	ldr	r0, [pc, #12]	; (8000928 <WriteData+0x68>)
 800091a:	f000 fc65 	bl	80011e8 <HAL_GPIO_WritePin>
}
 800091e:	bf00      	nop
 8000920:	3718      	adds	r7, #24
 8000922:	46bd      	mov	sp, r7
 8000924:	bd80      	pop	{r7, pc}
 8000926:	bf00      	nop
 8000928:	48000800 	.word	0x48000800

0800092c <MX_SPI3_Init>:

SPI_HandleTypeDef hspi3;

/* SPI3 init function */
void MX_SPI3_Init(void)
{
 800092c:	b580      	push	{r7, lr}
 800092e:	af00      	add	r7, sp, #0

  hspi3.Instance = SPI3;
 8000930:	4b1b      	ldr	r3, [pc, #108]	; (80009a0 <MX_SPI3_Init+0x74>)
 8000932:	4a1c      	ldr	r2, [pc, #112]	; (80009a4 <MX_SPI3_Init+0x78>)
 8000934:	601a      	str	r2, [r3, #0]
  hspi3.Init.Mode = SPI_MODE_MASTER;
 8000936:	4b1a      	ldr	r3, [pc, #104]	; (80009a0 <MX_SPI3_Init+0x74>)
 8000938:	f44f 7282 	mov.w	r2, #260	; 0x104
 800093c:	605a      	str	r2, [r3, #4]
  hspi3.Init.Direction = SPI_DIRECTION_2LINES;
 800093e:	4b18      	ldr	r3, [pc, #96]	; (80009a0 <MX_SPI3_Init+0x74>)
 8000940:	2200      	movs	r2, #0
 8000942:	609a      	str	r2, [r3, #8]
  hspi3.Init.DataSize = SPI_DATASIZE_8BIT;
 8000944:	4b16      	ldr	r3, [pc, #88]	; (80009a0 <MX_SPI3_Init+0x74>)
 8000946:	f44f 62e0 	mov.w	r2, #1792	; 0x700
 800094a:	60da      	str	r2, [r3, #12]
  hspi3.Init.CLKPolarity = SPI_POLARITY_HIGH;
 800094c:	4b14      	ldr	r3, [pc, #80]	; (80009a0 <MX_SPI3_Init+0x74>)
 800094e:	2202      	movs	r2, #2
 8000950:	611a      	str	r2, [r3, #16]
  hspi3.Init.CLKPhase = SPI_PHASE_2EDGE;
 8000952:	4b13      	ldr	r3, [pc, #76]	; (80009a0 <MX_SPI3_Init+0x74>)
 8000954:	2201      	movs	r2, #1
 8000956:	615a      	str	r2, [r3, #20]
  hspi3.Init.NSS = SPI_NSS_SOFT;
 8000958:	4b11      	ldr	r3, [pc, #68]	; (80009a0 <MX_SPI3_Init+0x74>)
 800095a:	f44f 7200 	mov.w	r2, #512	; 0x200
 800095e:	619a      	str	r2, [r3, #24]
  hspi3.Init.BaudRatePrescaler = SPI_BAUDRATEPRESCALER_2;
 8000960:	4b0f      	ldr	r3, [pc, #60]	; (80009a0 <MX_SPI3_Init+0x74>)
 8000962:	2200      	movs	r2, #0
 8000964:	61da      	str	r2, [r3, #28]
  hspi3.Init.FirstBit = SPI_FIRSTBIT_LSB;
 8000966:	4b0e      	ldr	r3, [pc, #56]	; (80009a0 <MX_SPI3_Init+0x74>)
 8000968:	2280      	movs	r2, #128	; 0x80
 800096a:	621a      	str	r2, [r3, #32]
  hspi3.Init.TIMode = SPI_TIMODE_DISABLE;
 800096c:	4b0c      	ldr	r3, [pc, #48]	; (80009a0 <MX_SPI3_Init+0x74>)
 800096e:	2200      	movs	r2, #0
 8000970:	625a      	str	r2, [r3, #36]	; 0x24
  hspi3.Init.CRCCalculation = SPI_CRCCALCULATION_DISABLE;
 8000972:	4b0b      	ldr	r3, [pc, #44]	; (80009a0 <MX_SPI3_Init+0x74>)
 8000974:	2200      	movs	r2, #0
 8000976:	629a      	str	r2, [r3, #40]	; 0x28
  hspi3.Init.CRCPolynomial = 7;
 8000978:	4b09      	ldr	r3, [pc, #36]	; (80009a0 <MX_SPI3_Init+0x74>)
 800097a:	2207      	movs	r2, #7
 800097c:	62da      	str	r2, [r3, #44]	; 0x2c
  hspi3.Init.CRCLength = SPI_CRC_LENGTH_DATASIZE;
 800097e:	4b08      	ldr	r3, [pc, #32]	; (80009a0 <MX_SPI3_Init+0x74>)
 8000980:	2200      	movs	r2, #0
 8000982:	631a      	str	r2, [r3, #48]	; 0x30
  hspi3.Init.NSSPMode = SPI_NSS_PULSE_DISABLE;
 8000984:	4b06      	ldr	r3, [pc, #24]	; (80009a0 <MX_SPI3_Init+0x74>)
 8000986:	2200      	movs	r2, #0
 8000988:	635a      	str	r2, [r3, #52]	; 0x34
  if (HAL_SPI_Init(&hspi3) != HAL_OK)
 800098a:	4805      	ldr	r0, [pc, #20]	; (80009a0 <MX_SPI3_Init+0x74>)
 800098c:	f001 fd82 	bl	8002494 <HAL_SPI_Init>
 8000990:	4603      	mov	r3, r0
 8000992:	2b00      	cmp	r3, #0
 8000994:	d001      	beq.n	800099a <MX_SPI3_Init+0x6e>
  {
    Error_Handler();
 8000996:	f7ff fe58 	bl	800064a <Error_Handler>
  }

}
 800099a:	bf00      	nop
 800099c:	bd80      	pop	{r7, pc}
 800099e:	bf00      	nop
 80009a0:	20000028 	.word	0x20000028
 80009a4:	40003c00 	.word	0x40003c00

080009a8 <HAL_SPI_MspInit>:

void HAL_SPI_MspInit(SPI_HandleTypeDef* spiHandle)
{
 80009a8:	b580      	push	{r7, lr}
 80009aa:	b08a      	sub	sp, #40	; 0x28
 80009ac:	af00      	add	r7, sp, #0
 80009ae:	6078      	str	r0, [r7, #4]

  GPIO_InitTypeDef GPIO_InitStruct = {0};
 80009b0:	f107 0314 	add.w	r3, r7, #20
 80009b4:	2200      	movs	r2, #0
 80009b6:	601a      	str	r2, [r3, #0]
 80009b8:	605a      	str	r2, [r3, #4]
 80009ba:	609a      	str	r2, [r3, #8]
 80009bc:	60da      	str	r2, [r3, #12]
 80009be:	611a      	str	r2, [r3, #16]
  if(spiHandle->Instance==SPI3)
 80009c0:	687b      	ldr	r3, [r7, #4]
 80009c2:	681b      	ldr	r3, [r3, #0]
 80009c4:	4a17      	ldr	r2, [pc, #92]	; (8000a24 <HAL_SPI_MspInit+0x7c>)
 80009c6:	4293      	cmp	r3, r2
 80009c8:	d128      	bne.n	8000a1c <HAL_SPI_MspInit+0x74>
  {
  /* USER CODE BEGIN SPI3_MspInit 0 */

  /* USER CODE END SPI3_MspInit 0 */
    /* SPI3 clock enable */
    __HAL_RCC_SPI3_CLK_ENABLE();
 80009ca:	4b17      	ldr	r3, [pc, #92]	; (8000a28 <HAL_SPI_MspInit+0x80>)
 80009cc:	69db      	ldr	r3, [r3, #28]
 80009ce:	4a16      	ldr	r2, [pc, #88]	; (8000a28 <HAL_SPI_MspInit+0x80>)
 80009d0:	f443 4300 	orr.w	r3, r3, #32768	; 0x8000
 80009d4:	61d3      	str	r3, [r2, #28]
 80009d6:	4b14      	ldr	r3, [pc, #80]	; (8000a28 <HAL_SPI_MspInit+0x80>)
 80009d8:	69db      	ldr	r3, [r3, #28]
 80009da:	f403 4300 	and.w	r3, r3, #32768	; 0x8000
 80009de:	613b      	str	r3, [r7, #16]
 80009e0:	693b      	ldr	r3, [r7, #16]

    __HAL_RCC_GPIOC_CLK_ENABLE();
 80009e2:	4b11      	ldr	r3, [pc, #68]	; (8000a28 <HAL_SPI_MspInit+0x80>)
 80009e4:	695b      	ldr	r3, [r3, #20]
 80009e6:	4a10      	ldr	r2, [pc, #64]	; (8000a28 <HAL_SPI_MspInit+0x80>)
 80009e8:	f443 2300 	orr.w	r3, r3, #524288	; 0x80000
 80009ec:	6153      	str	r3, [r2, #20]
 80009ee:	4b0e      	ldr	r3, [pc, #56]	; (8000a28 <HAL_SPI_MspInit+0x80>)
 80009f0:	695b      	ldr	r3, [r3, #20]
 80009f2:	f403 2300 	and.w	r3, r3, #524288	; 0x80000
 80009f6:	60fb      	str	r3, [r7, #12]
 80009f8:	68fb      	ldr	r3, [r7, #12]
    /**SPI3 GPIO Configuration
    PC10     ------> SPI3_SCK
    PC12     ------> SPI3_MOSI
    */
    GPIO_InitStruct.Pin = OLED_SCK_Pin|OLED_MOSI_Pin;
 80009fa:	f44f 53a0 	mov.w	r3, #5120	; 0x1400
 80009fe:	617b      	str	r3, [r7, #20]
    GPIO_InitStruct.Mode = GPIO_MODE_AF_PP;
 8000a00:	2302      	movs	r3, #2
 8000a02:	61bb      	str	r3, [r7, #24]
    GPIO_InitStruct.Pull = GPIO_NOPULL;
 8000a04:	2300      	movs	r3, #0
 8000a06:	61fb      	str	r3, [r7, #28]
    GPIO_InitStruct.Speed = GPIO_SPEED_FREQ_HIGH;
 8000a08:	2303      	movs	r3, #3
 8000a0a:	623b      	str	r3, [r7, #32]
    GPIO_InitStruct.Alternate = GPIO_AF6_SPI3;
 8000a0c:	2306      	movs	r3, #6
 8000a0e:	627b      	str	r3, [r7, #36]	; 0x24
    HAL_GPIO_Init(GPIOC, &GPIO_InitStruct);
 8000a10:	f107 0314 	add.w	r3, r7, #20
 8000a14:	4619      	mov	r1, r3
 8000a16:	4805      	ldr	r0, [pc, #20]	; (8000a2c <HAL_SPI_MspInit+0x84>)
 8000a18:	f000 fa74 	bl	8000f04 <HAL_GPIO_Init>

  /* USER CODE BEGIN SPI3_MspInit 1 */

  /* USER CODE END SPI3_MspInit 1 */
  }
}
 8000a1c:	bf00      	nop
 8000a1e:	3728      	adds	r7, #40	; 0x28
 8000a20:	46bd      	mov	sp, r7
 8000a22:	bd80      	pop	{r7, pc}
 8000a24:	40003c00 	.word	0x40003c00
 8000a28:	40021000 	.word	0x40021000
 8000a2c:	48000800 	.word	0x48000800

08000a30 <HAL_MspInit>:
/* USER CODE END 0 */
/**
  * Initializes the Global MSP.
  */
void HAL_MspInit(void)
{
 8000a30:	b580      	push	{r7, lr}
 8000a32:	b082      	sub	sp, #8
 8000a34:	af00      	add	r7, sp, #0
  /* USER CODE BEGIN MspInit 0 */

  /* USER CODE END MspInit 0 */

  __HAL_RCC_SYSCFG_CLK_ENABLE();
 8000a36:	4b0f      	ldr	r3, [pc, #60]	; (8000a74 <HAL_MspInit+0x44>)
 8000a38:	699b      	ldr	r3, [r3, #24]
 8000a3a:	4a0e      	ldr	r2, [pc, #56]	; (8000a74 <HAL_MspInit+0x44>)
 8000a3c:	f043 0301 	orr.w	r3, r3, #1
 8000a40:	6193      	str	r3, [r2, #24]
 8000a42:	4b0c      	ldr	r3, [pc, #48]	; (8000a74 <HAL_MspInit+0x44>)
 8000a44:	699b      	ldr	r3, [r3, #24]
 8000a46:	f003 0301 	and.w	r3, r3, #1
 8000a4a:	607b      	str	r3, [r7, #4]
 8000a4c:	687b      	ldr	r3, [r7, #4]
  __HAL_RCC_PWR_CLK_ENABLE();
 8000a4e:	4b09      	ldr	r3, [pc, #36]	; (8000a74 <HAL_MspInit+0x44>)
 8000a50:	69db      	ldr	r3, [r3, #28]
 8000a52:	4a08      	ldr	r2, [pc, #32]	; (8000a74 <HAL_MspInit+0x44>)
 8000a54:	f043 5380 	orr.w	r3, r3, #268435456	; 0x10000000
 8000a58:	61d3      	str	r3, [r2, #28]
 8000a5a:	4b06      	ldr	r3, [pc, #24]	; (8000a74 <HAL_MspInit+0x44>)
 8000a5c:	69db      	ldr	r3, [r3, #28]
 8000a5e:	f003 5380 	and.w	r3, r3, #268435456	; 0x10000000
 8000a62:	603b      	str	r3, [r7, #0]
 8000a64:	683b      	ldr	r3, [r7, #0]

  HAL_NVIC_SetPriorityGrouping(NVIC_PRIORITYGROUP_0);
 8000a66:	2007      	movs	r0, #7
 8000a68:	f000 fa18 	bl	8000e9c <HAL_NVIC_SetPriorityGrouping>
  /* System interrupt init*/

  /* USER CODE BEGIN MspInit 1 */

  /* USER CODE END MspInit 1 */
}
 8000a6c:	bf00      	nop
 8000a6e:	3708      	adds	r7, #8
 8000a70:	46bd      	mov	sp, r7
 8000a72:	bd80      	pop	{r7, pc}
 8000a74:	40021000 	.word	0x40021000

08000a78 <NMI_Handler>:
/******************************************************************************/
/**
  * @brief This function handles Non maskable interrupt.
  */
void NMI_Handler(void)
{
 8000a78:	b480      	push	{r7}
 8000a7a:	af00      	add	r7, sp, #0
  /* USER CODE BEGIN NonMaskableInt_IRQn 0 */

  /* USER CODE END NonMaskableInt_IRQn 0 */
  /* USER CODE BEGIN NonMaskableInt_IRQn 1 */
  while (1)
 8000a7c:	e7fe      	b.n	8000a7c <NMI_Handler+0x4>

08000a7e <HardFault_Handler>:

/**
  * @brief This function handles Hard fault interrupt.
  */
void HardFault_Handler(void)
{
 8000a7e:	b480      	push	{r7}
 8000a80:	af00      	add	r7, sp, #0
  /* USER CODE BEGIN HardFault_IRQn 0 */

  /* USER CODE END HardFault_IRQn 0 */
  while (1)
 8000a82:	e7fe      	b.n	8000a82 <HardFault_Handler+0x4>

08000a84 <MemManage_Handler>:

/**
  * @brief This function handles Memory management fault.
  */
void MemManage_Handler(void)
{
 8000a84:	b480      	push	{r7}
 8000a86:	af00      	add	r7, sp, #0
  /* USER CODE BEGIN MemoryManagement_IRQn 0 */

  /* USER CODE END MemoryManagement_IRQn 0 */
  while (1)
 8000a88:	e7fe      	b.n	8000a88 <MemManage_Handler+0x4>

08000a8a <BusFault_Handler>:

/**
  * @brief This function handles Pre-fetch fault, memory access fault.
  */
void BusFault_Handler(void)
{
 8000a8a:	b480      	push	{r7}
 8000a8c:	af00      	add	r7, sp, #0
  /* USER CODE BEGIN BusFault_IRQn 0 */

  /* USER CODE END BusFault_IRQn 0 */
  while (1)
 8000a8e:	e7fe      	b.n	8000a8e <BusFault_Handler+0x4>

08000a90 <UsageFault_Handler>:

/**
  * @brief This function handles Undefined instruction or illegal state.
  */
void UsageFault_Handler(void)
{
 8000a90:	b480      	push	{r7}
 8000a92:	af00      	add	r7, sp, #0
  /* USER CODE BEGIN UsageFault_IRQn 0 */

  /* USER CODE END UsageFault_IRQn 0 */
  while (1)
 8000a94:	e7fe      	b.n	8000a94 <UsageFault_Handler+0x4>

08000a96 <SVC_Handler>:

/**
  * @brief This function handles System service call via SWI instruction.
  */
void SVC_Handler(void)
{
 8000a96:	b480      	push	{r7}
 8000a98:	af00      	add	r7, sp, #0

  /* USER CODE END SVCall_IRQn 0 */
  /* USER CODE BEGIN SVCall_IRQn 1 */

  /* USER CODE END SVCall_IRQn 1 */
}
 8000a9a:	bf00      	nop
 8000a9c:	46bd      	mov	sp, r7
 8000a9e:	f85d 7b04 	ldr.w	r7, [sp], #4
 8000aa2:	4770      	bx	lr

08000aa4 <DebugMon_Handler>:

/**
  * @brief This function handles Debug monitor.
  */
void DebugMon_Handler(void)
{
 8000aa4:	b480      	push	{r7}
 8000aa6:	af00      	add	r7, sp, #0

  /* USER CODE END DebugMonitor_IRQn 0 */
  /* USER CODE BEGIN DebugMonitor_IRQn 1 */

  /* USER CODE END DebugMonitor_IRQn 1 */
}
 8000aa8:	bf00      	nop
 8000aaa:	46bd      	mov	sp, r7
 8000aac:	f85d 7b04 	ldr.w	r7, [sp], #4
 8000ab0:	4770      	bx	lr

08000ab2 <PendSV_Handler>:

/**
  * @brief This function handles Pendable request for system service.
  */
void PendSV_Handler(void)
{
 8000ab2:	b480      	push	{r7}
 8000ab4:	af00      	add	r7, sp, #0

  /* USER CODE END PendSV_IRQn 0 */
  /* USER CODE BEGIN PendSV_IRQn 1 */

  /* USER CODE END PendSV_IRQn 1 */
}
 8000ab6:	bf00      	nop
 8000ab8:	46bd      	mov	sp, r7
 8000aba:	f85d 7b04 	ldr.w	r7, [sp], #4
 8000abe:	4770      	bx	lr

08000ac0 <SysTick_Handler>:

/**
  * @brief This function handles System tick timer.
  */
void SysTick_Handler(void)
{
 8000ac0:	b580      	push	{r7, lr}
 8000ac2:	af00      	add	r7, sp, #0
  /* USER CODE BEGIN SysTick_IRQn 0 */

  /* USER CODE END SysTick_IRQn 0 */
  HAL_IncTick();
 8000ac4:	f000 f8f6 	bl	8000cb4 <HAL_IncTick>
  /* USER CODE BEGIN SysTick_IRQn 1 */

  /* USER CODE END SysTick_IRQn 1 */
}
 8000ac8:	bf00      	nop
 8000aca:	bd80      	pop	{r7, pc}

08000acc <SystemInit>:
  * @brief  Setup the microcontroller system
  * @param  None
  * @retval None
  */
void SystemInit(void)
{
 8000acc:	b480      	push	{r7}
 8000ace:	af00      	add	r7, sp, #0
/* FPU settings --------------------------------------------------------------*/
#if (__FPU_PRESENT == 1) && (__FPU_USED == 1)
  SCB->CPACR |= ((3UL << 10*2)|(3UL << 11*2));  /* set CP10 and CP11 Full Access */
 8000ad0:	4b06      	ldr	r3, [pc, #24]	; (8000aec <SystemInit+0x20>)
 8000ad2:	f8d3 3088 	ldr.w	r3, [r3, #136]	; 0x88
 8000ad6:	4a05      	ldr	r2, [pc, #20]	; (8000aec <SystemInit+0x20>)
 8000ad8:	f443 0370 	orr.w	r3, r3, #15728640	; 0xf00000
 8000adc:	f8c2 3088 	str.w	r3, [r2, #136]	; 0x88

  /* Configure the Vector Table location -------------------------------------*/
#if defined(USER_VECT_TAB_ADDRESS)
  SCB->VTOR = VECT_TAB_BASE_ADDRESS | VECT_TAB_OFFSET; /* Vector Table Relocation in Internal SRAM */
#endif /* USER_VECT_TAB_ADDRESS */
}
 8000ae0:	bf00      	nop
 8000ae2:	46bd      	mov	sp, r7
 8000ae4:	f85d 7b04 	ldr.w	r7, [sp], #4
 8000ae8:	4770      	bx	lr
 8000aea:	bf00      	nop
 8000aec:	e000ed00 	.word	0xe000ed00

08000af0 <MX_USART2_UART_Init>:
UART_HandleTypeDef huart2;

/* USART2 init function */

void MX_USART2_UART_Init(void)
{
 8000af0:	b580      	push	{r7, lr}
 8000af2:	af00      	add	r7, sp, #0

  huart2.Instance = USART2;
 8000af4:	4b14      	ldr	r3, [pc, #80]	; (8000b48 <MX_USART2_UART_Init+0x58>)
 8000af6:	4a15      	ldr	r2, [pc, #84]	; (8000b4c <MX_USART2_UART_Init+0x5c>)
 8000af8:	601a      	str	r2, [r3, #0]
  huart2.Init.BaudRate = 38400;
 8000afa:	4b13      	ldr	r3, [pc, #76]	; (8000b48 <MX_USART2_UART_Init+0x58>)
 8000afc:	f44f 4216 	mov.w	r2, #38400	; 0x9600
 8000b00:	605a      	str	r2, [r3, #4]
  huart2.Init.WordLength = UART_WORDLENGTH_8B;
 8000b02:	4b11      	ldr	r3, [pc, #68]	; (8000b48 <MX_USART2_UART_Init+0x58>)
 8000b04:	2200      	movs	r2, #0
 8000b06:	609a      	str	r2, [r3, #8]
  huart2.Init.StopBits = UART_STOPBITS_1;
 8000b08:	4b0f      	ldr	r3, [pc, #60]	; (8000b48 <MX_USART2_UART_Init+0x58>)
 8000b0a:	2200      	movs	r2, #0
 8000b0c:	60da      	str	r2, [r3, #12]
  huart2.Init.Parity = UART_PARITY_NONE;
 8000b0e:	4b0e      	ldr	r3, [pc, #56]	; (8000b48 <MX_USART2_UART_Init+0x58>)
 8000b10:	2200      	movs	r2, #0
 8000b12:	611a      	str	r2, [r3, #16]
  huart2.Init.Mode = UART_MODE_TX_RX;
 8000b14:	4b0c      	ldr	r3, [pc, #48]	; (8000b48 <MX_USART2_UART_Init+0x58>)
 8000b16:	220c      	movs	r2, #12
 8000b18:	615a      	str	r2, [r3, #20]
  huart2.Init.HwFlowCtl = UART_HWCONTROL_NONE;
 8000b1a:	4b0b      	ldr	r3, [pc, #44]	; (8000b48 <MX_USART2_UART_Init+0x58>)
 8000b1c:	2200      	movs	r2, #0
 8000b1e:	619a      	str	r2, [r3, #24]
  huart2.Init.OverSampling = UART_OVERSAMPLING_16;
 8000b20:	4b09      	ldr	r3, [pc, #36]	; (8000b48 <MX_USART2_UART_Init+0x58>)
 8000b22:	2200      	movs	r2, #0
 8000b24:	61da      	str	r2, [r3, #28]
  huart2.Init.OneBitSampling = UART_ONE_BIT_SAMPLE_DISABLE;
 8000b26:	4b08      	ldr	r3, [pc, #32]	; (8000b48 <MX_USART2_UART_Init+0x58>)
 8000b28:	2200      	movs	r2, #0
 8000b2a:	621a      	str	r2, [r3, #32]
  huart2.AdvancedInit.AdvFeatureInit = UART_ADVFEATURE_NO_INIT;
 8000b2c:	4b06      	ldr	r3, [pc, #24]	; (8000b48 <MX_USART2_UART_Init+0x58>)
 8000b2e:	2200      	movs	r2, #0
 8000b30:	625a      	str	r2, [r3, #36]	; 0x24
  if (HAL_UART_Init(&huart2) != HAL_OK)
 8000b32:	4805      	ldr	r0, [pc, #20]	; (8000b48 <MX_USART2_UART_Init+0x58>)
 8000b34:	f002 f8c8 	bl	8002cc8 <HAL_UART_Init>
 8000b38:	4603      	mov	r3, r0
 8000b3a:	2b00      	cmp	r3, #0
 8000b3c:	d001      	beq.n	8000b42 <MX_USART2_UART_Init+0x52>
  {
    Error_Handler();
 8000b3e:	f7ff fd84 	bl	800064a <Error_Handler>
  }

}
 8000b42:	bf00      	nop
 8000b44:	bd80      	pop	{r7, pc}
 8000b46:	bf00      	nop
 8000b48:	2000008c 	.word	0x2000008c
 8000b4c:	40004400 	.word	0x40004400

08000b50 <HAL_UART_MspInit>:

void HAL_UART_MspInit(UART_HandleTypeDef* uartHandle)
{
 8000b50:	b580      	push	{r7, lr}
 8000b52:	b08a      	sub	sp, #40	; 0x28
 8000b54:	af00      	add	r7, sp, #0
 8000b56:	6078      	str	r0, [r7, #4]

  GPIO_InitTypeDef GPIO_InitStruct = {0};
 8000b58:	f107 0314 	add.w	r3, r7, #20
 8000b5c:	2200      	movs	r2, #0
 8000b5e:	601a      	str	r2, [r3, #0]
 8000b60:	605a      	str	r2, [r3, #4]
 8000b62:	609a      	str	r2, [r3, #8]
 8000b64:	60da      	str	r2, [r3, #12]
 8000b66:	611a      	str	r2, [r3, #16]
  if(uartHandle->Instance==USART2)
 8000b68:	687b      	ldr	r3, [r7, #4]
 8000b6a:	681b      	ldr	r3, [r3, #0]
 8000b6c:	4a17      	ldr	r2, [pc, #92]	; (8000bcc <HAL_UART_MspInit+0x7c>)
 8000b6e:	4293      	cmp	r3, r2
 8000b70:	d128      	bne.n	8000bc4 <HAL_UART_MspInit+0x74>
  {
  /* USER CODE BEGIN USART2_MspInit 0 */

  /* USER CODE END USART2_MspInit 0 */
    /* USART2 clock enable */
    __HAL_RCC_USART2_CLK_ENABLE();
 8000b72:	4b17      	ldr	r3, [pc, #92]	; (8000bd0 <HAL_UART_MspInit+0x80>)
 8000b74:	69db      	ldr	r3, [r3, #28]
 8000b76:	4a16      	ldr	r2, [pc, #88]	; (8000bd0 <HAL_UART_MspInit+0x80>)
 8000b78:	f443 3300 	orr.w	r3, r3, #131072	; 0x20000
 8000b7c:	61d3      	str	r3, [r2, #28]
 8000b7e:	4b14      	ldr	r3, [pc, #80]	; (8000bd0 <HAL_UART_MspInit+0x80>)
 8000b80:	69db      	ldr	r3, [r3, #28]
 8000b82:	f403 3300 	and.w	r3, r3, #131072	; 0x20000
 8000b86:	613b      	str	r3, [r7, #16]
 8000b88:	693b      	ldr	r3, [r7, #16]

    __HAL_RCC_GPIOA_CLK_ENABLE();
 8000b8a:	4b11      	ldr	r3, [pc, #68]	; (8000bd0 <HAL_UART_MspInit+0x80>)
 8000b8c:	695b      	ldr	r3, [r3, #20]
 8000b8e:	4a10      	ldr	r2, [pc, #64]	; (8000bd0 <HAL_UART_MspInit+0x80>)
 8000b90:	f443 3300 	orr.w	r3, r3, #131072	; 0x20000
 8000b94:	6153      	str	r3, [r2, #20]
 8000b96:	4b0e      	ldr	r3, [pc, #56]	; (8000bd0 <HAL_UART_MspInit+0x80>)
 8000b98:	695b      	ldr	r3, [r3, #20]
 8000b9a:	f403 3300 	and.w	r3, r3, #131072	; 0x20000
 8000b9e:	60fb      	str	r3, [r7, #12]
 8000ba0:	68fb      	ldr	r3, [r7, #12]
    /**USART2 GPIO Configuration
    PA2     ------> USART2_TX
    PA3     ------> USART2_RX
    */
    GPIO_InitStruct.Pin = USART_TX_Pin|USART_RX_Pin;
 8000ba2:	230c      	movs	r3, #12
 8000ba4:	617b      	str	r3, [r7, #20]
    GPIO_InitStruct.Mode = GPIO_MODE_AF_PP;
 8000ba6:	2302      	movs	r3, #2
 8000ba8:	61bb      	str	r3, [r7, #24]
    GPIO_InitStruct.Pull = GPIO_NOPULL;
 8000baa:	2300      	movs	r3, #0
 8000bac:	61fb      	str	r3, [r7, #28]
    GPIO_InitStruct.Speed = GPIO_SPEED_FREQ_LOW;
 8000bae:	2300      	movs	r3, #0
 8000bb0:	623b      	str	r3, [r7, #32]
    GPIO_InitStruct.Alternate = GPIO_AF7_USART2;
 8000bb2:	2307      	movs	r3, #7
 8000bb4:	627b      	str	r3, [r7, #36]	; 0x24
    HAL_GPIO_Init(GPIOA, &GPIO_InitStruct);
 8000bb6:	f107 0314 	add.w	r3, r7, #20
 8000bba:	4619      	mov	r1, r3
 8000bbc:	f04f 4090 	mov.w	r0, #1207959552	; 0x48000000
 8000bc0:	f000 f9a0 	bl	8000f04 <HAL_GPIO_Init>

  /* USER CODE BEGIN USART2_MspInit 1 */

  /* USER CODE END USART2_MspInit 1 */
  }
}
 8000bc4:	bf00      	nop
 8000bc6:	3728      	adds	r7, #40	; 0x28
 8000bc8:	46bd      	mov	sp, r7
 8000bca:	bd80      	pop	{r7, pc}
 8000bcc:	40004400 	.word	0x40004400
 8000bd0:	40021000 	.word	0x40021000

08000bd4 <Reset_Handler>:

    .section	.text.Reset_Handler
	.weak	Reset_Handler
	.type	Reset_Handler, %function
Reset_Handler:
  ldr   sp, =_estack    /* Atollic update: set stack pointer */
 8000bd4:	f8df d034 	ldr.w	sp, [pc, #52]	; 8000c0c <LoopForever+0x2>

/* Copy the data segment initializers from flash to SRAM */
  ldr r0, =_sdata
 8000bd8:	480d      	ldr	r0, [pc, #52]	; (8000c10 <LoopForever+0x6>)
  ldr r1, =_edata
 8000bda:	490e      	ldr	r1, [pc, #56]	; (8000c14 <LoopForever+0xa>)
  ldr r2, =_sidata
 8000bdc:	4a0e      	ldr	r2, [pc, #56]	; (8000c18 <LoopForever+0xe>)
  movs r3, #0
 8000bde:	2300      	movs	r3, #0
  b LoopCopyDataInit
 8000be0:	e002      	b.n	8000be8 <LoopCopyDataInit>

08000be2 <CopyDataInit>:

CopyDataInit:
  ldr r4, [r2, r3]
 8000be2:	58d4      	ldr	r4, [r2, r3]
  str r4, [r0, r3]
 8000be4:	50c4      	str	r4, [r0, r3]
  adds r3, r3, #4
 8000be6:	3304      	adds	r3, #4

08000be8 <LoopCopyDataInit>:

LoopCopyDataInit:
  adds r4, r0, r3
 8000be8:	18c4      	adds	r4, r0, r3
  cmp r4, r1
 8000bea:	428c      	cmp	r4, r1
  bcc CopyDataInit
 8000bec:	d3f9      	bcc.n	8000be2 <CopyDataInit>
  
/* Zero fill the bss segment. */
  ldr r2, =_sbss
 8000bee:	4a0b      	ldr	r2, [pc, #44]	; (8000c1c <LoopForever+0x12>)
  ldr r4, =_ebss
 8000bf0:	4c0b      	ldr	r4, [pc, #44]	; (8000c20 <LoopForever+0x16>)
  movs r3, #0
 8000bf2:	2300      	movs	r3, #0
  b LoopFillZerobss
 8000bf4:	e001      	b.n	8000bfa <LoopFillZerobss>

08000bf6 <FillZerobss>:

FillZerobss:
  str  r3, [r2]
 8000bf6:	6013      	str	r3, [r2, #0]
  adds r2, r2, #4
 8000bf8:	3204      	adds	r2, #4

08000bfa <LoopFillZerobss>:

LoopFillZerobss:
  cmp r2, r4
 8000bfa:	42a2      	cmp	r2, r4
  bcc FillZerobss
 8000bfc:	d3fb      	bcc.n	8000bf6 <FillZerobss>

/* Call the clock system intitialization function.*/
    bl  SystemInit
 8000bfe:	f7ff ff65 	bl	8000acc <SystemInit>
/* Call static constructors */
    bl __libc_init_array
 8000c02:	f002 fb4f 	bl	80032a4 <__libc_init_array>
/* Call the application's entry point.*/
	bl	main
 8000c06:	f7ff fcb1 	bl	800056c <main>

08000c0a <LoopForever>:

LoopForever:
    b LoopForever
 8000c0a:	e7fe      	b.n	8000c0a <LoopForever>
  ldr   sp, =_estack    /* Atollic update: set stack pointer */
 8000c0c:	20004000 	.word	0x20004000
  ldr r0, =_sdata
 8000c10:	20000000 	.word	0x20000000
  ldr r1, =_edata
 8000c14:	2000000c 	.word	0x2000000c
  ldr r2, =_sidata
 8000c18:	080034cc 	.word	0x080034cc
  ldr r2, =_sbss
 8000c1c:	2000000c 	.word	0x2000000c
  ldr r4, =_ebss
 8000c20:	20000114 	.word	0x20000114

08000c24 <ADC1_IRQHandler>:
 * @retval : None
*/
    .section	.text.Default_Handler,"ax",%progbits
Default_Handler:
Infinite_Loop:
	b	Infinite_Loop
 8000c24:	e7fe      	b.n	8000c24 <ADC1_IRQHandler>
	...

08000c28 <HAL_Init>:
  *         In the default implementation,Systick is used as source of time base.
  *       The tick variable is incremented each 1ms in its ISR.
  * @retval HAL status
  */
HAL_StatusTypeDef HAL_Init(void)
{
 8000c28:	b580      	push	{r7, lr}
 8000c2a:	af00      	add	r7, sp, #0
  /* Configure Flash prefetch */
#if (PREFETCH_ENABLE != 0U)
  __HAL_FLASH_PREFETCH_BUFFER_ENABLE();
 8000c2c:	4b08      	ldr	r3, [pc, #32]	; (8000c50 <HAL_Init+0x28>)
 8000c2e:	681b      	ldr	r3, [r3, #0]
 8000c30:	4a07      	ldr	r2, [pc, #28]	; (8000c50 <HAL_Init+0x28>)
 8000c32:	f043 0310 	orr.w	r3, r3, #16
 8000c36:	6013      	str	r3, [r2, #0]
#endif /* PREFETCH_ENABLE */

  /* Set Interrupt Group Priority */
  HAL_NVIC_SetPriorityGrouping(NVIC_PRIORITYGROUP_4);
 8000c38:	2003      	movs	r0, #3
 8000c3a:	f000 f92f 	bl	8000e9c <HAL_NVIC_SetPriorityGrouping>

  /* Enable systick and configure 1ms tick (default clock after Reset is HSI) */
  HAL_InitTick(TICK_INT_PRIORITY);
 8000c3e:	2000      	movs	r0, #0
 8000c40:	f000 f808 	bl	8000c54 <HAL_InitTick>

  /* Init the low level hardware */
  HAL_MspInit();
 8000c44:	f7ff fef4 	bl	8000a30 <HAL_MspInit>

  /* Return function status */
  return HAL_OK;
 8000c48:	2300      	movs	r3, #0
}
 8000c4a:	4618      	mov	r0, r3
 8000c4c:	bd80      	pop	{r7, pc}
 8000c4e:	bf00      	nop
 8000c50:	40022000 	.word	0x40022000

08000c54 <HAL_InitTick>:
  *         implementation  in user file.
  * @param TickPriority Tick interrupt priority.
  * @retval HAL status
  */
__weak HAL_StatusTypeDef HAL_InitTick(uint32_t TickPriority)
{
 8000c54:	b580      	push	{r7, lr}
 8000c56:	b082      	sub	sp, #8
 8000c58:	af00      	add	r7, sp, #0
 8000c5a:	6078      	str	r0, [r7, #4]
  /* Configure the SysTick to have interrupt in 1ms time basis*/
  if (HAL_SYSTICK_Config(SystemCoreClock / (1000U / uwTickFreq)) > 0U)
 8000c5c:	4b12      	ldr	r3, [pc, #72]	; (8000ca8 <HAL_InitTick+0x54>)
 8000c5e:	681a      	ldr	r2, [r3, #0]
 8000c60:	4b12      	ldr	r3, [pc, #72]	; (8000cac <HAL_InitTick+0x58>)
 8000c62:	781b      	ldrb	r3, [r3, #0]
 8000c64:	4619      	mov	r1, r3
 8000c66:	f44f 737a 	mov.w	r3, #1000	; 0x3e8
 8000c6a:	fbb3 f3f1 	udiv	r3, r3, r1
 8000c6e:	fbb2 f3f3 	udiv	r3, r2, r3
 8000c72:	4618      	mov	r0, r3
 8000c74:	f000 f939 	bl	8000eea <HAL_SYSTICK_Config>
 8000c78:	4603      	mov	r3, r0
 8000c7a:	2b00      	cmp	r3, #0
 8000c7c:	d001      	beq.n	8000c82 <HAL_InitTick+0x2e>
  {
    return HAL_ERROR;
 8000c7e:	2301      	movs	r3, #1
 8000c80:	e00e      	b.n	8000ca0 <HAL_InitTick+0x4c>
  }

  /* Configure the SysTick IRQ priority */
  if (TickPriority < (1UL << __NVIC_PRIO_BITS))
 8000c82:	687b      	ldr	r3, [r7, #4]
 8000c84:	2b0f      	cmp	r3, #15
 8000c86:	d80a      	bhi.n	8000c9e <HAL_InitTick+0x4a>
  {
    HAL_NVIC_SetPriority(SysTick_IRQn, TickPriority, 0U);
 8000c88:	2200      	movs	r2, #0
 8000c8a:	6879      	ldr	r1, [r7, #4]
 8000c8c:	f04f 30ff 	mov.w	r0, #4294967295
 8000c90:	f000 f90f 	bl	8000eb2 <HAL_NVIC_SetPriority>
    uwTickPrio = TickPriority;
 8000c94:	4a06      	ldr	r2, [pc, #24]	; (8000cb0 <HAL_InitTick+0x5c>)
 8000c96:	687b      	ldr	r3, [r7, #4]
 8000c98:	6013      	str	r3, [r2, #0]
  else
  {
    return HAL_ERROR;
  }
   /* Return function status */
  return HAL_OK;
 8000c9a:	2300      	movs	r3, #0
 8000c9c:	e000      	b.n	8000ca0 <HAL_InitTick+0x4c>
    return HAL_ERROR;
 8000c9e:	2301      	movs	r3, #1
}
 8000ca0:	4618      	mov	r0, r3
 8000ca2:	3708      	adds	r7, #8
 8000ca4:	46bd      	mov	sp, r7
 8000ca6:	bd80      	pop	{r7, pc}
 8000ca8:	20000000 	.word	0x20000000
 8000cac:	20000008 	.word	0x20000008
 8000cb0:	20000004 	.word	0x20000004

08000cb4 <HAL_IncTick>:
  * @note This function is declared as __weak to be overwritten in case of other 
  *         implementations  in user file.
  * @retval None
  */
__weak void HAL_IncTick(void)
{
 8000cb4:	b480      	push	{r7}
 8000cb6:	af00      	add	r7, sp, #0
  uwTick += uwTickFreq;
 8000cb8:	4b06      	ldr	r3, [pc, #24]	; (8000cd4 <HAL_IncTick+0x20>)
 8000cba:	781b      	ldrb	r3, [r3, #0]
 8000cbc:	461a      	mov	r2, r3
 8000cbe:	4b06      	ldr	r3, [pc, #24]	; (8000cd8 <HAL_IncTick+0x24>)
 8000cc0:	681b      	ldr	r3, [r3, #0]
 8000cc2:	4413      	add	r3, r2
 8000cc4:	4a04      	ldr	r2, [pc, #16]	; (8000cd8 <HAL_IncTick+0x24>)
 8000cc6:	6013      	str	r3, [r2, #0]
}
 8000cc8:	bf00      	nop
 8000cca:	46bd      	mov	sp, r7
 8000ccc:	f85d 7b04 	ldr.w	r7, [sp], #4
 8000cd0:	4770      	bx	lr
 8000cd2:	bf00      	nop
 8000cd4:	20000008 	.word	0x20000008
 8000cd8:	20000110 	.word	0x20000110

08000cdc <HAL_GetTick>:
  * @note   The function is declared as __Weak  to be overwritten  in case of other 
  *         implementations  in user file.
  * @retval tick value
  */
__weak uint32_t HAL_GetTick(void)
{
 8000cdc:	b480      	push	{r7}
 8000cde:	af00      	add	r7, sp, #0
  return uwTick;  
 8000ce0:	4b03      	ldr	r3, [pc, #12]	; (8000cf0 <HAL_GetTick+0x14>)
 8000ce2:	681b      	ldr	r3, [r3, #0]
}
 8000ce4:	4618      	mov	r0, r3
 8000ce6:	46bd      	mov	sp, r7
 8000ce8:	f85d 7b04 	ldr.w	r7, [sp], #4
 8000cec:	4770      	bx	lr
 8000cee:	bf00      	nop
 8000cf0:	20000110 	.word	0x20000110

08000cf4 <HAL_Delay>:
  *         implementations  in user file.
  * @param  Delay specifies the delay time length, in milliseconds.
  * @retval None
  */
__weak void HAL_Delay(uint32_t Delay)
{
 8000cf4:	b580      	push	{r7, lr}
 8000cf6:	b084      	sub	sp, #16
 8000cf8:	af00      	add	r7, sp, #0
 8000cfa:	6078      	str	r0, [r7, #4]
  uint32_t tickstart = HAL_GetTick();
 8000cfc:	f7ff ffee 	bl	8000cdc <HAL_GetTick>
 8000d00:	60b8      	str	r0, [r7, #8]
  uint32_t wait = Delay;
 8000d02:	687b      	ldr	r3, [r7, #4]
 8000d04:	60fb      	str	r3, [r7, #12]
  
  /* Add freq to guarantee minimum wait */
  if (wait < HAL_MAX_DELAY)
 8000d06:	68fb      	ldr	r3, [r7, #12]
 8000d08:	f1b3 3fff 	cmp.w	r3, #4294967295
 8000d0c:	d005      	beq.n	8000d1a <HAL_Delay+0x26>
  {
    wait += (uint32_t)(uwTickFreq);
 8000d0e:	4b09      	ldr	r3, [pc, #36]	; (8000d34 <HAL_Delay+0x40>)
 8000d10:	781b      	ldrb	r3, [r3, #0]
 8000d12:	461a      	mov	r2, r3
 8000d14:	68fb      	ldr	r3, [r7, #12]
 8000d16:	4413      	add	r3, r2
 8000d18:	60fb      	str	r3, [r7, #12]
  }
  
  while((HAL_GetTick() - tickstart) < wait)
 8000d1a:	bf00      	nop
 8000d1c:	f7ff ffde 	bl	8000cdc <HAL_GetTick>
 8000d20:	4602      	mov	r2, r0
 8000d22:	68bb      	ldr	r3, [r7, #8]
 8000d24:	1ad3      	subs	r3, r2, r3
 8000d26:	68fa      	ldr	r2, [r7, #12]
 8000d28:	429a      	cmp	r2, r3
 8000d2a:	d8f7      	bhi.n	8000d1c <HAL_Delay+0x28>
  {
  }
}
 8000d2c:	bf00      	nop
 8000d2e:	3710      	adds	r7, #16
 8000d30:	46bd      	mov	sp, r7
 8000d32:	bd80      	pop	{r7, pc}
 8000d34:	20000008 	.word	0x20000008

08000d38 <__NVIC_SetPriorityGrouping>:
           In case of a conflict between priority grouping and available
           priority bits (__NVIC_PRIO_BITS), the smallest possible priority group is set.
  \param [in]      PriorityGroup  Priority grouping field.
 */
__STATIC_INLINE void __NVIC_SetPriorityGrouping(uint32_t PriorityGroup)
{
 8000d38:	b480      	push	{r7}
 8000d3a:	b085      	sub	sp, #20
 8000d3c:	af00      	add	r7, sp, #0
 8000d3e:	6078      	str	r0, [r7, #4]
  uint32_t reg_value;
  uint32_t PriorityGroupTmp = (PriorityGroup & (uint32_t)0x07UL);             /* only values 0..7 are used          */
 8000d40:	687b      	ldr	r3, [r7, #4]
 8000d42:	f003 0307 	and.w	r3, r3, #7
 8000d46:	60fb      	str	r3, [r7, #12]

  reg_value  =  SCB->AIRCR;                                                   /* read old register configuration    */
 8000d48:	4b0c      	ldr	r3, [pc, #48]	; (8000d7c <__NVIC_SetPriorityGrouping+0x44>)
 8000d4a:	68db      	ldr	r3, [r3, #12]
 8000d4c:	60bb      	str	r3, [r7, #8]
  reg_value &= ~((uint32_t)(SCB_AIRCR_VECTKEY_Msk | SCB_AIRCR_PRIGROUP_Msk)); /* clear bits to change               */
 8000d4e:	68ba      	ldr	r2, [r7, #8]
 8000d50:	f64f 03ff 	movw	r3, #63743	; 0xf8ff
 8000d54:	4013      	ands	r3, r2
 8000d56:	60bb      	str	r3, [r7, #8]
  reg_value  =  (reg_value                                   |
                ((uint32_t)0x5FAUL << SCB_AIRCR_VECTKEY_Pos) |
                (PriorityGroupTmp << SCB_AIRCR_PRIGROUP_Pos)  );              /* Insert write key and priority group */
 8000d58:	68fb      	ldr	r3, [r7, #12]
 8000d5a:	021a      	lsls	r2, r3, #8
                ((uint32_t)0x5FAUL << SCB_AIRCR_VECTKEY_Pos) |
 8000d5c:	68bb      	ldr	r3, [r7, #8]
 8000d5e:	4313      	orrs	r3, r2
  reg_value  =  (reg_value                                   |
 8000d60:	f043 63bf 	orr.w	r3, r3, #100139008	; 0x5f80000
 8000d64:	f443 3300 	orr.w	r3, r3, #131072	; 0x20000
 8000d68:	60bb      	str	r3, [r7, #8]
  SCB->AIRCR =  reg_value;
 8000d6a:	4a04      	ldr	r2, [pc, #16]	; (8000d7c <__NVIC_SetPriorityGrouping+0x44>)
 8000d6c:	68bb      	ldr	r3, [r7, #8]
 8000d6e:	60d3      	str	r3, [r2, #12]
}
 8000d70:	bf00      	nop
 8000d72:	3714      	adds	r7, #20
 8000d74:	46bd      	mov	sp, r7
 8000d76:	f85d 7b04 	ldr.w	r7, [sp], #4
 8000d7a:	4770      	bx	lr
 8000d7c:	e000ed00 	.word	0xe000ed00

08000d80 <__NVIC_GetPriorityGrouping>:
  \brief   Get Priority Grouping
  \details Reads the priority grouping field from the NVIC Interrupt Controller.
  \return                Priority grouping field (SCB->AIRCR [10:8] PRIGROUP field).
 */
__STATIC_INLINE uint32_t __NVIC_GetPriorityGrouping(void)
{
 8000d80:	b480      	push	{r7}
 8000d82:	af00      	add	r7, sp, #0
  return ((uint32_t)((SCB->AIRCR & SCB_AIRCR_PRIGROUP_Msk) >> SCB_AIRCR_PRIGROUP_Pos));
 8000d84:	4b04      	ldr	r3, [pc, #16]	; (8000d98 <__NVIC_GetPriorityGrouping+0x18>)
 8000d86:	68db      	ldr	r3, [r3, #12]
 8000d88:	0a1b      	lsrs	r3, r3, #8
 8000d8a:	f003 0307 	and.w	r3, r3, #7
}
 8000d8e:	4618      	mov	r0, r3
 8000d90:	46bd      	mov	sp, r7
 8000d92:	f85d 7b04 	ldr.w	r7, [sp], #4
 8000d96:	4770      	bx	lr
 8000d98:	e000ed00 	.word	0xe000ed00

08000d9c <__NVIC_SetPriority>:
  \param [in]      IRQn  Interrupt number.
  \param [in]  priority  Priority to set.
  \note    The priority cannot be set for every processor exception.
 */
__STATIC_INLINE void __NVIC_SetPriority(IRQn_Type IRQn, uint32_t priority)
{
 8000d9c:	b480      	push	{r7}
 8000d9e:	b083      	sub	sp, #12
 8000da0:	af00      	add	r7, sp, #0
 8000da2:	4603      	mov	r3, r0
 8000da4:	6039      	str	r1, [r7, #0]
 8000da6:	71fb      	strb	r3, [r7, #7]
  if ((int32_t)(IRQn) >= 0)
 8000da8:	f997 3007 	ldrsb.w	r3, [r7, #7]
 8000dac:	2b00      	cmp	r3, #0
 8000dae:	db0a      	blt.n	8000dc6 <__NVIC_SetPriority+0x2a>
  {
    NVIC->IP[((uint32_t)IRQn)]               = (uint8_t)((priority << (8U - __NVIC_PRIO_BITS)) & (uint32_t)0xFFUL);
 8000db0:	683b      	ldr	r3, [r7, #0]
 8000db2:	b2da      	uxtb	r2, r3
 8000db4:	490c      	ldr	r1, [pc, #48]	; (8000de8 <__NVIC_SetPriority+0x4c>)
 8000db6:	f997 3007 	ldrsb.w	r3, [r7, #7]
 8000dba:	0112      	lsls	r2, r2, #4
 8000dbc:	b2d2      	uxtb	r2, r2
 8000dbe:	440b      	add	r3, r1
 8000dc0:	f883 2300 	strb.w	r2, [r3, #768]	; 0x300
  }
  else
  {
    SCB->SHP[(((uint32_t)IRQn) & 0xFUL)-4UL] = (uint8_t)((priority << (8U - __NVIC_PRIO_BITS)) & (uint32_t)0xFFUL);
  }
}
 8000dc4:	e00a      	b.n	8000ddc <__NVIC_SetPriority+0x40>
    SCB->SHP[(((uint32_t)IRQn) & 0xFUL)-4UL] = (uint8_t)((priority << (8U - __NVIC_PRIO_BITS)) & (uint32_t)0xFFUL);
 8000dc6:	683b      	ldr	r3, [r7, #0]
 8000dc8:	b2da      	uxtb	r2, r3
 8000dca:	4908      	ldr	r1, [pc, #32]	; (8000dec <__NVIC_SetPriority+0x50>)
 8000dcc:	79fb      	ldrb	r3, [r7, #7]
 8000dce:	f003 030f 	and.w	r3, r3, #15
 8000dd2:	3b04      	subs	r3, #4
 8000dd4:	0112      	lsls	r2, r2, #4
 8000dd6:	b2d2      	uxtb	r2, r2
 8000dd8:	440b      	add	r3, r1
 8000dda:	761a      	strb	r2, [r3, #24]
}
 8000ddc:	bf00      	nop
 8000dde:	370c      	adds	r7, #12
 8000de0:	46bd      	mov	sp, r7
 8000de2:	f85d 7b04 	ldr.w	r7, [sp], #4
 8000de6:	4770      	bx	lr
 8000de8:	e000e100 	.word	0xe000e100
 8000dec:	e000ed00 	.word	0xe000ed00

08000df0 <NVIC_EncodePriority>:
  \param [in]   PreemptPriority  Preemptive priority value (starting from 0).
  \param [in]       SubPriority  Subpriority value (starting from 0).
  \return                        Encoded priority. Value can be used in the function \ref NVIC_SetPriority().
 */
__STATIC_INLINE uint32_t NVIC_EncodePriority (uint32_t PriorityGroup, uint32_t PreemptPriority, uint32_t SubPriority)
{
 8000df0:	b480      	push	{r7}
 8000df2:	b089      	sub	sp, #36	; 0x24
 8000df4:	af00      	add	r7, sp, #0
 8000df6:	60f8      	str	r0, [r7, #12]
 8000df8:	60b9      	str	r1, [r7, #8]
 8000dfa:	607a      	str	r2, [r7, #4]
  uint32_t PriorityGroupTmp = (PriorityGroup & (uint32_t)0x07UL);   /* only values 0..7 are used          */
 8000dfc:	68fb      	ldr	r3, [r7, #12]
 8000dfe:	f003 0307 	and.w	r3, r3, #7
 8000e02:	61fb      	str	r3, [r7, #28]
  uint32_t PreemptPriorityBits;
  uint32_t SubPriorityBits;

  PreemptPriorityBits = ((7UL - PriorityGroupTmp) > (uint32_t)(__NVIC_PRIO_BITS)) ? (uint32_t)(__NVIC_PRIO_BITS) : (uint32_t)(7UL - PriorityGroupTmp);
 8000e04:	69fb      	ldr	r3, [r7, #28]
 8000e06:	f1c3 0307 	rsb	r3, r3, #7
 8000e0a:	2b04      	cmp	r3, #4
 8000e0c:	bf28      	it	cs
 8000e0e:	2304      	movcs	r3, #4
 8000e10:	61bb      	str	r3, [r7, #24]
  SubPriorityBits     = ((PriorityGroupTmp + (uint32_t)(__NVIC_PRIO_BITS)) < (uint32_t)7UL) ? (uint32_t)0UL : (uint32_t)((PriorityGroupTmp - 7UL) + (uint32_t)(__NVIC_PRIO_BITS));
 8000e12:	69fb      	ldr	r3, [r7, #28]
 8000e14:	3304      	adds	r3, #4
 8000e16:	2b06      	cmp	r3, #6
 8000e18:	d902      	bls.n	8000e20 <NVIC_EncodePriority+0x30>
 8000e1a:	69fb      	ldr	r3, [r7, #28]
 8000e1c:	3b03      	subs	r3, #3
 8000e1e:	e000      	b.n	8000e22 <NVIC_EncodePriority+0x32>
 8000e20:	2300      	movs	r3, #0
 8000e22:	617b      	str	r3, [r7, #20]

  return (
           ((PreemptPriority & (uint32_t)((1UL << (PreemptPriorityBits)) - 1UL)) << SubPriorityBits) |
 8000e24:	f04f 32ff 	mov.w	r2, #4294967295
 8000e28:	69bb      	ldr	r3, [r7, #24]
 8000e2a:	fa02 f303 	lsl.w	r3, r2, r3
 8000e2e:	43da      	mvns	r2, r3
 8000e30:	68bb      	ldr	r3, [r7, #8]
 8000e32:	401a      	ands	r2, r3
 8000e34:	697b      	ldr	r3, [r7, #20]
 8000e36:	409a      	lsls	r2, r3
           ((SubPriority     & (uint32_t)((1UL << (SubPriorityBits    )) - 1UL)))
 8000e38:	f04f 31ff 	mov.w	r1, #4294967295
 8000e3c:	697b      	ldr	r3, [r7, #20]
 8000e3e:	fa01 f303 	lsl.w	r3, r1, r3
 8000e42:	43d9      	mvns	r1, r3
 8000e44:	687b      	ldr	r3, [r7, #4]
 8000e46:	400b      	ands	r3, r1
           ((PreemptPriority & (uint32_t)((1UL << (PreemptPriorityBits)) - 1UL)) << SubPriorityBits) |
 8000e48:	4313      	orrs	r3, r2
         );
}
 8000e4a:	4618      	mov	r0, r3
 8000e4c:	3724      	adds	r7, #36	; 0x24
 8000e4e:	46bd      	mov	sp, r7
 8000e50:	f85d 7b04 	ldr.w	r7, [sp], #4
 8000e54:	4770      	bx	lr
	...

08000e58 <SysTick_Config>:
  \note    When the variable <b>__Vendor_SysTickConfig</b> is set to 1, then the
           function <b>SysTick_Config</b> is not included. In this case, the file <b><i>device</i>.h</b>
           must contain a vendor-specific implementation of this function.
 */
__STATIC_INLINE uint32_t SysTick_Config(uint32_t ticks)
{
 8000e58:	b580      	push	{r7, lr}
 8000e5a:	b082      	sub	sp, #8
 8000e5c:	af00      	add	r7, sp, #0
 8000e5e:	6078      	str	r0, [r7, #4]
  if ((ticks - 1UL) > SysTick_LOAD_RELOAD_Msk)
 8000e60:	687b      	ldr	r3, [r7, #4]
 8000e62:	3b01      	subs	r3, #1
 8000e64:	f1b3 7f80 	cmp.w	r3, #16777216	; 0x1000000
 8000e68:	d301      	bcc.n	8000e6e <SysTick_Config+0x16>
  {
    return (1UL);                                                   /* Reload value impossible */
 8000e6a:	2301      	movs	r3, #1
 8000e6c:	e00f      	b.n	8000e8e <SysTick_Config+0x36>
  }

  SysTick->LOAD  = (uint32_t)(ticks - 1UL);                         /* set reload register */
 8000e6e:	4a0a      	ldr	r2, [pc, #40]	; (8000e98 <SysTick_Config+0x40>)
 8000e70:	687b      	ldr	r3, [r7, #4]
 8000e72:	3b01      	subs	r3, #1
 8000e74:	6053      	str	r3, [r2, #4]
  NVIC_SetPriority (SysTick_IRQn, (1UL << __NVIC_PRIO_BITS) - 1UL); /* set Priority for Systick Interrupt */
 8000e76:	210f      	movs	r1, #15
 8000e78:	f04f 30ff 	mov.w	r0, #4294967295
 8000e7c:	f7ff ff8e 	bl	8000d9c <__NVIC_SetPriority>
  SysTick->VAL   = 0UL;                                             /* Load the SysTick Counter Value */
 8000e80:	4b05      	ldr	r3, [pc, #20]	; (8000e98 <SysTick_Config+0x40>)
 8000e82:	2200      	movs	r2, #0
 8000e84:	609a      	str	r2, [r3, #8]
  SysTick->CTRL  = SysTick_CTRL_CLKSOURCE_Msk |
 8000e86:	4b04      	ldr	r3, [pc, #16]	; (8000e98 <SysTick_Config+0x40>)
 8000e88:	2207      	movs	r2, #7
 8000e8a:	601a      	str	r2, [r3, #0]
                   SysTick_CTRL_TICKINT_Msk   |
                   SysTick_CTRL_ENABLE_Msk;                         /* Enable SysTick IRQ and SysTick Timer */
  return (0UL);                                                     /* Function successful */
 8000e8c:	2300      	movs	r3, #0
}
 8000e8e:	4618      	mov	r0, r3
 8000e90:	3708      	adds	r7, #8
 8000e92:	46bd      	mov	sp, r7
 8000e94:	bd80      	pop	{r7, pc}
 8000e96:	bf00      	nop
 8000e98:	e000e010 	.word	0xe000e010

08000e9c <HAL_NVIC_SetPriorityGrouping>:
  * @note   When the NVIC_PriorityGroup_0 is selected, IRQ pre-emption is no more possible.
  *         The pending IRQ priority will be managed only by the subpriority.
  * @retval None
  */
void HAL_NVIC_SetPriorityGrouping(uint32_t PriorityGroup)
{
 8000e9c:	b580      	push	{r7, lr}
 8000e9e:	b082      	sub	sp, #8
 8000ea0:	af00      	add	r7, sp, #0
 8000ea2:	6078      	str	r0, [r7, #4]
  /* Check the parameters */
  assert_param(IS_NVIC_PRIORITY_GROUP(PriorityGroup));

  /* Set the PRIGROUP[10:8] bits according to the PriorityGroup parameter value */
  NVIC_SetPriorityGrouping(PriorityGroup);
 8000ea4:	6878      	ldr	r0, [r7, #4]
 8000ea6:	f7ff ff47 	bl	8000d38 <__NVIC_SetPriorityGrouping>
}
 8000eaa:	bf00      	nop
 8000eac:	3708      	adds	r7, #8
 8000eae:	46bd      	mov	sp, r7
 8000eb0:	bd80      	pop	{r7, pc}

08000eb2 <HAL_NVIC_SetPriority>:
  *         This parameter can be a value between 0 and 15 as described in the table CORTEX_NVIC_Priority_Table
  *         A lower priority value indicates a higher priority.
  * @retval None
  */
void HAL_NVIC_SetPriority(IRQn_Type IRQn, uint32_t PreemptPriority, uint32_t SubPriority)
{
 8000eb2:	b580      	push	{r7, lr}
 8000eb4:	b086      	sub	sp, #24
 8000eb6:	af00      	add	r7, sp, #0
 8000eb8:	4603      	mov	r3, r0
 8000eba:	60b9      	str	r1, [r7, #8]
 8000ebc:	607a      	str	r2, [r7, #4]
 8000ebe:	73fb      	strb	r3, [r7, #15]
  uint32_t prioritygroup = 0x00U;
 8000ec0:	2300      	movs	r3, #0
 8000ec2:	617b      	str	r3, [r7, #20]
  
  /* Check the parameters */
  assert_param(IS_NVIC_SUB_PRIORITY(SubPriority));
  assert_param(IS_NVIC_PREEMPTION_PRIORITY(PreemptPriority));
  
  prioritygroup = NVIC_GetPriorityGrouping();
 8000ec4:	f7ff ff5c 	bl	8000d80 <__NVIC_GetPriorityGrouping>
 8000ec8:	6178      	str	r0, [r7, #20]
  
  NVIC_SetPriority(IRQn, NVIC_EncodePriority(prioritygroup, PreemptPriority, SubPriority));
 8000eca:	687a      	ldr	r2, [r7, #4]
 8000ecc:	68b9      	ldr	r1, [r7, #8]
 8000ece:	6978      	ldr	r0, [r7, #20]
 8000ed0:	f7ff ff8e 	bl	8000df0 <NVIC_EncodePriority>
 8000ed4:	4602      	mov	r2, r0
 8000ed6:	f997 300f 	ldrsb.w	r3, [r7, #15]
 8000eda:	4611      	mov	r1, r2
 8000edc:	4618      	mov	r0, r3
 8000ede:	f7ff ff5d 	bl	8000d9c <__NVIC_SetPriority>
}
 8000ee2:	bf00      	nop
 8000ee4:	3718      	adds	r7, #24
 8000ee6:	46bd      	mov	sp, r7
 8000ee8:	bd80      	pop	{r7, pc}

08000eea <HAL_SYSTICK_Config>:
  * @param  TicksNumb Specifies the ticks Number of ticks between two interrupts.
  * @retval status:  - 0  Function succeeded.
  *                  - 1  Function failed.
  */
uint32_t HAL_SYSTICK_Config(uint32_t TicksNumb)
{
 8000eea:	b580      	push	{r7, lr}
 8000eec:	b082      	sub	sp, #8
 8000eee:	af00      	add	r7, sp, #0
 8000ef0:	6078      	str	r0, [r7, #4]
   return SysTick_Config(TicksNumb);
 8000ef2:	6878      	ldr	r0, [r7, #4]
 8000ef4:	f7ff ffb0 	bl	8000e58 <SysTick_Config>
 8000ef8:	4603      	mov	r3, r0
}
 8000efa:	4618      	mov	r0, r3
 8000efc:	3708      	adds	r7, #8
 8000efe:	46bd      	mov	sp, r7
 8000f00:	bd80      	pop	{r7, pc}
	...

08000f04 <HAL_GPIO_Init>:
  * @param  GPIO_Init pointer to a GPIO_InitTypeDef structure that contains
  *         the configuration information for the specified GPIO peripheral.
  * @retval None
  */
void HAL_GPIO_Init(GPIO_TypeDef  *GPIOx, GPIO_InitTypeDef *GPIO_Init)
{
 8000f04:	b480      	push	{r7}
 8000f06:	b087      	sub	sp, #28
 8000f08:	af00      	add	r7, sp, #0
 8000f0a:	6078      	str	r0, [r7, #4]
 8000f0c:	6039      	str	r1, [r7, #0]
  uint32_t position = 0x00u;
 8000f0e:	2300      	movs	r3, #0
 8000f10:	617b      	str	r3, [r7, #20]
  assert_param(IS_GPIO_PIN(GPIO_Init->Pin));
  assert_param(IS_GPIO_MODE(GPIO_Init->Mode));
  assert_param(IS_GPIO_PULL(GPIO_Init->Pull));

  /* Configure the port pins */
  while (((GPIO_Init->Pin) >> position) != 0x00u)
 8000f12:	e14e      	b.n	80011b2 <HAL_GPIO_Init+0x2ae>
  {
    /* Get current io position */
    iocurrent = (GPIO_Init->Pin) & (1uL << position);
 8000f14:	683b      	ldr	r3, [r7, #0]
 8000f16:	681a      	ldr	r2, [r3, #0]
 8000f18:	2101      	movs	r1, #1
 8000f1a:	697b      	ldr	r3, [r7, #20]
 8000f1c:	fa01 f303 	lsl.w	r3, r1, r3
 8000f20:	4013      	ands	r3, r2
 8000f22:	60fb      	str	r3, [r7, #12]

    if (iocurrent != 0x00u)
 8000f24:	68fb      	ldr	r3, [r7, #12]
 8000f26:	2b00      	cmp	r3, #0
 8000f28:	f000 8140 	beq.w	80011ac <HAL_GPIO_Init+0x2a8>
    {
      /*--------------------- GPIO Mode Configuration ------------------------*/
      /* In case of Output or Alternate function mode selection */
      if((GPIO_Init->Mode == GPIO_MODE_OUTPUT_PP) || (GPIO_Init->Mode == GPIO_MODE_AF_PP) ||
 8000f2c:	683b      	ldr	r3, [r7, #0]
 8000f2e:	685b      	ldr	r3, [r3, #4]
 8000f30:	2b01      	cmp	r3, #1
 8000f32:	d00b      	beq.n	8000f4c <HAL_GPIO_Init+0x48>
 8000f34:	683b      	ldr	r3, [r7, #0]
 8000f36:	685b      	ldr	r3, [r3, #4]
 8000f38:	2b02      	cmp	r3, #2
 8000f3a:	d007      	beq.n	8000f4c <HAL_GPIO_Init+0x48>
         (GPIO_Init->Mode == GPIO_MODE_OUTPUT_OD) || (GPIO_Init->Mode == GPIO_MODE_AF_OD))
 8000f3c:	683b      	ldr	r3, [r7, #0]
 8000f3e:	685b      	ldr	r3, [r3, #4]
      if((GPIO_Init->Mode == GPIO_MODE_OUTPUT_PP) || (GPIO_Init->Mode == GPIO_MODE_AF_PP) ||
 8000f40:	2b11      	cmp	r3, #17
 8000f42:	d003      	beq.n	8000f4c <HAL_GPIO_Init+0x48>
         (GPIO_Init->Mode == GPIO_MODE_OUTPUT_OD) || (GPIO_Init->Mode == GPIO_MODE_AF_OD))
 8000f44:	683b      	ldr	r3, [r7, #0]
 8000f46:	685b      	ldr	r3, [r3, #4]
 8000f48:	2b12      	cmp	r3, #18
 8000f4a:	d130      	bne.n	8000fae <HAL_GPIO_Init+0xaa>
      {
        /* Check the Speed parameter */
        assert_param(IS_GPIO_SPEED(GPIO_Init->Speed));
        /* Configure the IO Speed */
        temp = GPIOx->OSPEEDR;
 8000f4c:	687b      	ldr	r3, [r7, #4]
 8000f4e:	689b      	ldr	r3, [r3, #8]
 8000f50:	613b      	str	r3, [r7, #16]
        temp &= ~(GPIO_OSPEEDER_OSPEEDR0 << (position * 2u));
 8000f52:	697b      	ldr	r3, [r7, #20]
 8000f54:	005b      	lsls	r3, r3, #1
 8000f56:	2203      	movs	r2, #3
 8000f58:	fa02 f303 	lsl.w	r3, r2, r3
 8000f5c:	43db      	mvns	r3, r3
 8000f5e:	693a      	ldr	r2, [r7, #16]
 8000f60:	4013      	ands	r3, r2
 8000f62:	613b      	str	r3, [r7, #16]
        temp |= (GPIO_Init->Speed << (position * 2u));
 8000f64:	683b      	ldr	r3, [r7, #0]
 8000f66:	68da      	ldr	r2, [r3, #12]
 8000f68:	697b      	ldr	r3, [r7, #20]
 8000f6a:	005b      	lsls	r3, r3, #1
 8000f6c:	fa02 f303 	lsl.w	r3, r2, r3
 8000f70:	693a      	ldr	r2, [r7, #16]
 8000f72:	4313      	orrs	r3, r2
 8000f74:	613b      	str	r3, [r7, #16]
        GPIOx->OSPEEDR = temp;
 8000f76:	687b      	ldr	r3, [r7, #4]
 8000f78:	693a      	ldr	r2, [r7, #16]
 8000f7a:	609a      	str	r2, [r3, #8]

        /* Configure the IO Output Type */
        temp = GPIOx->OTYPER;
 8000f7c:	687b      	ldr	r3, [r7, #4]
 8000f7e:	685b      	ldr	r3, [r3, #4]
 8000f80:	613b      	str	r3, [r7, #16]
        temp &= ~(GPIO_OTYPER_OT_0 << position) ;
 8000f82:	2201      	movs	r2, #1
 8000f84:	697b      	ldr	r3, [r7, #20]
 8000f86:	fa02 f303 	lsl.w	r3, r2, r3
 8000f8a:	43db      	mvns	r3, r3
 8000f8c:	693a      	ldr	r2, [r7, #16]
 8000f8e:	4013      	ands	r3, r2
 8000f90:	613b      	str	r3, [r7, #16]
        temp |= (((GPIO_Init->Mode & GPIO_OUTPUT_TYPE) >> 4u) << position);
 8000f92:	683b      	ldr	r3, [r7, #0]
 8000f94:	685b      	ldr	r3, [r3, #4]
 8000f96:	091b      	lsrs	r3, r3, #4
 8000f98:	f003 0201 	and.w	r2, r3, #1
 8000f9c:	697b      	ldr	r3, [r7, #20]
 8000f9e:	fa02 f303 	lsl.w	r3, r2, r3
 8000fa2:	693a      	ldr	r2, [r7, #16]
 8000fa4:	4313      	orrs	r3, r2
 8000fa6:	613b      	str	r3, [r7, #16]
        GPIOx->OTYPER = temp;
 8000fa8:	687b      	ldr	r3, [r7, #4]
 8000faa:	693a      	ldr	r2, [r7, #16]
 8000fac:	605a      	str	r2, [r3, #4]
      }

      /* Activate the Pull-up or Pull down resistor for the current IO */
      temp = GPIOx->PUPDR;
 8000fae:	687b      	ldr	r3, [r7, #4]
 8000fb0:	68db      	ldr	r3, [r3, #12]
 8000fb2:	613b      	str	r3, [r7, #16]
      temp &= ~(GPIO_PUPDR_PUPDR0 << (position * 2u));
 8000fb4:	697b      	ldr	r3, [r7, #20]
 8000fb6:	005b      	lsls	r3, r3, #1
 8000fb8:	2203      	movs	r2, #3
 8000fba:	fa02 f303 	lsl.w	r3, r2, r3
 8000fbe:	43db      	mvns	r3, r3
 8000fc0:	693a      	ldr	r2, [r7, #16]
 8000fc2:	4013      	ands	r3, r2
 8000fc4:	613b      	str	r3, [r7, #16]
      temp |= ((GPIO_Init->Pull) << (position * 2u));
 8000fc6:	683b      	ldr	r3, [r7, #0]
 8000fc8:	689a      	ldr	r2, [r3, #8]
 8000fca:	697b      	ldr	r3, [r7, #20]
 8000fcc:	005b      	lsls	r3, r3, #1
 8000fce:	fa02 f303 	lsl.w	r3, r2, r3
 8000fd2:	693a      	ldr	r2, [r7, #16]
 8000fd4:	4313      	orrs	r3, r2
 8000fd6:	613b      	str	r3, [r7, #16]
      GPIOx->PUPDR = temp;
 8000fd8:	687b      	ldr	r3, [r7, #4]
 8000fda:	693a      	ldr	r2, [r7, #16]
 8000fdc:	60da      	str	r2, [r3, #12]

      /* In case of Alternate function mode selection */
      if((GPIO_Init->Mode == GPIO_MODE_AF_PP) || (GPIO_Init->Mode == GPIO_MODE_AF_OD))
 8000fde:	683b      	ldr	r3, [r7, #0]
 8000fe0:	685b      	ldr	r3, [r3, #4]
 8000fe2:	2b02      	cmp	r3, #2
 8000fe4:	d003      	beq.n	8000fee <HAL_GPIO_Init+0xea>
 8000fe6:	683b      	ldr	r3, [r7, #0]
 8000fe8:	685b      	ldr	r3, [r3, #4]
 8000fea:	2b12      	cmp	r3, #18
 8000fec:	d123      	bne.n	8001036 <HAL_GPIO_Init+0x132>
        /* Check the Alternate function parameters */
        assert_param(IS_GPIO_AF_INSTANCE(GPIOx));
        assert_param(IS_GPIO_AF(GPIO_Init->Alternate));

        /* Configure Alternate function mapped with the current IO */
        temp = GPIOx->AFR[position >> 3u];
 8000fee:	697b      	ldr	r3, [r7, #20]
 8000ff0:	08da      	lsrs	r2, r3, #3
 8000ff2:	687b      	ldr	r3, [r7, #4]
 8000ff4:	3208      	adds	r2, #8
 8000ff6:	f853 3022 	ldr.w	r3, [r3, r2, lsl #2]
 8000ffa:	613b      	str	r3, [r7, #16]
        temp &= ~(0xFu << ((position & 0x07u) * 4u));
 8000ffc:	697b      	ldr	r3, [r7, #20]
 8000ffe:	f003 0307 	and.w	r3, r3, #7
 8001002:	009b      	lsls	r3, r3, #2
 8001004:	220f      	movs	r2, #15
 8001006:	fa02 f303 	lsl.w	r3, r2, r3
 800100a:	43db      	mvns	r3, r3
 800100c:	693a      	ldr	r2, [r7, #16]
 800100e:	4013      	ands	r3, r2
 8001010:	613b      	str	r3, [r7, #16]
        temp |= ((GPIO_Init->Alternate) << ((position & 0x07u) * 4u));
 8001012:	683b      	ldr	r3, [r7, #0]
 8001014:	691a      	ldr	r2, [r3, #16]
 8001016:	697b      	ldr	r3, [r7, #20]
 8001018:	f003 0307 	and.w	r3, r3, #7
 800101c:	009b      	lsls	r3, r3, #2
 800101e:	fa02 f303 	lsl.w	r3, r2, r3
 8001022:	693a      	ldr	r2, [r7, #16]
 8001024:	4313      	orrs	r3, r2
 8001026:	613b      	str	r3, [r7, #16]
        GPIOx->AFR[position >> 3u] = temp;
 8001028:	697b      	ldr	r3, [r7, #20]
 800102a:	08da      	lsrs	r2, r3, #3
 800102c:	687b      	ldr	r3, [r7, #4]
 800102e:	3208      	adds	r2, #8
 8001030:	6939      	ldr	r1, [r7, #16]
 8001032:	f843 1022 	str.w	r1, [r3, r2, lsl #2]
      }

      /* Configure IO Direction mode (Input, Output, Alternate or Analog) */
      temp = GPIOx->MODER;
 8001036:	687b      	ldr	r3, [r7, #4]
 8001038:	681b      	ldr	r3, [r3, #0]
 800103a:	613b      	str	r3, [r7, #16]
      temp &= ~(GPIO_MODER_MODER0 << (position * 2u));
 800103c:	697b      	ldr	r3, [r7, #20]
 800103e:	005b      	lsls	r3, r3, #1
 8001040:	2203      	movs	r2, #3
 8001042:	fa02 f303 	lsl.w	r3, r2, r3
 8001046:	43db      	mvns	r3, r3
 8001048:	693a      	ldr	r2, [r7, #16]
 800104a:	4013      	ands	r3, r2
 800104c:	613b      	str	r3, [r7, #16]
      temp |= ((GPIO_Init->Mode & GPIO_MODE) << (position * 2u));
 800104e:	683b      	ldr	r3, [r7, #0]
 8001050:	685b      	ldr	r3, [r3, #4]
 8001052:	f003 0203 	and.w	r2, r3, #3
 8001056:	697b      	ldr	r3, [r7, #20]
 8001058:	005b      	lsls	r3, r3, #1
 800105a:	fa02 f303 	lsl.w	r3, r2, r3
 800105e:	693a      	ldr	r2, [r7, #16]
 8001060:	4313      	orrs	r3, r2
 8001062:	613b      	str	r3, [r7, #16]
      GPIOx->MODER = temp;
 8001064:	687b      	ldr	r3, [r7, #4]
 8001066:	693a      	ldr	r2, [r7, #16]
 8001068:	601a      	str	r2, [r3, #0]

      /*--------------------- EXTI Mode Configuration ------------------------*/
      /* Configure the External Interrupt or event for the current IO */
      if((GPIO_Init->Mode & EXTI_MODE) == EXTI_MODE)
 800106a:	683b      	ldr	r3, [r7, #0]
 800106c:	685b      	ldr	r3, [r3, #4]
 800106e:	f003 5380 	and.w	r3, r3, #268435456	; 0x10000000
 8001072:	2b00      	cmp	r3, #0
 8001074:	f000 809a 	beq.w	80011ac <HAL_GPIO_Init+0x2a8>
      {
        /* Enable SYSCFG Clock */
        __HAL_RCC_SYSCFG_CLK_ENABLE();
 8001078:	4b55      	ldr	r3, [pc, #340]	; (80011d0 <HAL_GPIO_Init+0x2cc>)
 800107a:	699b      	ldr	r3, [r3, #24]
 800107c:	4a54      	ldr	r2, [pc, #336]	; (80011d0 <HAL_GPIO_Init+0x2cc>)
 800107e:	f043 0301 	orr.w	r3, r3, #1
 8001082:	6193      	str	r3, [r2, #24]
 8001084:	4b52      	ldr	r3, [pc, #328]	; (80011d0 <HAL_GPIO_Init+0x2cc>)
 8001086:	699b      	ldr	r3, [r3, #24]
 8001088:	f003 0301 	and.w	r3, r3, #1
 800108c:	60bb      	str	r3, [r7, #8]
 800108e:	68bb      	ldr	r3, [r7, #8]

        temp = SYSCFG->EXTICR[position >> 2u];
 8001090:	4a50      	ldr	r2, [pc, #320]	; (80011d4 <HAL_GPIO_Init+0x2d0>)
 8001092:	697b      	ldr	r3, [r7, #20]
 8001094:	089b      	lsrs	r3, r3, #2
 8001096:	3302      	adds	r3, #2
 8001098:	f852 3023 	ldr.w	r3, [r2, r3, lsl #2]
 800109c:	613b      	str	r3, [r7, #16]
        temp &= ~(0x0FuL << (4u * (position & 0x03u)));
 800109e:	697b      	ldr	r3, [r7, #20]
 80010a0:	f003 0303 	and.w	r3, r3, #3
 80010a4:	009b      	lsls	r3, r3, #2
 80010a6:	220f      	movs	r2, #15
 80010a8:	fa02 f303 	lsl.w	r3, r2, r3
 80010ac:	43db      	mvns	r3, r3
 80010ae:	693a      	ldr	r2, [r7, #16]
 80010b0:	4013      	ands	r3, r2
 80010b2:	613b      	str	r3, [r7, #16]
        temp |= (GPIO_GET_INDEX(GPIOx) << (4u * (position & 0x03u)));
 80010b4:	687b      	ldr	r3, [r7, #4]
 80010b6:	f1b3 4f90 	cmp.w	r3, #1207959552	; 0x48000000
 80010ba:	d013      	beq.n	80010e4 <HAL_GPIO_Init+0x1e0>
 80010bc:	687b      	ldr	r3, [r7, #4]
 80010be:	4a46      	ldr	r2, [pc, #280]	; (80011d8 <HAL_GPIO_Init+0x2d4>)
 80010c0:	4293      	cmp	r3, r2
 80010c2:	d00d      	beq.n	80010e0 <HAL_GPIO_Init+0x1dc>
 80010c4:	687b      	ldr	r3, [r7, #4]
 80010c6:	4a45      	ldr	r2, [pc, #276]	; (80011dc <HAL_GPIO_Init+0x2d8>)
 80010c8:	4293      	cmp	r3, r2
 80010ca:	d007      	beq.n	80010dc <HAL_GPIO_Init+0x1d8>
 80010cc:	687b      	ldr	r3, [r7, #4]
 80010ce:	4a44      	ldr	r2, [pc, #272]	; (80011e0 <HAL_GPIO_Init+0x2dc>)
 80010d0:	4293      	cmp	r3, r2
 80010d2:	d101      	bne.n	80010d8 <HAL_GPIO_Init+0x1d4>
 80010d4:	2303      	movs	r3, #3
 80010d6:	e006      	b.n	80010e6 <HAL_GPIO_Init+0x1e2>
 80010d8:	2305      	movs	r3, #5
 80010da:	e004      	b.n	80010e6 <HAL_GPIO_Init+0x1e2>
 80010dc:	2302      	movs	r3, #2
 80010de:	e002      	b.n	80010e6 <HAL_GPIO_Init+0x1e2>
 80010e0:	2301      	movs	r3, #1
 80010e2:	e000      	b.n	80010e6 <HAL_GPIO_Init+0x1e2>
 80010e4:	2300      	movs	r3, #0
 80010e6:	697a      	ldr	r2, [r7, #20]
 80010e8:	f002 0203 	and.w	r2, r2, #3
 80010ec:	0092      	lsls	r2, r2, #2
 80010ee:	4093      	lsls	r3, r2
 80010f0:	693a      	ldr	r2, [r7, #16]
 80010f2:	4313      	orrs	r3, r2
 80010f4:	613b      	str	r3, [r7, #16]
        SYSCFG->EXTICR[position >> 2u] = temp;
 80010f6:	4937      	ldr	r1, [pc, #220]	; (80011d4 <HAL_GPIO_Init+0x2d0>)
 80010f8:	697b      	ldr	r3, [r7, #20]
 80010fa:	089b      	lsrs	r3, r3, #2
 80010fc:	3302      	adds	r3, #2
 80010fe:	693a      	ldr	r2, [r7, #16]
 8001100:	f841 2023 	str.w	r2, [r1, r3, lsl #2]

        /* Clear EXTI line configuration */
        temp = EXTI->IMR;
 8001104:	4b37      	ldr	r3, [pc, #220]	; (80011e4 <HAL_GPIO_Init+0x2e0>)
 8001106:	681b      	ldr	r3, [r3, #0]
 8001108:	613b      	str	r3, [r7, #16]
        temp &= ~(iocurrent);
 800110a:	68fb      	ldr	r3, [r7, #12]
 800110c:	43db      	mvns	r3, r3
 800110e:	693a      	ldr	r2, [r7, #16]
 8001110:	4013      	ands	r3, r2
 8001112:	613b      	str	r3, [r7, #16]
        if((GPIO_Init->Mode & GPIO_MODE_IT) == GPIO_MODE_IT)
 8001114:	683b      	ldr	r3, [r7, #0]
 8001116:	685b      	ldr	r3, [r3, #4]
 8001118:	f403 3380 	and.w	r3, r3, #65536	; 0x10000
 800111c:	2b00      	cmp	r3, #0
 800111e:	d003      	beq.n	8001128 <HAL_GPIO_Init+0x224>
        {
          temp |= iocurrent;
 8001120:	693a      	ldr	r2, [r7, #16]
 8001122:	68fb      	ldr	r3, [r7, #12]
 8001124:	4313      	orrs	r3, r2
 8001126:	613b      	str	r3, [r7, #16]
        }
        EXTI->IMR = temp;
 8001128:	4a2e      	ldr	r2, [pc, #184]	; (80011e4 <HAL_GPIO_Init+0x2e0>)
 800112a:	693b      	ldr	r3, [r7, #16]
 800112c:	6013      	str	r3, [r2, #0]

        temp = EXTI->EMR;
 800112e:	4b2d      	ldr	r3, [pc, #180]	; (80011e4 <HAL_GPIO_Init+0x2e0>)
 8001130:	685b      	ldr	r3, [r3, #4]
 8001132:	613b      	str	r3, [r7, #16]
        temp &= ~(iocurrent);
 8001134:	68fb      	ldr	r3, [r7, #12]
 8001136:	43db      	mvns	r3, r3
 8001138:	693a      	ldr	r2, [r7, #16]
 800113a:	4013      	ands	r3, r2
 800113c:	613b      	str	r3, [r7, #16]
        if((GPIO_Init->Mode & GPIO_MODE_EVT) == GPIO_MODE_EVT)
 800113e:	683b      	ldr	r3, [r7, #0]
 8001140:	685b      	ldr	r3, [r3, #4]
 8001142:	f403 3300 	and.w	r3, r3, #131072	; 0x20000
 8001146:	2b00      	cmp	r3, #0
 8001148:	d003      	beq.n	8001152 <HAL_GPIO_Init+0x24e>
        {
          temp |= iocurrent;
 800114a:	693a      	ldr	r2, [r7, #16]
 800114c:	68fb      	ldr	r3, [r7, #12]
 800114e:	4313      	orrs	r3, r2
 8001150:	613b      	str	r3, [r7, #16]
        }
        EXTI->EMR = temp;
 8001152:	4a24      	ldr	r2, [pc, #144]	; (80011e4 <HAL_GPIO_Init+0x2e0>)
 8001154:	693b      	ldr	r3, [r7, #16]
 8001156:	6053      	str	r3, [r2, #4]

        /* Clear Rising Falling edge configuration */
        temp = EXTI->RTSR;
 8001158:	4b22      	ldr	r3, [pc, #136]	; (80011e4 <HAL_GPIO_Init+0x2e0>)
 800115a:	689b      	ldr	r3, [r3, #8]
 800115c:	613b      	str	r3, [r7, #16]
        temp &= ~(iocurrent);
 800115e:	68fb      	ldr	r3, [r7, #12]
 8001160:	43db      	mvns	r3, r3
 8001162:	693a      	ldr	r2, [r7, #16]
 8001164:	4013      	ands	r3, r2
 8001166:	613b      	str	r3, [r7, #16]
        if((GPIO_Init->Mode & RISING_EDGE) == RISING_EDGE)
 8001168:	683b      	ldr	r3, [r7, #0]
 800116a:	685b      	ldr	r3, [r3, #4]
 800116c:	f403 1380 	and.w	r3, r3, #1048576	; 0x100000
 8001170:	2b00      	cmp	r3, #0
 8001172:	d003      	beq.n	800117c <HAL_GPIO_Init+0x278>
        {
          temp |= iocurrent;
 8001174:	693a      	ldr	r2, [r7, #16]
 8001176:	68fb      	ldr	r3, [r7, #12]
 8001178:	4313      	orrs	r3, r2
 800117a:	613b      	str	r3, [r7, #16]
        }
        EXTI->RTSR = temp;
 800117c:	4a19      	ldr	r2, [pc, #100]	; (80011e4 <HAL_GPIO_Init+0x2e0>)
 800117e:	693b      	ldr	r3, [r7, #16]
 8001180:	6093      	str	r3, [r2, #8]

        temp = EXTI->FTSR;
 8001182:	4b18      	ldr	r3, [pc, #96]	; (80011e4 <HAL_GPIO_Init+0x2e0>)
 8001184:	68db      	ldr	r3, [r3, #12]
 8001186:	613b      	str	r3, [r7, #16]
        temp &= ~(iocurrent);
 8001188:	68fb      	ldr	r3, [r7, #12]
 800118a:	43db      	mvns	r3, r3
 800118c:	693a      	ldr	r2, [r7, #16]
 800118e:	4013      	ands	r3, r2
 8001190:	613b      	str	r3, [r7, #16]
        if((GPIO_Init->Mode & FALLING_EDGE) == FALLING_EDGE)
 8001192:	683b      	ldr	r3, [r7, #0]
 8001194:	685b      	ldr	r3, [r3, #4]
 8001196:	f403 1300 	and.w	r3, r3, #2097152	; 0x200000
 800119a:	2b00      	cmp	r3, #0
 800119c:	d003      	beq.n	80011a6 <HAL_GPIO_Init+0x2a2>
        {
          temp |= iocurrent;
 800119e:	693a      	ldr	r2, [r7, #16]
 80011a0:	68fb      	ldr	r3, [r7, #12]
 80011a2:	4313      	orrs	r3, r2
 80011a4:	613b      	str	r3, [r7, #16]
        }
        EXTI->FTSR = temp;
 80011a6:	4a0f      	ldr	r2, [pc, #60]	; (80011e4 <HAL_GPIO_Init+0x2e0>)
 80011a8:	693b      	ldr	r3, [r7, #16]
 80011aa:	60d3      	str	r3, [r2, #12]
      }
    }

    position++;
 80011ac:	697b      	ldr	r3, [r7, #20]
 80011ae:	3301      	adds	r3, #1
 80011b0:	617b      	str	r3, [r7, #20]
  while (((GPIO_Init->Pin) >> position) != 0x00u)
 80011b2:	683b      	ldr	r3, [r7, #0]
 80011b4:	681a      	ldr	r2, [r3, #0]
 80011b6:	697b      	ldr	r3, [r7, #20]
 80011b8:	fa22 f303 	lsr.w	r3, r2, r3
 80011bc:	2b00      	cmp	r3, #0
 80011be:	f47f aea9 	bne.w	8000f14 <HAL_GPIO_Init+0x10>
  }
}
 80011c2:	bf00      	nop
 80011c4:	371c      	adds	r7, #28
 80011c6:	46bd      	mov	sp, r7
 80011c8:	f85d 7b04 	ldr.w	r7, [sp], #4
 80011cc:	4770      	bx	lr
 80011ce:	bf00      	nop
 80011d0:	40021000 	.word	0x40021000
 80011d4:	40010000 	.word	0x40010000
 80011d8:	48000400 	.word	0x48000400
 80011dc:	48000800 	.word	0x48000800
 80011e0:	48000c00 	.word	0x48000c00
 80011e4:	40010400 	.word	0x40010400

080011e8 <HAL_GPIO_WritePin>:
  *            @arg GPIO_PIN_RESET: to clear the port pin
  *            @arg GPIO_PIN_SET: to set the port pin
  * @retval None
  */
void HAL_GPIO_WritePin(GPIO_TypeDef* GPIOx, uint16_t GPIO_Pin, GPIO_PinState PinState)
{
 80011e8:	b480      	push	{r7}
 80011ea:	b083      	sub	sp, #12
 80011ec:	af00      	add	r7, sp, #0
 80011ee:	6078      	str	r0, [r7, #4]
 80011f0:	460b      	mov	r3, r1
 80011f2:	807b      	strh	r3, [r7, #2]
 80011f4:	4613      	mov	r3, r2
 80011f6:	707b      	strb	r3, [r7, #1]
  /* Check the parameters */
  assert_param(IS_GPIO_PIN(GPIO_Pin));
  assert_param(IS_GPIO_PIN_ACTION(PinState));

  if(PinState != GPIO_PIN_RESET)
 80011f8:	787b      	ldrb	r3, [r7, #1]
 80011fa:	2b00      	cmp	r3, #0
 80011fc:	d003      	beq.n	8001206 <HAL_GPIO_WritePin+0x1e>
  {
    GPIOx->BSRR = (uint32_t)GPIO_Pin;
 80011fe:	887a      	ldrh	r2, [r7, #2]
 8001200:	687b      	ldr	r3, [r7, #4]
 8001202:	619a      	str	r2, [r3, #24]
  }
  else
  {
    GPIOx->BRR = (uint32_t)GPIO_Pin;
  }
}
 8001204:	e002      	b.n	800120c <HAL_GPIO_WritePin+0x24>
    GPIOx->BRR = (uint32_t)GPIO_Pin;
 8001206:	887a      	ldrh	r2, [r7, #2]
 8001208:	687b      	ldr	r3, [r7, #4]
 800120a:	629a      	str	r2, [r3, #40]	; 0x28
}
 800120c:	bf00      	nop
 800120e:	370c      	adds	r7, #12
 8001210:	46bd      	mov	sp, r7
 8001212:	f85d 7b04 	ldr.w	r7, [sp], #4
 8001216:	4770      	bx	lr

08001218 <HAL_RCC_OscConfig>:
  *         supported by this macro. User should request a transition to HSE Off
  *         first and then HSE On or HSE Bypass.
  * @retval HAL status
  */
HAL_StatusTypeDef HAL_RCC_OscConfig(RCC_OscInitTypeDef  *RCC_OscInitStruct)
{
 8001218:	b580      	push	{r7, lr}
 800121a:	f5ad 7d00 	sub.w	sp, sp, #512	; 0x200
 800121e:	af00      	add	r7, sp, #0
 8001220:	1d3b      	adds	r3, r7, #4
 8001222:	6018      	str	r0, [r3, #0]
#if defined(RCC_CFGR_PLLSRC_HSI_PREDIV)
  uint32_t pll_config2;
#endif /* RCC_CFGR_PLLSRC_HSI_PREDIV */

  /* Check Null pointer */
  if(RCC_OscInitStruct == NULL)
 8001224:	1d3b      	adds	r3, r7, #4
 8001226:	681b      	ldr	r3, [r3, #0]
 8001228:	2b00      	cmp	r3, #0
 800122a:	d102      	bne.n	8001232 <HAL_RCC_OscConfig+0x1a>
  {
    return HAL_ERROR;
 800122c:	2301      	movs	r3, #1
 800122e:	f000 bef4 	b.w	800201a <HAL_RCC_OscConfig+0xe02>

  /* Check the parameters */
  assert_param(IS_RCC_OSCILLATORTYPE(RCC_OscInitStruct->OscillatorType));

  /*------------------------------- HSE Configuration ------------------------*/ 
  if(((RCC_OscInitStruct->OscillatorType) & RCC_OSCILLATORTYPE_HSE) == RCC_OSCILLATORTYPE_HSE)
 8001232:	1d3b      	adds	r3, r7, #4
 8001234:	681b      	ldr	r3, [r3, #0]
 8001236:	681b      	ldr	r3, [r3, #0]
 8001238:	f003 0301 	and.w	r3, r3, #1
 800123c:	2b00      	cmp	r3, #0
 800123e:	f000 816a 	beq.w	8001516 <HAL_RCC_OscConfig+0x2fe>
  {
    /* Check the parameters */
    assert_param(IS_RCC_HSE(RCC_OscInitStruct->HSEState));

    /* When the HSE is used as system clock or clock source for PLL in these cases it is not allowed to be disabled */
    if((__HAL_RCC_GET_SYSCLK_SOURCE() == RCC_SYSCLKSOURCE_STATUS_HSE) 
 8001242:	4bb3      	ldr	r3, [pc, #716]	; (8001510 <HAL_RCC_OscConfig+0x2f8>)
 8001244:	685b      	ldr	r3, [r3, #4]
 8001246:	f003 030c 	and.w	r3, r3, #12
 800124a:	2b04      	cmp	r3, #4
 800124c:	d00c      	beq.n	8001268 <HAL_RCC_OscConfig+0x50>
       || ((__HAL_RCC_GET_SYSCLK_SOURCE() == RCC_SYSCLKSOURCE_STATUS_PLLCLK) && (__HAL_RCC_GET_PLL_OSCSOURCE() == RCC_PLLSOURCE_HSE)))
 800124e:	4bb0      	ldr	r3, [pc, #704]	; (8001510 <HAL_RCC_OscConfig+0x2f8>)
 8001250:	685b      	ldr	r3, [r3, #4]
 8001252:	f003 030c 	and.w	r3, r3, #12
 8001256:	2b08      	cmp	r3, #8
 8001258:	d159      	bne.n	800130e <HAL_RCC_OscConfig+0xf6>
 800125a:	4bad      	ldr	r3, [pc, #692]	; (8001510 <HAL_RCC_OscConfig+0x2f8>)
 800125c:	685b      	ldr	r3, [r3, #4]
 800125e:	f403 3380 	and.w	r3, r3, #65536	; 0x10000
 8001262:	f5b3 3f80 	cmp.w	r3, #65536	; 0x10000
 8001266:	d152      	bne.n	800130e <HAL_RCC_OscConfig+0xf6>
 8001268:	f44f 3300 	mov.w	r3, #131072	; 0x20000
 800126c:	f8c7 31f0 	str.w	r3, [r7, #496]	; 0x1f0
  uint32_t result;

#if ((defined (__ARM_ARCH_7M__      ) && (__ARM_ARCH_7M__      == 1)) || \
     (defined (__ARM_ARCH_7EM__     ) && (__ARM_ARCH_7EM__     == 1)) || \
     (defined (__ARM_ARCH_8M_MAIN__ ) && (__ARM_ARCH_8M_MAIN__ == 1))    )
   __ASM volatile ("rbit %0, %1" : "=r" (result) : "r" (value) );
 8001270:	f8d7 31f0 	ldr.w	r3, [r7, #496]	; 0x1f0
 8001274:	fa93 f3a3 	rbit	r3, r3
 8001278:	f8c7 31ec 	str.w	r3, [r7, #492]	; 0x1ec
    result |= value & 1U;
    s--;
  }
  result <<= s;                        /* shift when v's highest bits are zero */
#endif
  return result;
 800127c:	f8d7 31ec 	ldr.w	r3, [r7, #492]	; 0x1ec
    {
      if((__HAL_RCC_GET_FLAG(RCC_FLAG_HSERDY) != RESET) && (RCC_OscInitStruct->HSEState == RCC_HSE_OFF))
 8001280:	fab3 f383 	clz	r3, r3
 8001284:	b2db      	uxtb	r3, r3
 8001286:	095b      	lsrs	r3, r3, #5
 8001288:	b2db      	uxtb	r3, r3
 800128a:	f043 0301 	orr.w	r3, r3, #1
 800128e:	b2db      	uxtb	r3, r3
 8001290:	2b01      	cmp	r3, #1
 8001292:	d102      	bne.n	800129a <HAL_RCC_OscConfig+0x82>
 8001294:	4b9e      	ldr	r3, [pc, #632]	; (8001510 <HAL_RCC_OscConfig+0x2f8>)
 8001296:	681b      	ldr	r3, [r3, #0]
 8001298:	e015      	b.n	80012c6 <HAL_RCC_OscConfig+0xae>
 800129a:	f44f 3300 	mov.w	r3, #131072	; 0x20000
 800129e:	f8c7 31e8 	str.w	r3, [r7, #488]	; 0x1e8
   __ASM volatile ("rbit %0, %1" : "=r" (result) : "r" (value) );
 80012a2:	f8d7 31e8 	ldr.w	r3, [r7, #488]	; 0x1e8
 80012a6:	fa93 f3a3 	rbit	r3, r3
 80012aa:	f8c7 31e4 	str.w	r3, [r7, #484]	; 0x1e4
 80012ae:	f44f 3300 	mov.w	r3, #131072	; 0x20000
 80012b2:	f8c7 31e0 	str.w	r3, [r7, #480]	; 0x1e0
 80012b6:	f8d7 31e0 	ldr.w	r3, [r7, #480]	; 0x1e0
 80012ba:	fa93 f3a3 	rbit	r3, r3
 80012be:	f8c7 31dc 	str.w	r3, [r7, #476]	; 0x1dc
 80012c2:	4b93      	ldr	r3, [pc, #588]	; (8001510 <HAL_RCC_OscConfig+0x2f8>)
 80012c4:	6a5b      	ldr	r3, [r3, #36]	; 0x24
 80012c6:	f44f 3200 	mov.w	r2, #131072	; 0x20000
 80012ca:	f8c7 21d8 	str.w	r2, [r7, #472]	; 0x1d8
 80012ce:	f8d7 21d8 	ldr.w	r2, [r7, #472]	; 0x1d8
 80012d2:	fa92 f2a2 	rbit	r2, r2
 80012d6:	f8c7 21d4 	str.w	r2, [r7, #468]	; 0x1d4
  return result;
 80012da:	f8d7 21d4 	ldr.w	r2, [r7, #468]	; 0x1d4
 80012de:	fab2 f282 	clz	r2, r2
 80012e2:	b2d2      	uxtb	r2, r2
 80012e4:	f042 0220 	orr.w	r2, r2, #32
 80012e8:	b2d2      	uxtb	r2, r2
 80012ea:	f002 021f 	and.w	r2, r2, #31
 80012ee:	2101      	movs	r1, #1
 80012f0:	fa01 f202 	lsl.w	r2, r1, r2
 80012f4:	4013      	ands	r3, r2
 80012f6:	2b00      	cmp	r3, #0
 80012f8:	f000 810c 	beq.w	8001514 <HAL_RCC_OscConfig+0x2fc>
 80012fc:	1d3b      	adds	r3, r7, #4
 80012fe:	681b      	ldr	r3, [r3, #0]
 8001300:	685b      	ldr	r3, [r3, #4]
 8001302:	2b00      	cmp	r3, #0
 8001304:	f040 8106 	bne.w	8001514 <HAL_RCC_OscConfig+0x2fc>
      {
        return HAL_ERROR;
 8001308:	2301      	movs	r3, #1
 800130a:	f000 be86 	b.w	800201a <HAL_RCC_OscConfig+0xe02>
      }
    }
    else
    {
      /* Set the new HSE configuration ---------------------------------------*/
      __HAL_RCC_HSE_CONFIG(RCC_OscInitStruct->HSEState);
 800130e:	1d3b      	adds	r3, r7, #4
 8001310:	681b      	ldr	r3, [r3, #0]
 8001312:	685b      	ldr	r3, [r3, #4]
 8001314:	f5b3 3f80 	cmp.w	r3, #65536	; 0x10000
 8001318:	d106      	bne.n	8001328 <HAL_RCC_OscConfig+0x110>
 800131a:	4b7d      	ldr	r3, [pc, #500]	; (8001510 <HAL_RCC_OscConfig+0x2f8>)
 800131c:	681b      	ldr	r3, [r3, #0]
 800131e:	4a7c      	ldr	r2, [pc, #496]	; (8001510 <HAL_RCC_OscConfig+0x2f8>)
 8001320:	f443 3380 	orr.w	r3, r3, #65536	; 0x10000
 8001324:	6013      	str	r3, [r2, #0]
 8001326:	e030      	b.n	800138a <HAL_RCC_OscConfig+0x172>
 8001328:	1d3b      	adds	r3, r7, #4
 800132a:	681b      	ldr	r3, [r3, #0]
 800132c:	685b      	ldr	r3, [r3, #4]
 800132e:	2b00      	cmp	r3, #0
 8001330:	d10c      	bne.n	800134c <HAL_RCC_OscConfig+0x134>
 8001332:	4b77      	ldr	r3, [pc, #476]	; (8001510 <HAL_RCC_OscConfig+0x2f8>)
 8001334:	681b      	ldr	r3, [r3, #0]
 8001336:	4a76      	ldr	r2, [pc, #472]	; (8001510 <HAL_RCC_OscConfig+0x2f8>)
 8001338:	f423 3380 	bic.w	r3, r3, #65536	; 0x10000
 800133c:	6013      	str	r3, [r2, #0]
 800133e:	4b74      	ldr	r3, [pc, #464]	; (8001510 <HAL_RCC_OscConfig+0x2f8>)
 8001340:	681b      	ldr	r3, [r3, #0]
 8001342:	4a73      	ldr	r2, [pc, #460]	; (8001510 <HAL_RCC_OscConfig+0x2f8>)
 8001344:	f423 2380 	bic.w	r3, r3, #262144	; 0x40000
 8001348:	6013      	str	r3, [r2, #0]
 800134a:	e01e      	b.n	800138a <HAL_RCC_OscConfig+0x172>
 800134c:	1d3b      	adds	r3, r7, #4
 800134e:	681b      	ldr	r3, [r3, #0]
 8001350:	685b      	ldr	r3, [r3, #4]
 8001352:	f5b3 2fa0 	cmp.w	r3, #327680	; 0x50000
 8001356:	d10c      	bne.n	8001372 <HAL_RCC_OscConfig+0x15a>
 8001358:	4b6d      	ldr	r3, [pc, #436]	; (8001510 <HAL_RCC_OscConfig+0x2f8>)
 800135a:	681b      	ldr	r3, [r3, #0]
 800135c:	4a6c      	ldr	r2, [pc, #432]	; (8001510 <HAL_RCC_OscConfig+0x2f8>)
 800135e:	f443 2380 	orr.w	r3, r3, #262144	; 0x40000
 8001362:	6013      	str	r3, [r2, #0]
 8001364:	4b6a      	ldr	r3, [pc, #424]	; (8001510 <HAL_RCC_OscConfig+0x2f8>)
 8001366:	681b      	ldr	r3, [r3, #0]
 8001368:	4a69      	ldr	r2, [pc, #420]	; (8001510 <HAL_RCC_OscConfig+0x2f8>)
 800136a:	f443 3380 	orr.w	r3, r3, #65536	; 0x10000
 800136e:	6013      	str	r3, [r2, #0]
 8001370:	e00b      	b.n	800138a <HAL_RCC_OscConfig+0x172>
 8001372:	4b67      	ldr	r3, [pc, #412]	; (8001510 <HAL_RCC_OscConfig+0x2f8>)
 8001374:	681b      	ldr	r3, [r3, #0]
 8001376:	4a66      	ldr	r2, [pc, #408]	; (8001510 <HAL_RCC_OscConfig+0x2f8>)
 8001378:	f423 3380 	bic.w	r3, r3, #65536	; 0x10000
 800137c:	6013      	str	r3, [r2, #0]
 800137e:	4b64      	ldr	r3, [pc, #400]	; (8001510 <HAL_RCC_OscConfig+0x2f8>)
 8001380:	681b      	ldr	r3, [r3, #0]
 8001382:	4a63      	ldr	r2, [pc, #396]	; (8001510 <HAL_RCC_OscConfig+0x2f8>)
 8001384:	f423 2380 	bic.w	r3, r3, #262144	; 0x40000
 8001388:	6013      	str	r3, [r2, #0]
      
#if defined(RCC_CFGR_PLLSRC_HSI_DIV2)
      /* Configure the HSE predivision factor --------------------------------*/
      __HAL_RCC_HSE_PREDIV_CONFIG(RCC_OscInitStruct->HSEPredivValue);
 800138a:	4b61      	ldr	r3, [pc, #388]	; (8001510 <HAL_RCC_OscConfig+0x2f8>)
 800138c:	6adb      	ldr	r3, [r3, #44]	; 0x2c
 800138e:	f023 020f 	bic.w	r2, r3, #15
 8001392:	1d3b      	adds	r3, r7, #4
 8001394:	681b      	ldr	r3, [r3, #0]
 8001396:	689b      	ldr	r3, [r3, #8]
 8001398:	495d      	ldr	r1, [pc, #372]	; (8001510 <HAL_RCC_OscConfig+0x2f8>)
 800139a:	4313      	orrs	r3, r2
 800139c:	62cb      	str	r3, [r1, #44]	; 0x2c
#endif /* RCC_CFGR_PLLSRC_HSI_DIV2 */

       /* Check the HSE State */
      if(RCC_OscInitStruct->HSEState != RCC_HSE_OFF)
 800139e:	1d3b      	adds	r3, r7, #4
 80013a0:	681b      	ldr	r3, [r3, #0]
 80013a2:	685b      	ldr	r3, [r3, #4]
 80013a4:	2b00      	cmp	r3, #0
 80013a6:	d059      	beq.n	800145c <HAL_RCC_OscConfig+0x244>
      {
        /* Get Start Tick */
        tickstart = HAL_GetTick();
 80013a8:	f7ff fc98 	bl	8000cdc <HAL_GetTick>
 80013ac:	f8c7 01f8 	str.w	r0, [r7, #504]	; 0x1f8
        
        /* Wait till HSE is ready */
        while(__HAL_RCC_GET_FLAG(RCC_FLAG_HSERDY) == RESET)
 80013b0:	e00a      	b.n	80013c8 <HAL_RCC_OscConfig+0x1b0>
        {
          if((HAL_GetTick() - tickstart ) > HSE_TIMEOUT_VALUE)
 80013b2:	f7ff fc93 	bl	8000cdc <HAL_GetTick>
 80013b6:	4602      	mov	r2, r0
 80013b8:	f8d7 31f8 	ldr.w	r3, [r7, #504]	; 0x1f8
 80013bc:	1ad3      	subs	r3, r2, r3
 80013be:	2b64      	cmp	r3, #100	; 0x64
 80013c0:	d902      	bls.n	80013c8 <HAL_RCC_OscConfig+0x1b0>
          {
            return HAL_TIMEOUT;
 80013c2:	2303      	movs	r3, #3
 80013c4:	f000 be29 	b.w	800201a <HAL_RCC_OscConfig+0xe02>
 80013c8:	f44f 3300 	mov.w	r3, #131072	; 0x20000
 80013cc:	f8c7 31d0 	str.w	r3, [r7, #464]	; 0x1d0
   __ASM volatile ("rbit %0, %1" : "=r" (result) : "r" (value) );
 80013d0:	f8d7 31d0 	ldr.w	r3, [r7, #464]	; 0x1d0
 80013d4:	fa93 f3a3 	rbit	r3, r3
 80013d8:	f8c7 31cc 	str.w	r3, [r7, #460]	; 0x1cc
  return result;
 80013dc:	f8d7 31cc 	ldr.w	r3, [r7, #460]	; 0x1cc
        while(__HAL_RCC_GET_FLAG(RCC_FLAG_HSERDY) == RESET)
 80013e0:	fab3 f383 	clz	r3, r3
 80013e4:	b2db      	uxtb	r3, r3
 80013e6:	095b      	lsrs	r3, r3, #5
 80013e8:	b2db      	uxtb	r3, r3
 80013ea:	f043 0301 	orr.w	r3, r3, #1
 80013ee:	b2db      	uxtb	r3, r3
 80013f0:	2b01      	cmp	r3, #1
 80013f2:	d102      	bne.n	80013fa <HAL_RCC_OscConfig+0x1e2>
 80013f4:	4b46      	ldr	r3, [pc, #280]	; (8001510 <HAL_RCC_OscConfig+0x2f8>)
 80013f6:	681b      	ldr	r3, [r3, #0]
 80013f8:	e015      	b.n	8001426 <HAL_RCC_OscConfig+0x20e>
 80013fa:	f44f 3300 	mov.w	r3, #131072	; 0x20000
 80013fe:	f8c7 31c8 	str.w	r3, [r7, #456]	; 0x1c8
   __ASM volatile ("rbit %0, %1" : "=r" (result) : "r" (value) );
 8001402:	f8d7 31c8 	ldr.w	r3, [r7, #456]	; 0x1c8
 8001406:	fa93 f3a3 	rbit	r3, r3
 800140a:	f8c7 31c4 	str.w	r3, [r7, #452]	; 0x1c4
 800140e:	f44f 3300 	mov.w	r3, #131072	; 0x20000
 8001412:	f8c7 31c0 	str.w	r3, [r7, #448]	; 0x1c0
 8001416:	f8d7 31c0 	ldr.w	r3, [r7, #448]	; 0x1c0
 800141a:	fa93 f3a3 	rbit	r3, r3
 800141e:	f8c7 31bc 	str.w	r3, [r7, #444]	; 0x1bc
 8001422:	4b3b      	ldr	r3, [pc, #236]	; (8001510 <HAL_RCC_OscConfig+0x2f8>)
 8001424:	6a5b      	ldr	r3, [r3, #36]	; 0x24
 8001426:	f44f 3200 	mov.w	r2, #131072	; 0x20000
 800142a:	f8c7 21b8 	str.w	r2, [r7, #440]	; 0x1b8
 800142e:	f8d7 21b8 	ldr.w	r2, [r7, #440]	; 0x1b8
 8001432:	fa92 f2a2 	rbit	r2, r2
 8001436:	f8c7 21b4 	str.w	r2, [r7, #436]	; 0x1b4
  return result;
 800143a:	f8d7 21b4 	ldr.w	r2, [r7, #436]	; 0x1b4
 800143e:	fab2 f282 	clz	r2, r2
 8001442:	b2d2      	uxtb	r2, r2
 8001444:	f042 0220 	orr.w	r2, r2, #32
 8001448:	b2d2      	uxtb	r2, r2
 800144a:	f002 021f 	and.w	r2, r2, #31
 800144e:	2101      	movs	r1, #1
 8001450:	fa01 f202 	lsl.w	r2, r1, r2
 8001454:	4013      	ands	r3, r2
 8001456:	2b00      	cmp	r3, #0
 8001458:	d0ab      	beq.n	80013b2 <HAL_RCC_OscConfig+0x19a>
 800145a:	e05c      	b.n	8001516 <HAL_RCC_OscConfig+0x2fe>
        }
      }
      else
      {
        /* Get Start Tick */
        tickstart = HAL_GetTick();
 800145c:	f7ff fc3e 	bl	8000cdc <HAL_GetTick>
 8001460:	f8c7 01f8 	str.w	r0, [r7, #504]	; 0x1f8
        
        /* Wait till HSE is disabled */
        while(__HAL_RCC_GET_FLAG(RCC_FLAG_HSERDY) != RESET)
 8001464:	e00a      	b.n	800147c <HAL_RCC_OscConfig+0x264>
        {
           if((HAL_GetTick() - tickstart ) > HSE_TIMEOUT_VALUE)
 8001466:	f7ff fc39 	bl	8000cdc <HAL_GetTick>
 800146a:	4602      	mov	r2, r0
 800146c:	f8d7 31f8 	ldr.w	r3, [r7, #504]	; 0x1f8
 8001470:	1ad3      	subs	r3, r2, r3
 8001472:	2b64      	cmp	r3, #100	; 0x64
 8001474:	d902      	bls.n	800147c <HAL_RCC_OscConfig+0x264>
          {
            return HAL_TIMEOUT;
 8001476:	2303      	movs	r3, #3
 8001478:	f000 bdcf 	b.w	800201a <HAL_RCC_OscConfig+0xe02>
 800147c:	f44f 3300 	mov.w	r3, #131072	; 0x20000
 8001480:	f8c7 31b0 	str.w	r3, [r7, #432]	; 0x1b0
   __ASM volatile ("rbit %0, %1" : "=r" (result) : "r" (value) );
 8001484:	f8d7 31b0 	ldr.w	r3, [r7, #432]	; 0x1b0
 8001488:	fa93 f3a3 	rbit	r3, r3
 800148c:	f8c7 31ac 	str.w	r3, [r7, #428]	; 0x1ac
  return result;
 8001490:	f8d7 31ac 	ldr.w	r3, [r7, #428]	; 0x1ac
        while(__HAL_RCC_GET_FLAG(RCC_FLAG_HSERDY) != RESET)
 8001494:	fab3 f383 	clz	r3, r3
 8001498:	b2db      	uxtb	r3, r3
 800149a:	095b      	lsrs	r3, r3, #5
 800149c:	b2db      	uxtb	r3, r3
 800149e:	f043 0301 	orr.w	r3, r3, #1
 80014a2:	b2db      	uxtb	r3, r3
 80014a4:	2b01      	cmp	r3, #1
 80014a6:	d102      	bne.n	80014ae <HAL_RCC_OscConfig+0x296>
 80014a8:	4b19      	ldr	r3, [pc, #100]	; (8001510 <HAL_RCC_OscConfig+0x2f8>)
 80014aa:	681b      	ldr	r3, [r3, #0]
 80014ac:	e015      	b.n	80014da <HAL_RCC_OscConfig+0x2c2>
 80014ae:	f44f 3300 	mov.w	r3, #131072	; 0x20000
 80014b2:	f8c7 31a8 	str.w	r3, [r7, #424]	; 0x1a8
   __ASM volatile ("rbit %0, %1" : "=r" (result) : "r" (value) );
 80014b6:	f8d7 31a8 	ldr.w	r3, [r7, #424]	; 0x1a8
 80014ba:	fa93 f3a3 	rbit	r3, r3
 80014be:	f8c7 31a4 	str.w	r3, [r7, #420]	; 0x1a4
 80014c2:	f44f 3300 	mov.w	r3, #131072	; 0x20000
 80014c6:	f8c7 31a0 	str.w	r3, [r7, #416]	; 0x1a0
 80014ca:	f8d7 31a0 	ldr.w	r3, [r7, #416]	; 0x1a0
 80014ce:	fa93 f3a3 	rbit	r3, r3
 80014d2:	f8c7 319c 	str.w	r3, [r7, #412]	; 0x19c
 80014d6:	4b0e      	ldr	r3, [pc, #56]	; (8001510 <HAL_RCC_OscConfig+0x2f8>)
 80014d8:	6a5b      	ldr	r3, [r3, #36]	; 0x24
 80014da:	f44f 3200 	mov.w	r2, #131072	; 0x20000
 80014de:	f8c7 2198 	str.w	r2, [r7, #408]	; 0x198
 80014e2:	f8d7 2198 	ldr.w	r2, [r7, #408]	; 0x198
 80014e6:	fa92 f2a2 	rbit	r2, r2
 80014ea:	f8c7 2194 	str.w	r2, [r7, #404]	; 0x194
  return result;
 80014ee:	f8d7 2194 	ldr.w	r2, [r7, #404]	; 0x194
 80014f2:	fab2 f282 	clz	r2, r2
 80014f6:	b2d2      	uxtb	r2, r2
 80014f8:	f042 0220 	orr.w	r2, r2, #32
 80014fc:	b2d2      	uxtb	r2, r2
 80014fe:	f002 021f 	and.w	r2, r2, #31
 8001502:	2101      	movs	r1, #1
 8001504:	fa01 f202 	lsl.w	r2, r1, r2
 8001508:	4013      	ands	r3, r2
 800150a:	2b00      	cmp	r3, #0
 800150c:	d1ab      	bne.n	8001466 <HAL_RCC_OscConfig+0x24e>
 800150e:	e002      	b.n	8001516 <HAL_RCC_OscConfig+0x2fe>
 8001510:	40021000 	.word	0x40021000
      if((__HAL_RCC_GET_FLAG(RCC_FLAG_HSERDY) != RESET) && (RCC_OscInitStruct->HSEState == RCC_HSE_OFF))
 8001514:	bf00      	nop
        }
      }
    }
  }
  /*----------------------------- HSI Configuration --------------------------*/ 
  if(((RCC_OscInitStruct->OscillatorType) & RCC_OSCILLATORTYPE_HSI) == RCC_OSCILLATORTYPE_HSI)
 8001516:	1d3b      	adds	r3, r7, #4
 8001518:	681b      	ldr	r3, [r3, #0]
 800151a:	681b      	ldr	r3, [r3, #0]
 800151c:	f003 0302 	and.w	r3, r3, #2
 8001520:	2b00      	cmp	r3, #0
 8001522:	f000 816f 	beq.w	8001804 <HAL_RCC_OscConfig+0x5ec>
    /* Check the parameters */
    assert_param(IS_RCC_HSI(RCC_OscInitStruct->HSIState));
    assert_param(IS_RCC_CALIBRATION_VALUE(RCC_OscInitStruct->HSICalibrationValue));
    
    /* Check if HSI is used as system clock or as PLL source when PLL is selected as system clock */ 
    if((__HAL_RCC_GET_SYSCLK_SOURCE() == RCC_SYSCLKSOURCE_STATUS_HSI) 
 8001526:	4bd0      	ldr	r3, [pc, #832]	; (8001868 <HAL_RCC_OscConfig+0x650>)
 8001528:	685b      	ldr	r3, [r3, #4]
 800152a:	f003 030c 	and.w	r3, r3, #12
 800152e:	2b00      	cmp	r3, #0
 8001530:	d00b      	beq.n	800154a <HAL_RCC_OscConfig+0x332>
       || ((__HAL_RCC_GET_SYSCLK_SOURCE() == RCC_SYSCLKSOURCE_STATUS_PLLCLK) && (__HAL_RCC_GET_PLL_OSCSOURCE() == RCC_PLLSOURCE_HSI)))
 8001532:	4bcd      	ldr	r3, [pc, #820]	; (8001868 <HAL_RCC_OscConfig+0x650>)
 8001534:	685b      	ldr	r3, [r3, #4]
 8001536:	f003 030c 	and.w	r3, r3, #12
 800153a:	2b08      	cmp	r3, #8
 800153c:	d16c      	bne.n	8001618 <HAL_RCC_OscConfig+0x400>
 800153e:	4bca      	ldr	r3, [pc, #808]	; (8001868 <HAL_RCC_OscConfig+0x650>)
 8001540:	685b      	ldr	r3, [r3, #4]
 8001542:	f403 3380 	and.w	r3, r3, #65536	; 0x10000
 8001546:	2b00      	cmp	r3, #0
 8001548:	d166      	bne.n	8001618 <HAL_RCC_OscConfig+0x400>
 800154a:	2302      	movs	r3, #2
 800154c:	f8c7 3190 	str.w	r3, [r7, #400]	; 0x190
   __ASM volatile ("rbit %0, %1" : "=r" (result) : "r" (value) );
 8001550:	f8d7 3190 	ldr.w	r3, [r7, #400]	; 0x190
 8001554:	fa93 f3a3 	rbit	r3, r3
 8001558:	f8c7 318c 	str.w	r3, [r7, #396]	; 0x18c
  return result;
 800155c:	f8d7 318c 	ldr.w	r3, [r7, #396]	; 0x18c
    {
      /* When HSI is used as system clock it will not disabled */
      if((__HAL_RCC_GET_FLAG(RCC_FLAG_HSIRDY) != RESET) && (RCC_OscInitStruct->HSIState != RCC_HSI_ON))
 8001560:	fab3 f383 	clz	r3, r3
 8001564:	b2db      	uxtb	r3, r3
 8001566:	095b      	lsrs	r3, r3, #5
 8001568:	b2db      	uxtb	r3, r3
 800156a:	f043 0301 	orr.w	r3, r3, #1
 800156e:	b2db      	uxtb	r3, r3
 8001570:	2b01      	cmp	r3, #1
 8001572:	d102      	bne.n	800157a <HAL_RCC_OscConfig+0x362>
 8001574:	4bbc      	ldr	r3, [pc, #752]	; (8001868 <HAL_RCC_OscConfig+0x650>)
 8001576:	681b      	ldr	r3, [r3, #0]
 8001578:	e013      	b.n	80015a2 <HAL_RCC_OscConfig+0x38a>
 800157a:	2302      	movs	r3, #2
 800157c:	f8c7 3188 	str.w	r3, [r7, #392]	; 0x188
   __ASM volatile ("rbit %0, %1" : "=r" (result) : "r" (value) );
 8001580:	f8d7 3188 	ldr.w	r3, [r7, #392]	; 0x188
 8001584:	fa93 f3a3 	rbit	r3, r3
 8001588:	f8c7 3184 	str.w	r3, [r7, #388]	; 0x184
 800158c:	2302      	movs	r3, #2
 800158e:	f8c7 3180 	str.w	r3, [r7, #384]	; 0x180
 8001592:	f8d7 3180 	ldr.w	r3, [r7, #384]	; 0x180
 8001596:	fa93 f3a3 	rbit	r3, r3
 800159a:	f8c7 317c 	str.w	r3, [r7, #380]	; 0x17c
 800159e:	4bb2      	ldr	r3, [pc, #712]	; (8001868 <HAL_RCC_OscConfig+0x650>)
 80015a0:	6a5b      	ldr	r3, [r3, #36]	; 0x24
 80015a2:	2202      	movs	r2, #2
 80015a4:	f8c7 2178 	str.w	r2, [r7, #376]	; 0x178
 80015a8:	f8d7 2178 	ldr.w	r2, [r7, #376]	; 0x178
 80015ac:	fa92 f2a2 	rbit	r2, r2
 80015b0:	f8c7 2174 	str.w	r2, [r7, #372]	; 0x174
  return result;
 80015b4:	f8d7 2174 	ldr.w	r2, [r7, #372]	; 0x174
 80015b8:	fab2 f282 	clz	r2, r2
 80015bc:	b2d2      	uxtb	r2, r2
 80015be:	f042 0220 	orr.w	r2, r2, #32
 80015c2:	b2d2      	uxtb	r2, r2
 80015c4:	f002 021f 	and.w	r2, r2, #31
 80015c8:	2101      	movs	r1, #1
 80015ca:	fa01 f202 	lsl.w	r2, r1, r2
 80015ce:	4013      	ands	r3, r2
 80015d0:	2b00      	cmp	r3, #0
 80015d2:	d007      	beq.n	80015e4 <HAL_RCC_OscConfig+0x3cc>
 80015d4:	1d3b      	adds	r3, r7, #4
 80015d6:	681b      	ldr	r3, [r3, #0]
 80015d8:	691b      	ldr	r3, [r3, #16]
 80015da:	2b01      	cmp	r3, #1
 80015dc:	d002      	beq.n	80015e4 <HAL_RCC_OscConfig+0x3cc>
      {
        return HAL_ERROR;
 80015de:	2301      	movs	r3, #1
 80015e0:	f000 bd1b 	b.w	800201a <HAL_RCC_OscConfig+0xe02>
      }
      /* Otherwise, just the calibration is allowed */
      else
      {
        /* Adjusts the Internal High Speed oscillator (HSI) calibration value.*/
        __HAL_RCC_HSI_CALIBRATIONVALUE_ADJUST(RCC_OscInitStruct->HSICalibrationValue);
 80015e4:	4ba0      	ldr	r3, [pc, #640]	; (8001868 <HAL_RCC_OscConfig+0x650>)
 80015e6:	681b      	ldr	r3, [r3, #0]
 80015e8:	f023 02f8 	bic.w	r2, r3, #248	; 0xf8
 80015ec:	1d3b      	adds	r3, r7, #4
 80015ee:	681b      	ldr	r3, [r3, #0]
 80015f0:	695b      	ldr	r3, [r3, #20]
 80015f2:	21f8      	movs	r1, #248	; 0xf8
 80015f4:	f8c7 1170 	str.w	r1, [r7, #368]	; 0x170
   __ASM volatile ("rbit %0, %1" : "=r" (result) : "r" (value) );
 80015f8:	f8d7 1170 	ldr.w	r1, [r7, #368]	; 0x170
 80015fc:	fa91 f1a1 	rbit	r1, r1
 8001600:	f8c7 116c 	str.w	r1, [r7, #364]	; 0x16c
  return result;
 8001604:	f8d7 116c 	ldr.w	r1, [r7, #364]	; 0x16c
 8001608:	fab1 f181 	clz	r1, r1
 800160c:	b2c9      	uxtb	r1, r1
 800160e:	408b      	lsls	r3, r1
 8001610:	4995      	ldr	r1, [pc, #596]	; (8001868 <HAL_RCC_OscConfig+0x650>)
 8001612:	4313      	orrs	r3, r2
 8001614:	600b      	str	r3, [r1, #0]
      if((__HAL_RCC_GET_FLAG(RCC_FLAG_HSIRDY) != RESET) && (RCC_OscInitStruct->HSIState != RCC_HSI_ON))
 8001616:	e0f5      	b.n	8001804 <HAL_RCC_OscConfig+0x5ec>
      }
    }
    else
    {
      /* Check the HSI State */
      if(RCC_OscInitStruct->HSIState != RCC_HSI_OFF)
 8001618:	1d3b      	adds	r3, r7, #4
 800161a:	681b      	ldr	r3, [r3, #0]
 800161c:	691b      	ldr	r3, [r3, #16]
 800161e:	2b00      	cmp	r3, #0
 8001620:	f000 8085 	beq.w	800172e <HAL_RCC_OscConfig+0x516>
 8001624:	2301      	movs	r3, #1
 8001626:	f8c7 3168 	str.w	r3, [r7, #360]	; 0x168
   __ASM volatile ("rbit %0, %1" : "=r" (result) : "r" (value) );
 800162a:	f8d7 3168 	ldr.w	r3, [r7, #360]	; 0x168
 800162e:	fa93 f3a3 	rbit	r3, r3
 8001632:	f8c7 3164 	str.w	r3, [r7, #356]	; 0x164
  return result;
 8001636:	f8d7 3164 	ldr.w	r3, [r7, #356]	; 0x164
      {
       /* Enable the Internal High Speed oscillator (HSI). */
        __HAL_RCC_HSI_ENABLE();
 800163a:	fab3 f383 	clz	r3, r3
 800163e:	b2db      	uxtb	r3, r3
 8001640:	f103 5384 	add.w	r3, r3, #276824064	; 0x10800000
 8001644:	f503 1384 	add.w	r3, r3, #1081344	; 0x108000
 8001648:	009b      	lsls	r3, r3, #2
 800164a:	461a      	mov	r2, r3
 800164c:	2301      	movs	r3, #1
 800164e:	6013      	str	r3, [r2, #0]
        
        /* Get Start Tick */
        tickstart = HAL_GetTick();
 8001650:	f7ff fb44 	bl	8000cdc <HAL_GetTick>
 8001654:	f8c7 01f8 	str.w	r0, [r7, #504]	; 0x1f8
        
        /* Wait till HSI is ready */
        while(__HAL_RCC_GET_FLAG(RCC_FLAG_HSIRDY) == RESET)
 8001658:	e00a      	b.n	8001670 <HAL_RCC_OscConfig+0x458>
        {
          if((HAL_GetTick() - tickstart ) > HSI_TIMEOUT_VALUE)
 800165a:	f7ff fb3f 	bl	8000cdc <HAL_GetTick>
 800165e:	4602      	mov	r2, r0
 8001660:	f8d7 31f8 	ldr.w	r3, [r7, #504]	; 0x1f8
 8001664:	1ad3      	subs	r3, r2, r3
 8001666:	2b02      	cmp	r3, #2
 8001668:	d902      	bls.n	8001670 <HAL_RCC_OscConfig+0x458>
          {
            return HAL_TIMEOUT;
 800166a:	2303      	movs	r3, #3
 800166c:	f000 bcd5 	b.w	800201a <HAL_RCC_OscConfig+0xe02>
 8001670:	2302      	movs	r3, #2
 8001672:	f8c7 3160 	str.w	r3, [r7, #352]	; 0x160
   __ASM volatile ("rbit %0, %1" : "=r" (result) : "r" (value) );
 8001676:	f8d7 3160 	ldr.w	r3, [r7, #352]	; 0x160
 800167a:	fa93 f3a3 	rbit	r3, r3
 800167e:	f8c7 315c 	str.w	r3, [r7, #348]	; 0x15c
  return result;
 8001682:	f8d7 315c 	ldr.w	r3, [r7, #348]	; 0x15c
        while(__HAL_RCC_GET_FLAG(RCC_FLAG_HSIRDY) == RESET)
 8001686:	fab3 f383 	clz	r3, r3
 800168a:	b2db      	uxtb	r3, r3
 800168c:	095b      	lsrs	r3, r3, #5
 800168e:	b2db      	uxtb	r3, r3
 8001690:	f043 0301 	orr.w	r3, r3, #1
 8001694:	b2db      	uxtb	r3, r3
 8001696:	2b01      	cmp	r3, #1
 8001698:	d102      	bne.n	80016a0 <HAL_RCC_OscConfig+0x488>
 800169a:	4b73      	ldr	r3, [pc, #460]	; (8001868 <HAL_RCC_OscConfig+0x650>)
 800169c:	681b      	ldr	r3, [r3, #0]
 800169e:	e013      	b.n	80016c8 <HAL_RCC_OscConfig+0x4b0>
 80016a0:	2302      	movs	r3, #2
 80016a2:	f8c7 3158 	str.w	r3, [r7, #344]	; 0x158
   __ASM volatile ("rbit %0, %1" : "=r" (result) : "r" (value) );
 80016a6:	f8d7 3158 	ldr.w	r3, [r7, #344]	; 0x158
 80016aa:	fa93 f3a3 	rbit	r3, r3
 80016ae:	f8c7 3154 	str.w	r3, [r7, #340]	; 0x154
 80016b2:	2302      	movs	r3, #2
 80016b4:	f8c7 3150 	str.w	r3, [r7, #336]	; 0x150
 80016b8:	f8d7 3150 	ldr.w	r3, [r7, #336]	; 0x150
 80016bc:	fa93 f3a3 	rbit	r3, r3
 80016c0:	f8c7 314c 	str.w	r3, [r7, #332]	; 0x14c
 80016c4:	4b68      	ldr	r3, [pc, #416]	; (8001868 <HAL_RCC_OscConfig+0x650>)
 80016c6:	6a5b      	ldr	r3, [r3, #36]	; 0x24
 80016c8:	2202      	movs	r2, #2
 80016ca:	f8c7 2148 	str.w	r2, [r7, #328]	; 0x148
 80016ce:	f8d7 2148 	ldr.w	r2, [r7, #328]	; 0x148
 80016d2:	fa92 f2a2 	rbit	r2, r2
 80016d6:	f8c7 2144 	str.w	r2, [r7, #324]	; 0x144
  return result;
 80016da:	f8d7 2144 	ldr.w	r2, [r7, #324]	; 0x144
 80016de:	fab2 f282 	clz	r2, r2
 80016e2:	b2d2      	uxtb	r2, r2
 80016e4:	f042 0220 	orr.w	r2, r2, #32
 80016e8:	b2d2      	uxtb	r2, r2
 80016ea:	f002 021f 	and.w	r2, r2, #31
 80016ee:	2101      	movs	r1, #1
 80016f0:	fa01 f202 	lsl.w	r2, r1, r2
 80016f4:	4013      	ands	r3, r2
 80016f6:	2b00      	cmp	r3, #0
 80016f8:	d0af      	beq.n	800165a <HAL_RCC_OscConfig+0x442>
          }
        }
                
        /* Adjusts the Internal High Speed oscillator (HSI) calibration value.*/
        __HAL_RCC_HSI_CALIBRATIONVALUE_ADJUST(RCC_OscInitStruct->HSICalibrationValue);
 80016fa:	4b5b      	ldr	r3, [pc, #364]	; (8001868 <HAL_RCC_OscConfig+0x650>)
 80016fc:	681b      	ldr	r3, [r3, #0]
 80016fe:	f023 02f8 	bic.w	r2, r3, #248	; 0xf8
 8001702:	1d3b      	adds	r3, r7, #4
 8001704:	681b      	ldr	r3, [r3, #0]
 8001706:	695b      	ldr	r3, [r3, #20]
 8001708:	21f8      	movs	r1, #248	; 0xf8
 800170a:	f8c7 1140 	str.w	r1, [r7, #320]	; 0x140
   __ASM volatile ("rbit %0, %1" : "=r" (result) : "r" (value) );
 800170e:	f8d7 1140 	ldr.w	r1, [r7, #320]	; 0x140
 8001712:	fa91 f1a1 	rbit	r1, r1
 8001716:	f8c7 113c 	str.w	r1, [r7, #316]	; 0x13c
  return result;
 800171a:	f8d7 113c 	ldr.w	r1, [r7, #316]	; 0x13c
 800171e:	fab1 f181 	clz	r1, r1
 8001722:	b2c9      	uxtb	r1, r1
 8001724:	408b      	lsls	r3, r1
 8001726:	4950      	ldr	r1, [pc, #320]	; (8001868 <HAL_RCC_OscConfig+0x650>)
 8001728:	4313      	orrs	r3, r2
 800172a:	600b      	str	r3, [r1, #0]
 800172c:	e06a      	b.n	8001804 <HAL_RCC_OscConfig+0x5ec>
 800172e:	2301      	movs	r3, #1
 8001730:	f8c7 3138 	str.w	r3, [r7, #312]	; 0x138
   __ASM volatile ("rbit %0, %1" : "=r" (result) : "r" (value) );
 8001734:	f8d7 3138 	ldr.w	r3, [r7, #312]	; 0x138
 8001738:	fa93 f3a3 	rbit	r3, r3
 800173c:	f8c7 3134 	str.w	r3, [r7, #308]	; 0x134
  return result;
 8001740:	f8d7 3134 	ldr.w	r3, [r7, #308]	; 0x134
      }
      else
      {
        /* Disable the Internal High Speed oscillator (HSI). */
        __HAL_RCC_HSI_DISABLE();
 8001744:	fab3 f383 	clz	r3, r3
 8001748:	b2db      	uxtb	r3, r3
 800174a:	f103 5384 	add.w	r3, r3, #276824064	; 0x10800000
 800174e:	f503 1384 	add.w	r3, r3, #1081344	; 0x108000
 8001752:	009b      	lsls	r3, r3, #2
 8001754:	461a      	mov	r2, r3
 8001756:	2300      	movs	r3, #0
 8001758:	6013      	str	r3, [r2, #0]
        
        /* Get Start Tick */
        tickstart = HAL_GetTick();
 800175a:	f7ff fabf 	bl	8000cdc <HAL_GetTick>
 800175e:	f8c7 01f8 	str.w	r0, [r7, #504]	; 0x1f8
        
        /* Wait till HSI is disabled */
        while(__HAL_RCC_GET_FLAG(RCC_FLAG_HSIRDY) != RESET)
 8001762:	e00a      	b.n	800177a <HAL_RCC_OscConfig+0x562>
        {
          if((HAL_GetTick() - tickstart ) > HSI_TIMEOUT_VALUE)
 8001764:	f7ff faba 	bl	8000cdc <HAL_GetTick>
 8001768:	4602      	mov	r2, r0
 800176a:	f8d7 31f8 	ldr.w	r3, [r7, #504]	; 0x1f8
 800176e:	1ad3      	subs	r3, r2, r3
 8001770:	2b02      	cmp	r3, #2
 8001772:	d902      	bls.n	800177a <HAL_RCC_OscConfig+0x562>
          {
            return HAL_TIMEOUT;
 8001774:	2303      	movs	r3, #3
 8001776:	f000 bc50 	b.w	800201a <HAL_RCC_OscConfig+0xe02>
 800177a:	2302      	movs	r3, #2
 800177c:	f8c7 3130 	str.w	r3, [r7, #304]	; 0x130
   __ASM volatile ("rbit %0, %1" : "=r" (result) : "r" (value) );
 8001780:	f8d7 3130 	ldr.w	r3, [r7, #304]	; 0x130
 8001784:	fa93 f3a3 	rbit	r3, r3
 8001788:	f8c7 312c 	str.w	r3, [r7, #300]	; 0x12c
  return result;
 800178c:	f8d7 312c 	ldr.w	r3, [r7, #300]	; 0x12c
        while(__HAL_RCC_GET_FLAG(RCC_FLAG_HSIRDY) != RESET)
 8001790:	fab3 f383 	clz	r3, r3
 8001794:	b2db      	uxtb	r3, r3
 8001796:	095b      	lsrs	r3, r3, #5
 8001798:	b2db      	uxtb	r3, r3
 800179a:	f043 0301 	orr.w	r3, r3, #1
 800179e:	b2db      	uxtb	r3, r3
 80017a0:	2b01      	cmp	r3, #1
 80017a2:	d102      	bne.n	80017aa <HAL_RCC_OscConfig+0x592>
 80017a4:	4b30      	ldr	r3, [pc, #192]	; (8001868 <HAL_RCC_OscConfig+0x650>)
 80017a6:	681b      	ldr	r3, [r3, #0]
 80017a8:	e013      	b.n	80017d2 <HAL_RCC_OscConfig+0x5ba>
 80017aa:	2302      	movs	r3, #2
 80017ac:	f8c7 3128 	str.w	r3, [r7, #296]	; 0x128
   __ASM volatile ("rbit %0, %1" : "=r" (result) : "r" (value) );
 80017b0:	f8d7 3128 	ldr.w	r3, [r7, #296]	; 0x128
 80017b4:	fa93 f3a3 	rbit	r3, r3
 80017b8:	f8c7 3124 	str.w	r3, [r7, #292]	; 0x124
 80017bc:	2302      	movs	r3, #2
 80017be:	f8c7 3120 	str.w	r3, [r7, #288]	; 0x120
 80017c2:	f8d7 3120 	ldr.w	r3, [r7, #288]	; 0x120
 80017c6:	fa93 f3a3 	rbit	r3, r3
 80017ca:	f8c7 311c 	str.w	r3, [r7, #284]	; 0x11c
 80017ce:	4b26      	ldr	r3, [pc, #152]	; (8001868 <HAL_RCC_OscConfig+0x650>)
 80017d0:	6a5b      	ldr	r3, [r3, #36]	; 0x24
 80017d2:	2202      	movs	r2, #2
 80017d4:	f8c7 2118 	str.w	r2, [r7, #280]	; 0x118
 80017d8:	f8d7 2118 	ldr.w	r2, [r7, #280]	; 0x118
 80017dc:	fa92 f2a2 	rbit	r2, r2
 80017e0:	f8c7 2114 	str.w	r2, [r7, #276]	; 0x114
  return result;
 80017e4:	f8d7 2114 	ldr.w	r2, [r7, #276]	; 0x114
 80017e8:	fab2 f282 	clz	r2, r2
 80017ec:	b2d2      	uxtb	r2, r2
 80017ee:	f042 0220 	orr.w	r2, r2, #32
 80017f2:	b2d2      	uxtb	r2, r2
 80017f4:	f002 021f 	and.w	r2, r2, #31
 80017f8:	2101      	movs	r1, #1
 80017fa:	fa01 f202 	lsl.w	r2, r1, r2
 80017fe:	4013      	ands	r3, r2
 8001800:	2b00      	cmp	r3, #0
 8001802:	d1af      	bne.n	8001764 <HAL_RCC_OscConfig+0x54c>
        }
      }
    }
  }
  /*------------------------------ LSI Configuration -------------------------*/ 
  if(((RCC_OscInitStruct->OscillatorType) & RCC_OSCILLATORTYPE_LSI) == RCC_OSCILLATORTYPE_LSI)
 8001804:	1d3b      	adds	r3, r7, #4
 8001806:	681b      	ldr	r3, [r3, #0]
 8001808:	681b      	ldr	r3, [r3, #0]
 800180a:	f003 0308 	and.w	r3, r3, #8
 800180e:	2b00      	cmp	r3, #0
 8001810:	f000 80da 	beq.w	80019c8 <HAL_RCC_OscConfig+0x7b0>
  {
    /* Check the parameters */
    assert_param(IS_RCC_LSI(RCC_OscInitStruct->LSIState));
    
    /* Check the LSI State */
    if(RCC_OscInitStruct->LSIState != RCC_LSI_OFF)
 8001814:	1d3b      	adds	r3, r7, #4
 8001816:	681b      	ldr	r3, [r3, #0]
 8001818:	699b      	ldr	r3, [r3, #24]
 800181a:	2b00      	cmp	r3, #0
 800181c:	d069      	beq.n	80018f2 <HAL_RCC_OscConfig+0x6da>
 800181e:	2301      	movs	r3, #1
 8001820:	f8c7 3110 	str.w	r3, [r7, #272]	; 0x110
   __ASM volatile ("rbit %0, %1" : "=r" (result) : "r" (value) );
 8001824:	f8d7 3110 	ldr.w	r3, [r7, #272]	; 0x110
 8001828:	fa93 f3a3 	rbit	r3, r3
 800182c:	f8c7 310c 	str.w	r3, [r7, #268]	; 0x10c
  return result;
 8001830:	f8d7 310c 	ldr.w	r3, [r7, #268]	; 0x10c
    {
      /* Enable the Internal Low Speed oscillator (LSI). */
      __HAL_RCC_LSI_ENABLE();
 8001834:	fab3 f383 	clz	r3, r3
 8001838:	b2db      	uxtb	r3, r3
 800183a:	461a      	mov	r2, r3
 800183c:	4b0b      	ldr	r3, [pc, #44]	; (800186c <HAL_RCC_OscConfig+0x654>)
 800183e:	4413      	add	r3, r2
 8001840:	009b      	lsls	r3, r3, #2
 8001842:	461a      	mov	r2, r3
 8001844:	2301      	movs	r3, #1
 8001846:	6013      	str	r3, [r2, #0]
      
      /* Get Start Tick */
      tickstart = HAL_GetTick();
 8001848:	f7ff fa48 	bl	8000cdc <HAL_GetTick>
 800184c:	f8c7 01f8 	str.w	r0, [r7, #504]	; 0x1f8
      
      /* Wait till LSI is ready */  
      while(__HAL_RCC_GET_FLAG(RCC_FLAG_LSIRDY) == RESET)
 8001850:	e00e      	b.n	8001870 <HAL_RCC_OscConfig+0x658>
      {
        if((HAL_GetTick() - tickstart ) > LSI_TIMEOUT_VALUE)
 8001852:	f7ff fa43 	bl	8000cdc <HAL_GetTick>
 8001856:	4602      	mov	r2, r0
 8001858:	f8d7 31f8 	ldr.w	r3, [r7, #504]	; 0x1f8
 800185c:	1ad3      	subs	r3, r2, r3
 800185e:	2b02      	cmp	r3, #2
 8001860:	d906      	bls.n	8001870 <HAL_RCC_OscConfig+0x658>
        {
          return HAL_TIMEOUT;
 8001862:	2303      	movs	r3, #3
 8001864:	e3d9      	b.n	800201a <HAL_RCC_OscConfig+0xe02>
 8001866:	bf00      	nop
 8001868:	40021000 	.word	0x40021000
 800186c:	10908120 	.word	0x10908120
 8001870:	2302      	movs	r3, #2
 8001872:	f8c7 3108 	str.w	r3, [r7, #264]	; 0x108
   __ASM volatile ("rbit %0, %1" : "=r" (result) : "r" (value) );
 8001876:	f8d7 3108 	ldr.w	r3, [r7, #264]	; 0x108
 800187a:	fa93 f3a3 	rbit	r3, r3
 800187e:	f8c7 3104 	str.w	r3, [r7, #260]	; 0x104
 8001882:	f507 7380 	add.w	r3, r7, #256	; 0x100
 8001886:	2202      	movs	r2, #2
 8001888:	601a      	str	r2, [r3, #0]
 800188a:	f507 7380 	add.w	r3, r7, #256	; 0x100
 800188e:	681b      	ldr	r3, [r3, #0]
 8001890:	fa93 f2a3 	rbit	r2, r3
 8001894:	f107 03fc 	add.w	r3, r7, #252	; 0xfc
 8001898:	601a      	str	r2, [r3, #0]
 800189a:	f107 03f8 	add.w	r3, r7, #248	; 0xf8
 800189e:	2202      	movs	r2, #2
 80018a0:	601a      	str	r2, [r3, #0]
 80018a2:	f107 03f8 	add.w	r3, r7, #248	; 0xf8
 80018a6:	681b      	ldr	r3, [r3, #0]
 80018a8:	fa93 f2a3 	rbit	r2, r3
 80018ac:	f107 03f4 	add.w	r3, r7, #244	; 0xf4
 80018b0:	601a      	str	r2, [r3, #0]
      while(__HAL_RCC_GET_FLAG(RCC_FLAG_LSIRDY) == RESET)
 80018b2:	4ba5      	ldr	r3, [pc, #660]	; (8001b48 <HAL_RCC_OscConfig+0x930>)
 80018b4:	6a5a      	ldr	r2, [r3, #36]	; 0x24
 80018b6:	f107 03f0 	add.w	r3, r7, #240	; 0xf0
 80018ba:	2102      	movs	r1, #2
 80018bc:	6019      	str	r1, [r3, #0]
 80018be:	f107 03f0 	add.w	r3, r7, #240	; 0xf0
 80018c2:	681b      	ldr	r3, [r3, #0]
 80018c4:	fa93 f1a3 	rbit	r1, r3
 80018c8:	f107 03ec 	add.w	r3, r7, #236	; 0xec
 80018cc:	6019      	str	r1, [r3, #0]
  return result;
 80018ce:	f107 03ec 	add.w	r3, r7, #236	; 0xec
 80018d2:	681b      	ldr	r3, [r3, #0]
 80018d4:	fab3 f383 	clz	r3, r3
 80018d8:	b2db      	uxtb	r3, r3
 80018da:	f043 0360 	orr.w	r3, r3, #96	; 0x60
 80018de:	b2db      	uxtb	r3, r3
 80018e0:	f003 031f 	and.w	r3, r3, #31
 80018e4:	2101      	movs	r1, #1
 80018e6:	fa01 f303 	lsl.w	r3, r1, r3
 80018ea:	4013      	ands	r3, r2
 80018ec:	2b00      	cmp	r3, #0
 80018ee:	d0b0      	beq.n	8001852 <HAL_RCC_OscConfig+0x63a>
 80018f0:	e06a      	b.n	80019c8 <HAL_RCC_OscConfig+0x7b0>
 80018f2:	f107 03e8 	add.w	r3, r7, #232	; 0xe8
 80018f6:	2201      	movs	r2, #1
 80018f8:	601a      	str	r2, [r3, #0]
   __ASM volatile ("rbit %0, %1" : "=r" (result) : "r" (value) );
 80018fa:	f107 03e8 	add.w	r3, r7, #232	; 0xe8
 80018fe:	681b      	ldr	r3, [r3, #0]
 8001900:	fa93 f2a3 	rbit	r2, r3
 8001904:	f107 03e4 	add.w	r3, r7, #228	; 0xe4
 8001908:	601a      	str	r2, [r3, #0]
  return result;
 800190a:	f107 03e4 	add.w	r3, r7, #228	; 0xe4
 800190e:	681b      	ldr	r3, [r3, #0]
      }
    }
    else
    {
      /* Disable the Internal Low Speed oscillator (LSI). */
      __HAL_RCC_LSI_DISABLE();
 8001910:	fab3 f383 	clz	r3, r3
 8001914:	b2db      	uxtb	r3, r3
 8001916:	461a      	mov	r2, r3
 8001918:	4b8c      	ldr	r3, [pc, #560]	; (8001b4c <HAL_RCC_OscConfig+0x934>)
 800191a:	4413      	add	r3, r2
 800191c:	009b      	lsls	r3, r3, #2
 800191e:	461a      	mov	r2, r3
 8001920:	2300      	movs	r3, #0
 8001922:	6013      	str	r3, [r2, #0]
      
      /* Get Start Tick */
      tickstart = HAL_GetTick();
 8001924:	f7ff f9da 	bl	8000cdc <HAL_GetTick>
 8001928:	f8c7 01f8 	str.w	r0, [r7, #504]	; 0x1f8
      
      /* Wait till LSI is disabled */  
      while(__HAL_RCC_GET_FLAG(RCC_FLAG_LSIRDY) != RESET)
 800192c:	e009      	b.n	8001942 <HAL_RCC_OscConfig+0x72a>
      {
        if((HAL_GetTick() - tickstart ) > LSI_TIMEOUT_VALUE)
 800192e:	f7ff f9d5 	bl	8000cdc <HAL_GetTick>
 8001932:	4602      	mov	r2, r0
 8001934:	f8d7 31f8 	ldr.w	r3, [r7, #504]	; 0x1f8
 8001938:	1ad3      	subs	r3, r2, r3
 800193a:	2b02      	cmp	r3, #2
 800193c:	d901      	bls.n	8001942 <HAL_RCC_OscConfig+0x72a>
        {
          return HAL_TIMEOUT;
 800193e:	2303      	movs	r3, #3
 8001940:	e36b      	b.n	800201a <HAL_RCC_OscConfig+0xe02>
 8001942:	f107 03e0 	add.w	r3, r7, #224	; 0xe0
 8001946:	2202      	movs	r2, #2
 8001948:	601a      	str	r2, [r3, #0]
   __ASM volatile ("rbit %0, %1" : "=r" (result) : "r" (value) );
 800194a:	f107 03e0 	add.w	r3, r7, #224	; 0xe0
 800194e:	681b      	ldr	r3, [r3, #0]
 8001950:	fa93 f2a3 	rbit	r2, r3
 8001954:	f107 03dc 	add.w	r3, r7, #220	; 0xdc
 8001958:	601a      	str	r2, [r3, #0]
 800195a:	f107 03d8 	add.w	r3, r7, #216	; 0xd8
 800195e:	2202      	movs	r2, #2
 8001960:	601a      	str	r2, [r3, #0]
 8001962:	f107 03d8 	add.w	r3, r7, #216	; 0xd8
 8001966:	681b      	ldr	r3, [r3, #0]
 8001968:	fa93 f2a3 	rbit	r2, r3
 800196c:	f107 03d4 	add.w	r3, r7, #212	; 0xd4
 8001970:	601a      	str	r2, [r3, #0]
 8001972:	f107 03d0 	add.w	r3, r7, #208	; 0xd0
 8001976:	2202      	movs	r2, #2
 8001978:	601a      	str	r2, [r3, #0]
 800197a:	f107 03d0 	add.w	r3, r7, #208	; 0xd0
 800197e:	681b      	ldr	r3, [r3, #0]
 8001980:	fa93 f2a3 	rbit	r2, r3
 8001984:	f107 03cc 	add.w	r3, r7, #204	; 0xcc
 8001988:	601a      	str	r2, [r3, #0]
      while(__HAL_RCC_GET_FLAG(RCC_FLAG_LSIRDY) != RESET)
 800198a:	4b6f      	ldr	r3, [pc, #444]	; (8001b48 <HAL_RCC_OscConfig+0x930>)
 800198c:	6a5a      	ldr	r2, [r3, #36]	; 0x24
 800198e:	f107 03c8 	add.w	r3, r7, #200	; 0xc8
 8001992:	2102      	movs	r1, #2
 8001994:	6019      	str	r1, [r3, #0]
 8001996:	f107 03c8 	add.w	r3, r7, #200	; 0xc8
 800199a:	681b      	ldr	r3, [r3, #0]
 800199c:	fa93 f1a3 	rbit	r1, r3
 80019a0:	f107 03c4 	add.w	r3, r7, #196	; 0xc4
 80019a4:	6019      	str	r1, [r3, #0]
  return result;
 80019a6:	f107 03c4 	add.w	r3, r7, #196	; 0xc4
 80019aa:	681b      	ldr	r3, [r3, #0]
 80019ac:	fab3 f383 	clz	r3, r3
 80019b0:	b2db      	uxtb	r3, r3
 80019b2:	f043 0360 	orr.w	r3, r3, #96	; 0x60
 80019b6:	b2db      	uxtb	r3, r3
 80019b8:	f003 031f 	and.w	r3, r3, #31
 80019bc:	2101      	movs	r1, #1
 80019be:	fa01 f303 	lsl.w	r3, r1, r3
 80019c2:	4013      	ands	r3, r2
 80019c4:	2b00      	cmp	r3, #0
 80019c6:	d1b2      	bne.n	800192e <HAL_RCC_OscConfig+0x716>
        }
      }
    }
  }
  /*------------------------------ LSE Configuration -------------------------*/ 
  if(((RCC_OscInitStruct->OscillatorType) & RCC_OSCILLATORTYPE_LSE) == RCC_OSCILLATORTYPE_LSE)
 80019c8:	1d3b      	adds	r3, r7, #4
 80019ca:	681b      	ldr	r3, [r3, #0]
 80019cc:	681b      	ldr	r3, [r3, #0]
 80019ce:	f003 0304 	and.w	r3, r3, #4
 80019d2:	2b00      	cmp	r3, #0
 80019d4:	f000 8158 	beq.w	8001c88 <HAL_RCC_OscConfig+0xa70>
  {
    FlagStatus       pwrclkchanged = RESET;
 80019d8:	2300      	movs	r3, #0
 80019da:	f887 31ff 	strb.w	r3, [r7, #511]	; 0x1ff
    /* Check the parameters */
    assert_param(IS_RCC_LSE(RCC_OscInitStruct->LSEState));

    /* Update LSE configuration in Backup Domain control register    */
    /* Requires to enable write access to Backup Domain of necessary */
    if(__HAL_RCC_PWR_IS_CLK_DISABLED())
 80019de:	4b5a      	ldr	r3, [pc, #360]	; (8001b48 <HAL_RCC_OscConfig+0x930>)
 80019e0:	69db      	ldr	r3, [r3, #28]
 80019e2:	f003 5380 	and.w	r3, r3, #268435456	; 0x10000000
 80019e6:	2b00      	cmp	r3, #0
 80019e8:	d112      	bne.n	8001a10 <HAL_RCC_OscConfig+0x7f8>
    {
      __HAL_RCC_PWR_CLK_ENABLE();
 80019ea:	4b57      	ldr	r3, [pc, #348]	; (8001b48 <HAL_RCC_OscConfig+0x930>)
 80019ec:	69db      	ldr	r3, [r3, #28]
 80019ee:	4a56      	ldr	r2, [pc, #344]	; (8001b48 <HAL_RCC_OscConfig+0x930>)
 80019f0:	f043 5380 	orr.w	r3, r3, #268435456	; 0x10000000
 80019f4:	61d3      	str	r3, [r2, #28]
 80019f6:	4b54      	ldr	r3, [pc, #336]	; (8001b48 <HAL_RCC_OscConfig+0x930>)
 80019f8:	69db      	ldr	r3, [r3, #28]
 80019fa:	f003 5280 	and.w	r2, r3, #268435456	; 0x10000000
 80019fe:	f107 0308 	add.w	r3, r7, #8
 8001a02:	601a      	str	r2, [r3, #0]
 8001a04:	f107 0308 	add.w	r3, r7, #8
 8001a08:	681b      	ldr	r3, [r3, #0]
      pwrclkchanged = SET;
 8001a0a:	2301      	movs	r3, #1
 8001a0c:	f887 31ff 	strb.w	r3, [r7, #511]	; 0x1ff
    }
    
    if(HAL_IS_BIT_CLR(PWR->CR, PWR_CR_DBP))
 8001a10:	4b4f      	ldr	r3, [pc, #316]	; (8001b50 <HAL_RCC_OscConfig+0x938>)
 8001a12:	681b      	ldr	r3, [r3, #0]
 8001a14:	f403 7380 	and.w	r3, r3, #256	; 0x100
 8001a18:	2b00      	cmp	r3, #0
 8001a1a:	d11a      	bne.n	8001a52 <HAL_RCC_OscConfig+0x83a>
    {
      /* Enable write access to Backup domain */
      SET_BIT(PWR->CR, PWR_CR_DBP);
 8001a1c:	4b4c      	ldr	r3, [pc, #304]	; (8001b50 <HAL_RCC_OscConfig+0x938>)
 8001a1e:	681b      	ldr	r3, [r3, #0]
 8001a20:	4a4b      	ldr	r2, [pc, #300]	; (8001b50 <HAL_RCC_OscConfig+0x938>)
 8001a22:	f443 7380 	orr.w	r3, r3, #256	; 0x100
 8001a26:	6013      	str	r3, [r2, #0]
      
      /* Wait for Backup domain Write protection disable */
      tickstart = HAL_GetTick();
 8001a28:	f7ff f958 	bl	8000cdc <HAL_GetTick>
 8001a2c:	f8c7 01f8 	str.w	r0, [r7, #504]	; 0x1f8

      while(HAL_IS_BIT_CLR(PWR->CR, PWR_CR_DBP))
 8001a30:	e009      	b.n	8001a46 <HAL_RCC_OscConfig+0x82e>
      {
        if((HAL_GetTick() - tickstart) > RCC_DBP_TIMEOUT_VALUE)
 8001a32:	f7ff f953 	bl	8000cdc <HAL_GetTick>
 8001a36:	4602      	mov	r2, r0
 8001a38:	f8d7 31f8 	ldr.w	r3, [r7, #504]	; 0x1f8
 8001a3c:	1ad3      	subs	r3, r2, r3
 8001a3e:	2b64      	cmp	r3, #100	; 0x64
 8001a40:	d901      	bls.n	8001a46 <HAL_RCC_OscConfig+0x82e>
        {
          return HAL_TIMEOUT;
 8001a42:	2303      	movs	r3, #3
 8001a44:	e2e9      	b.n	800201a <HAL_RCC_OscConfig+0xe02>
      while(HAL_IS_BIT_CLR(PWR->CR, PWR_CR_DBP))
 8001a46:	4b42      	ldr	r3, [pc, #264]	; (8001b50 <HAL_RCC_OscConfig+0x938>)
 8001a48:	681b      	ldr	r3, [r3, #0]
 8001a4a:	f403 7380 	and.w	r3, r3, #256	; 0x100
 8001a4e:	2b00      	cmp	r3, #0
 8001a50:	d0ef      	beq.n	8001a32 <HAL_RCC_OscConfig+0x81a>
        }
      }
    }

    /* Set the new LSE configuration -----------------------------------------*/
    __HAL_RCC_LSE_CONFIG(RCC_OscInitStruct->LSEState);
 8001a52:	1d3b      	adds	r3, r7, #4
 8001a54:	681b      	ldr	r3, [r3, #0]
 8001a56:	68db      	ldr	r3, [r3, #12]
 8001a58:	2b01      	cmp	r3, #1
 8001a5a:	d106      	bne.n	8001a6a <HAL_RCC_OscConfig+0x852>
 8001a5c:	4b3a      	ldr	r3, [pc, #232]	; (8001b48 <HAL_RCC_OscConfig+0x930>)
 8001a5e:	6a1b      	ldr	r3, [r3, #32]
 8001a60:	4a39      	ldr	r2, [pc, #228]	; (8001b48 <HAL_RCC_OscConfig+0x930>)
 8001a62:	f043 0301 	orr.w	r3, r3, #1
 8001a66:	6213      	str	r3, [r2, #32]
 8001a68:	e02f      	b.n	8001aca <HAL_RCC_OscConfig+0x8b2>
 8001a6a:	1d3b      	adds	r3, r7, #4
 8001a6c:	681b      	ldr	r3, [r3, #0]
 8001a6e:	68db      	ldr	r3, [r3, #12]
 8001a70:	2b00      	cmp	r3, #0
 8001a72:	d10c      	bne.n	8001a8e <HAL_RCC_OscConfig+0x876>
 8001a74:	4b34      	ldr	r3, [pc, #208]	; (8001b48 <HAL_RCC_OscConfig+0x930>)
 8001a76:	6a1b      	ldr	r3, [r3, #32]
 8001a78:	4a33      	ldr	r2, [pc, #204]	; (8001b48 <HAL_RCC_OscConfig+0x930>)
 8001a7a:	f023 0301 	bic.w	r3, r3, #1
 8001a7e:	6213      	str	r3, [r2, #32]
 8001a80:	4b31      	ldr	r3, [pc, #196]	; (8001b48 <HAL_RCC_OscConfig+0x930>)
 8001a82:	6a1b      	ldr	r3, [r3, #32]
 8001a84:	4a30      	ldr	r2, [pc, #192]	; (8001b48 <HAL_RCC_OscConfig+0x930>)
 8001a86:	f023 0304 	bic.w	r3, r3, #4
 8001a8a:	6213      	str	r3, [r2, #32]
 8001a8c:	e01d      	b.n	8001aca <HAL_RCC_OscConfig+0x8b2>
 8001a8e:	1d3b      	adds	r3, r7, #4
 8001a90:	681b      	ldr	r3, [r3, #0]
 8001a92:	68db      	ldr	r3, [r3, #12]
 8001a94:	2b05      	cmp	r3, #5
 8001a96:	d10c      	bne.n	8001ab2 <HAL_RCC_OscConfig+0x89a>
 8001a98:	4b2b      	ldr	r3, [pc, #172]	; (8001b48 <HAL_RCC_OscConfig+0x930>)
 8001a9a:	6a1b      	ldr	r3, [r3, #32]
 8001a9c:	4a2a      	ldr	r2, [pc, #168]	; (8001b48 <HAL_RCC_OscConfig+0x930>)
 8001a9e:	f043 0304 	orr.w	r3, r3, #4
 8001aa2:	6213      	str	r3, [r2, #32]
 8001aa4:	4b28      	ldr	r3, [pc, #160]	; (8001b48 <HAL_RCC_OscConfig+0x930>)
 8001aa6:	6a1b      	ldr	r3, [r3, #32]
 8001aa8:	4a27      	ldr	r2, [pc, #156]	; (8001b48 <HAL_RCC_OscConfig+0x930>)
 8001aaa:	f043 0301 	orr.w	r3, r3, #1
 8001aae:	6213      	str	r3, [r2, #32]
 8001ab0:	e00b      	b.n	8001aca <HAL_RCC_OscConfig+0x8b2>
 8001ab2:	4b25      	ldr	r3, [pc, #148]	; (8001b48 <HAL_RCC_OscConfig+0x930>)
 8001ab4:	6a1b      	ldr	r3, [r3, #32]
 8001ab6:	4a24      	ldr	r2, [pc, #144]	; (8001b48 <HAL_RCC_OscConfig+0x930>)
 8001ab8:	f023 0301 	bic.w	r3, r3, #1
 8001abc:	6213      	str	r3, [r2, #32]
 8001abe:	4b22      	ldr	r3, [pc, #136]	; (8001b48 <HAL_RCC_OscConfig+0x930>)
 8001ac0:	6a1b      	ldr	r3, [r3, #32]
 8001ac2:	4a21      	ldr	r2, [pc, #132]	; (8001b48 <HAL_RCC_OscConfig+0x930>)
 8001ac4:	f023 0304 	bic.w	r3, r3, #4
 8001ac8:	6213      	str	r3, [r2, #32]
    /* Check the LSE State */
    if(RCC_OscInitStruct->LSEState != RCC_LSE_OFF)
 8001aca:	1d3b      	adds	r3, r7, #4
 8001acc:	681b      	ldr	r3, [r3, #0]
 8001ace:	68db      	ldr	r3, [r3, #12]
 8001ad0:	2b00      	cmp	r3, #0
 8001ad2:	d06b      	beq.n	8001bac <HAL_RCC_OscConfig+0x994>
    {
      /* Get Start Tick */
      tickstart = HAL_GetTick();
 8001ad4:	f7ff f902 	bl	8000cdc <HAL_GetTick>
 8001ad8:	f8c7 01f8 	str.w	r0, [r7, #504]	; 0x1f8
      
      /* Wait till LSE is ready */  
      while(__HAL_RCC_GET_FLAG(RCC_FLAG_LSERDY) == RESET)
 8001adc:	e00b      	b.n	8001af6 <HAL_RCC_OscConfig+0x8de>
      {
        if((HAL_GetTick() - tickstart ) > RCC_LSE_TIMEOUT_VALUE)
 8001ade:	f7ff f8fd 	bl	8000cdc <HAL_GetTick>
 8001ae2:	4602      	mov	r2, r0
 8001ae4:	f8d7 31f8 	ldr.w	r3, [r7, #504]	; 0x1f8
 8001ae8:	1ad3      	subs	r3, r2, r3
 8001aea:	f241 3288 	movw	r2, #5000	; 0x1388
 8001aee:	4293      	cmp	r3, r2
 8001af0:	d901      	bls.n	8001af6 <HAL_RCC_OscConfig+0x8de>
        {
          return HAL_TIMEOUT;
 8001af2:	2303      	movs	r3, #3
 8001af4:	e291      	b.n	800201a <HAL_RCC_OscConfig+0xe02>
 8001af6:	f107 03c0 	add.w	r3, r7, #192	; 0xc0
 8001afa:	2202      	movs	r2, #2
 8001afc:	601a      	str	r2, [r3, #0]
   __ASM volatile ("rbit %0, %1" : "=r" (result) : "r" (value) );
 8001afe:	f107 03c0 	add.w	r3, r7, #192	; 0xc0
 8001b02:	681b      	ldr	r3, [r3, #0]
 8001b04:	fa93 f2a3 	rbit	r2, r3
 8001b08:	f107 03bc 	add.w	r3, r7, #188	; 0xbc
 8001b0c:	601a      	str	r2, [r3, #0]
 8001b0e:	f107 03b8 	add.w	r3, r7, #184	; 0xb8
 8001b12:	2202      	movs	r2, #2
 8001b14:	601a      	str	r2, [r3, #0]
 8001b16:	f107 03b8 	add.w	r3, r7, #184	; 0xb8
 8001b1a:	681b      	ldr	r3, [r3, #0]
 8001b1c:	fa93 f2a3 	rbit	r2, r3
 8001b20:	f107 03b4 	add.w	r3, r7, #180	; 0xb4
 8001b24:	601a      	str	r2, [r3, #0]
  return result;
 8001b26:	f107 03b4 	add.w	r3, r7, #180	; 0xb4
 8001b2a:	681b      	ldr	r3, [r3, #0]
      while(__HAL_RCC_GET_FLAG(RCC_FLAG_LSERDY) == RESET)
 8001b2c:	fab3 f383 	clz	r3, r3
 8001b30:	b2db      	uxtb	r3, r3
 8001b32:	095b      	lsrs	r3, r3, #5
 8001b34:	b2db      	uxtb	r3, r3
 8001b36:	f043 0302 	orr.w	r3, r3, #2
 8001b3a:	b2db      	uxtb	r3, r3
 8001b3c:	2b02      	cmp	r3, #2
 8001b3e:	d109      	bne.n	8001b54 <HAL_RCC_OscConfig+0x93c>
 8001b40:	4b01      	ldr	r3, [pc, #4]	; (8001b48 <HAL_RCC_OscConfig+0x930>)
 8001b42:	6a1b      	ldr	r3, [r3, #32]
 8001b44:	e014      	b.n	8001b70 <HAL_RCC_OscConfig+0x958>
 8001b46:	bf00      	nop
 8001b48:	40021000 	.word	0x40021000
 8001b4c:	10908120 	.word	0x10908120
 8001b50:	40007000 	.word	0x40007000
 8001b54:	f107 03b0 	add.w	r3, r7, #176	; 0xb0
 8001b58:	2202      	movs	r2, #2
 8001b5a:	601a      	str	r2, [r3, #0]
   __ASM volatile ("rbit %0, %1" : "=r" (result) : "r" (value) );
 8001b5c:	f107 03b0 	add.w	r3, r7, #176	; 0xb0
 8001b60:	681b      	ldr	r3, [r3, #0]
 8001b62:	fa93 f2a3 	rbit	r2, r3
 8001b66:	f107 03ac 	add.w	r3, r7, #172	; 0xac
 8001b6a:	601a      	str	r2, [r3, #0]
 8001b6c:	4bbb      	ldr	r3, [pc, #748]	; (8001e5c <HAL_RCC_OscConfig+0xc44>)
 8001b6e:	6a5b      	ldr	r3, [r3, #36]	; 0x24
 8001b70:	f107 02a8 	add.w	r2, r7, #168	; 0xa8
 8001b74:	2102      	movs	r1, #2
 8001b76:	6011      	str	r1, [r2, #0]
 8001b78:	f107 02a8 	add.w	r2, r7, #168	; 0xa8
 8001b7c:	6812      	ldr	r2, [r2, #0]
 8001b7e:	fa92 f1a2 	rbit	r1, r2
 8001b82:	f107 02a4 	add.w	r2, r7, #164	; 0xa4
 8001b86:	6011      	str	r1, [r2, #0]
  return result;
 8001b88:	f107 02a4 	add.w	r2, r7, #164	; 0xa4
 8001b8c:	6812      	ldr	r2, [r2, #0]
 8001b8e:	fab2 f282 	clz	r2, r2
 8001b92:	b2d2      	uxtb	r2, r2
 8001b94:	f042 0240 	orr.w	r2, r2, #64	; 0x40
 8001b98:	b2d2      	uxtb	r2, r2
 8001b9a:	f002 021f 	and.w	r2, r2, #31
 8001b9e:	2101      	movs	r1, #1
 8001ba0:	fa01 f202 	lsl.w	r2, r1, r2
 8001ba4:	4013      	ands	r3, r2
 8001ba6:	2b00      	cmp	r3, #0
 8001ba8:	d099      	beq.n	8001ade <HAL_RCC_OscConfig+0x8c6>
 8001baa:	e063      	b.n	8001c74 <HAL_RCC_OscConfig+0xa5c>
      }
    }
    else
    {
      /* Get Start Tick */
      tickstart = HAL_GetTick();
 8001bac:	f7ff f896 	bl	8000cdc <HAL_GetTick>
 8001bb0:	f8c7 01f8 	str.w	r0, [r7, #504]	; 0x1f8
      
      /* Wait till LSE is disabled */  
      while(__HAL_RCC_GET_FLAG(RCC_FLAG_LSERDY) != RESET)
 8001bb4:	e00b      	b.n	8001bce <HAL_RCC_OscConfig+0x9b6>
      {
        if((HAL_GetTick() - tickstart ) > RCC_LSE_TIMEOUT_VALUE)
 8001bb6:	f7ff f891 	bl	8000cdc <HAL_GetTick>
 8001bba:	4602      	mov	r2, r0
 8001bbc:	f8d7 31f8 	ldr.w	r3, [r7, #504]	; 0x1f8
 8001bc0:	1ad3      	subs	r3, r2, r3
 8001bc2:	f241 3288 	movw	r2, #5000	; 0x1388
 8001bc6:	4293      	cmp	r3, r2
 8001bc8:	d901      	bls.n	8001bce <HAL_RCC_OscConfig+0x9b6>
        {
          return HAL_TIMEOUT;
 8001bca:	2303      	movs	r3, #3
 8001bcc:	e225      	b.n	800201a <HAL_RCC_OscConfig+0xe02>
 8001bce:	f107 03a0 	add.w	r3, r7, #160	; 0xa0
 8001bd2:	2202      	movs	r2, #2
 8001bd4:	601a      	str	r2, [r3, #0]
   __ASM volatile ("rbit %0, %1" : "=r" (result) : "r" (value) );
 8001bd6:	f107 03a0 	add.w	r3, r7, #160	; 0xa0
 8001bda:	681b      	ldr	r3, [r3, #0]
 8001bdc:	fa93 f2a3 	rbit	r2, r3
 8001be0:	f107 039c 	add.w	r3, r7, #156	; 0x9c
 8001be4:	601a      	str	r2, [r3, #0]
 8001be6:	f107 0398 	add.w	r3, r7, #152	; 0x98
 8001bea:	2202      	movs	r2, #2
 8001bec:	601a      	str	r2, [r3, #0]
 8001bee:	f107 0398 	add.w	r3, r7, #152	; 0x98
 8001bf2:	681b      	ldr	r3, [r3, #0]
 8001bf4:	fa93 f2a3 	rbit	r2, r3
 8001bf8:	f107 0394 	add.w	r3, r7, #148	; 0x94
 8001bfc:	601a      	str	r2, [r3, #0]
  return result;
 8001bfe:	f107 0394 	add.w	r3, r7, #148	; 0x94
 8001c02:	681b      	ldr	r3, [r3, #0]
      while(__HAL_RCC_GET_FLAG(RCC_FLAG_LSERDY) != RESET)
 8001c04:	fab3 f383 	clz	r3, r3
 8001c08:	b2db      	uxtb	r3, r3
 8001c0a:	095b      	lsrs	r3, r3, #5
 8001c0c:	b2db      	uxtb	r3, r3
 8001c0e:	f043 0302 	orr.w	r3, r3, #2
 8001c12:	b2db      	uxtb	r3, r3
 8001c14:	2b02      	cmp	r3, #2
 8001c16:	d102      	bne.n	8001c1e <HAL_RCC_OscConfig+0xa06>
 8001c18:	4b90      	ldr	r3, [pc, #576]	; (8001e5c <HAL_RCC_OscConfig+0xc44>)
 8001c1a:	6a1b      	ldr	r3, [r3, #32]
 8001c1c:	e00d      	b.n	8001c3a <HAL_RCC_OscConfig+0xa22>
 8001c1e:	f107 0390 	add.w	r3, r7, #144	; 0x90
 8001c22:	2202      	movs	r2, #2
 8001c24:	601a      	str	r2, [r3, #0]
   __ASM volatile ("rbit %0, %1" : "=r" (result) : "r" (value) );
 8001c26:	f107 0390 	add.w	r3, r7, #144	; 0x90
 8001c2a:	681b      	ldr	r3, [r3, #0]
 8001c2c:	fa93 f2a3 	rbit	r2, r3
 8001c30:	f107 038c 	add.w	r3, r7, #140	; 0x8c
 8001c34:	601a      	str	r2, [r3, #0]
 8001c36:	4b89      	ldr	r3, [pc, #548]	; (8001e5c <HAL_RCC_OscConfig+0xc44>)
 8001c38:	6a5b      	ldr	r3, [r3, #36]	; 0x24
 8001c3a:	f107 0288 	add.w	r2, r7, #136	; 0x88
 8001c3e:	2102      	movs	r1, #2
 8001c40:	6011      	str	r1, [r2, #0]
 8001c42:	f107 0288 	add.w	r2, r7, #136	; 0x88
 8001c46:	6812      	ldr	r2, [r2, #0]
 8001c48:	fa92 f1a2 	rbit	r1, r2
 8001c4c:	f107 0284 	add.w	r2, r7, #132	; 0x84
 8001c50:	6011      	str	r1, [r2, #0]
  return result;
 8001c52:	f107 0284 	add.w	r2, r7, #132	; 0x84
 8001c56:	6812      	ldr	r2, [r2, #0]
 8001c58:	fab2 f282 	clz	r2, r2
 8001c5c:	b2d2      	uxtb	r2, r2
 8001c5e:	f042 0240 	orr.w	r2, r2, #64	; 0x40
 8001c62:	b2d2      	uxtb	r2, r2
 8001c64:	f002 021f 	and.w	r2, r2, #31
 8001c68:	2101      	movs	r1, #1
 8001c6a:	fa01 f202 	lsl.w	r2, r1, r2
 8001c6e:	4013      	ands	r3, r2
 8001c70:	2b00      	cmp	r3, #0
 8001c72:	d1a0      	bne.n	8001bb6 <HAL_RCC_OscConfig+0x99e>
        }
      }
    }

    /* Require to disable power clock if necessary */
    if(pwrclkchanged == SET)
 8001c74:	f897 31ff 	ldrb.w	r3, [r7, #511]	; 0x1ff
 8001c78:	2b01      	cmp	r3, #1
 8001c7a:	d105      	bne.n	8001c88 <HAL_RCC_OscConfig+0xa70>
    {
      __HAL_RCC_PWR_CLK_DISABLE();
 8001c7c:	4b77      	ldr	r3, [pc, #476]	; (8001e5c <HAL_RCC_OscConfig+0xc44>)
 8001c7e:	69db      	ldr	r3, [r3, #28]
 8001c80:	4a76      	ldr	r2, [pc, #472]	; (8001e5c <HAL_RCC_OscConfig+0xc44>)
 8001c82:	f023 5380 	bic.w	r3, r3, #268435456	; 0x10000000
 8001c86:	61d3      	str	r3, [r2, #28]
  }

  /*-------------------------------- PLL Configuration -----------------------*/
  /* Check the parameters */
  assert_param(IS_RCC_PLL(RCC_OscInitStruct->PLL.PLLState));
  if ((RCC_OscInitStruct->PLL.PLLState) != RCC_PLL_NONE)
 8001c88:	1d3b      	adds	r3, r7, #4
 8001c8a:	681b      	ldr	r3, [r3, #0]
 8001c8c:	69db      	ldr	r3, [r3, #28]
 8001c8e:	2b00      	cmp	r3, #0
 8001c90:	f000 81c2 	beq.w	8002018 <HAL_RCC_OscConfig+0xe00>
  {
    /* Check if the PLL is used as system clock or not */
    if(__HAL_RCC_GET_SYSCLK_SOURCE() != RCC_SYSCLKSOURCE_STATUS_PLLCLK)
 8001c94:	4b71      	ldr	r3, [pc, #452]	; (8001e5c <HAL_RCC_OscConfig+0xc44>)
 8001c96:	685b      	ldr	r3, [r3, #4]
 8001c98:	f003 030c 	and.w	r3, r3, #12
 8001c9c:	2b08      	cmp	r3, #8
 8001c9e:	f000 819c 	beq.w	8001fda <HAL_RCC_OscConfig+0xdc2>
    { 
      if((RCC_OscInitStruct->PLL.PLLState) == RCC_PLL_ON)
 8001ca2:	1d3b      	adds	r3, r7, #4
 8001ca4:	681b      	ldr	r3, [r3, #0]
 8001ca6:	69db      	ldr	r3, [r3, #28]
 8001ca8:	2b02      	cmp	r3, #2
 8001caa:	f040 8114 	bne.w	8001ed6 <HAL_RCC_OscConfig+0xcbe>
 8001cae:	f107 0380 	add.w	r3, r7, #128	; 0x80
 8001cb2:	f04f 7280 	mov.w	r2, #16777216	; 0x1000000
 8001cb6:	601a      	str	r2, [r3, #0]
   __ASM volatile ("rbit %0, %1" : "=r" (result) : "r" (value) );
 8001cb8:	f107 0380 	add.w	r3, r7, #128	; 0x80
 8001cbc:	681b      	ldr	r3, [r3, #0]
 8001cbe:	fa93 f2a3 	rbit	r2, r3
 8001cc2:	f107 037c 	add.w	r3, r7, #124	; 0x7c
 8001cc6:	601a      	str	r2, [r3, #0]
  return result;
 8001cc8:	f107 037c 	add.w	r3, r7, #124	; 0x7c
 8001ccc:	681b      	ldr	r3, [r3, #0]
#if   defined(RCC_CFGR_PLLSRC_HSI_PREDIV)
        assert_param(IS_RCC_PREDIV(RCC_OscInitStruct->PLL.PREDIV));
#endif
  
        /* Disable the main PLL. */
        __HAL_RCC_PLL_DISABLE();
 8001cce:	fab3 f383 	clz	r3, r3
 8001cd2:	b2db      	uxtb	r3, r3
 8001cd4:	f103 5384 	add.w	r3, r3, #276824064	; 0x10800000
 8001cd8:	f503 1384 	add.w	r3, r3, #1081344	; 0x108000
 8001cdc:	009b      	lsls	r3, r3, #2
 8001cde:	461a      	mov	r2, r3
 8001ce0:	2300      	movs	r3, #0
 8001ce2:	6013      	str	r3, [r2, #0]
        
        /* Get Start Tick */
        tickstart = HAL_GetTick();
 8001ce4:	f7fe fffa 	bl	8000cdc <HAL_GetTick>
 8001ce8:	f8c7 01f8 	str.w	r0, [r7, #504]	; 0x1f8
        
        /* Wait till PLL is disabled */
        while(__HAL_RCC_GET_FLAG(RCC_FLAG_PLLRDY)  != RESET)
 8001cec:	e009      	b.n	8001d02 <HAL_RCC_OscConfig+0xaea>
        {
          if((HAL_GetTick() - tickstart ) > PLL_TIMEOUT_VALUE)
 8001cee:	f7fe fff5 	bl	8000cdc <HAL_GetTick>
 8001cf2:	4602      	mov	r2, r0
 8001cf4:	f8d7 31f8 	ldr.w	r3, [r7, #504]	; 0x1f8
 8001cf8:	1ad3      	subs	r3, r2, r3
 8001cfa:	2b02      	cmp	r3, #2
 8001cfc:	d901      	bls.n	8001d02 <HAL_RCC_OscConfig+0xaea>
          {
            return HAL_TIMEOUT;
 8001cfe:	2303      	movs	r3, #3
 8001d00:	e18b      	b.n	800201a <HAL_RCC_OscConfig+0xe02>
 8001d02:	f107 0378 	add.w	r3, r7, #120	; 0x78
 8001d06:	f04f 7200 	mov.w	r2, #33554432	; 0x2000000
 8001d0a:	601a      	str	r2, [r3, #0]
   __ASM volatile ("rbit %0, %1" : "=r" (result) : "r" (value) );
 8001d0c:	f107 0378 	add.w	r3, r7, #120	; 0x78
 8001d10:	681b      	ldr	r3, [r3, #0]
 8001d12:	fa93 f2a3 	rbit	r2, r3
 8001d16:	f107 0374 	add.w	r3, r7, #116	; 0x74
 8001d1a:	601a      	str	r2, [r3, #0]
  return result;
 8001d1c:	f107 0374 	add.w	r3, r7, #116	; 0x74
 8001d20:	681b      	ldr	r3, [r3, #0]
        while(__HAL_RCC_GET_FLAG(RCC_FLAG_PLLRDY)  != RESET)
 8001d22:	fab3 f383 	clz	r3, r3
 8001d26:	b2db      	uxtb	r3, r3
 8001d28:	095b      	lsrs	r3, r3, #5
 8001d2a:	b2db      	uxtb	r3, r3
 8001d2c:	f043 0301 	orr.w	r3, r3, #1
 8001d30:	b2db      	uxtb	r3, r3
 8001d32:	2b01      	cmp	r3, #1
 8001d34:	d102      	bne.n	8001d3c <HAL_RCC_OscConfig+0xb24>
 8001d36:	4b49      	ldr	r3, [pc, #292]	; (8001e5c <HAL_RCC_OscConfig+0xc44>)
 8001d38:	681b      	ldr	r3, [r3, #0]
 8001d3a:	e01b      	b.n	8001d74 <HAL_RCC_OscConfig+0xb5c>
 8001d3c:	f107 0370 	add.w	r3, r7, #112	; 0x70
 8001d40:	f04f 7200 	mov.w	r2, #33554432	; 0x2000000
 8001d44:	601a      	str	r2, [r3, #0]
   __ASM volatile ("rbit %0, %1" : "=r" (result) : "r" (value) );
 8001d46:	f107 0370 	add.w	r3, r7, #112	; 0x70
 8001d4a:	681b      	ldr	r3, [r3, #0]
 8001d4c:	fa93 f2a3 	rbit	r2, r3
 8001d50:	f107 036c 	add.w	r3, r7, #108	; 0x6c
 8001d54:	601a      	str	r2, [r3, #0]
 8001d56:	f107 0368 	add.w	r3, r7, #104	; 0x68
 8001d5a:	f04f 7200 	mov.w	r2, #33554432	; 0x2000000
 8001d5e:	601a      	str	r2, [r3, #0]
 8001d60:	f107 0368 	add.w	r3, r7, #104	; 0x68
 8001d64:	681b      	ldr	r3, [r3, #0]
 8001d66:	fa93 f2a3 	rbit	r2, r3
 8001d6a:	f107 0364 	add.w	r3, r7, #100	; 0x64
 8001d6e:	601a      	str	r2, [r3, #0]
 8001d70:	4b3a      	ldr	r3, [pc, #232]	; (8001e5c <HAL_RCC_OscConfig+0xc44>)
 8001d72:	6a5b      	ldr	r3, [r3, #36]	; 0x24
 8001d74:	f107 0260 	add.w	r2, r7, #96	; 0x60
 8001d78:	f04f 7100 	mov.w	r1, #33554432	; 0x2000000
 8001d7c:	6011      	str	r1, [r2, #0]
 8001d7e:	f107 0260 	add.w	r2, r7, #96	; 0x60
 8001d82:	6812      	ldr	r2, [r2, #0]
 8001d84:	fa92 f1a2 	rbit	r1, r2
 8001d88:	f107 025c 	add.w	r2, r7, #92	; 0x5c
 8001d8c:	6011      	str	r1, [r2, #0]
  return result;
 8001d8e:	f107 025c 	add.w	r2, r7, #92	; 0x5c
 8001d92:	6812      	ldr	r2, [r2, #0]
 8001d94:	fab2 f282 	clz	r2, r2
 8001d98:	b2d2      	uxtb	r2, r2
 8001d9a:	f042 0220 	orr.w	r2, r2, #32
 8001d9e:	b2d2      	uxtb	r2, r2
 8001da0:	f002 021f 	and.w	r2, r2, #31
 8001da4:	2101      	movs	r1, #1
 8001da6:	fa01 f202 	lsl.w	r2, r1, r2
 8001daa:	4013      	ands	r3, r2
 8001dac:	2b00      	cmp	r3, #0
 8001dae:	d19e      	bne.n	8001cee <HAL_RCC_OscConfig+0xad6>
        __HAL_RCC_PLL_CONFIG(RCC_OscInitStruct->PLL.PLLSource,
                             RCC_OscInitStruct->PLL.PREDIV,
                             RCC_OscInitStruct->PLL.PLLMUL);
#else
      /* Configure the main PLL clock source and multiplication factor. */
      __HAL_RCC_PLL_CONFIG(RCC_OscInitStruct->PLL.PLLSource,
 8001db0:	4b2a      	ldr	r3, [pc, #168]	; (8001e5c <HAL_RCC_OscConfig+0xc44>)
 8001db2:	685b      	ldr	r3, [r3, #4]
 8001db4:	f423 1274 	bic.w	r2, r3, #3997696	; 0x3d0000
 8001db8:	1d3b      	adds	r3, r7, #4
 8001dba:	681b      	ldr	r3, [r3, #0]
 8001dbc:	6a59      	ldr	r1, [r3, #36]	; 0x24
 8001dbe:	1d3b      	adds	r3, r7, #4
 8001dc0:	681b      	ldr	r3, [r3, #0]
 8001dc2:	6a1b      	ldr	r3, [r3, #32]
 8001dc4:	430b      	orrs	r3, r1
 8001dc6:	4925      	ldr	r1, [pc, #148]	; (8001e5c <HAL_RCC_OscConfig+0xc44>)
 8001dc8:	4313      	orrs	r3, r2
 8001dca:	604b      	str	r3, [r1, #4]
 8001dcc:	f107 0358 	add.w	r3, r7, #88	; 0x58
 8001dd0:	f04f 7280 	mov.w	r2, #16777216	; 0x1000000
 8001dd4:	601a      	str	r2, [r3, #0]
   __ASM volatile ("rbit %0, %1" : "=r" (result) : "r" (value) );
 8001dd6:	f107 0358 	add.w	r3, r7, #88	; 0x58
 8001dda:	681b      	ldr	r3, [r3, #0]
 8001ddc:	fa93 f2a3 	rbit	r2, r3
 8001de0:	f107 0354 	add.w	r3, r7, #84	; 0x54
 8001de4:	601a      	str	r2, [r3, #0]
  return result;
 8001de6:	f107 0354 	add.w	r3, r7, #84	; 0x54
 8001dea:	681b      	ldr	r3, [r3, #0]
                           RCC_OscInitStruct->PLL.PLLMUL);
#endif /* RCC_CFGR_PLLSRC_HSI_PREDIV */
        /* Enable the main PLL. */
        __HAL_RCC_PLL_ENABLE();
 8001dec:	fab3 f383 	clz	r3, r3
 8001df0:	b2db      	uxtb	r3, r3
 8001df2:	f103 5384 	add.w	r3, r3, #276824064	; 0x10800000
 8001df6:	f503 1384 	add.w	r3, r3, #1081344	; 0x108000
 8001dfa:	009b      	lsls	r3, r3, #2
 8001dfc:	461a      	mov	r2, r3
 8001dfe:	2301      	movs	r3, #1
 8001e00:	6013      	str	r3, [r2, #0]
        
        /* Get Start Tick */
        tickstart = HAL_GetTick();
 8001e02:	f7fe ff6b 	bl	8000cdc <HAL_GetTick>
 8001e06:	f8c7 01f8 	str.w	r0, [r7, #504]	; 0x1f8
        
        /* Wait till PLL is ready */
        while(__HAL_RCC_GET_FLAG(RCC_FLAG_PLLRDY)  == RESET)
 8001e0a:	e009      	b.n	8001e20 <HAL_RCC_OscConfig+0xc08>
        {
          if((HAL_GetTick() - tickstart ) > PLL_TIMEOUT_VALUE)
 8001e0c:	f7fe ff66 	bl	8000cdc <HAL_GetTick>
 8001e10:	4602      	mov	r2, r0
 8001e12:	f8d7 31f8 	ldr.w	r3, [r7, #504]	; 0x1f8
 8001e16:	1ad3      	subs	r3, r2, r3
 8001e18:	2b02      	cmp	r3, #2
 8001e1a:	d901      	bls.n	8001e20 <HAL_RCC_OscConfig+0xc08>
          {
            return HAL_TIMEOUT;
 8001e1c:	2303      	movs	r3, #3
 8001e1e:	e0fc      	b.n	800201a <HAL_RCC_OscConfig+0xe02>
 8001e20:	f107 0350 	add.w	r3, r7, #80	; 0x50
 8001e24:	f04f 7200 	mov.w	r2, #33554432	; 0x2000000
 8001e28:	601a      	str	r2, [r3, #0]
   __ASM volatile ("rbit %0, %1" : "=r" (result) : "r" (value) );
 8001e2a:	f107 0350 	add.w	r3, r7, #80	; 0x50
 8001e2e:	681b      	ldr	r3, [r3, #0]
 8001e30:	fa93 f2a3 	rbit	r2, r3
 8001e34:	f107 034c 	add.w	r3, r7, #76	; 0x4c
 8001e38:	601a      	str	r2, [r3, #0]
  return result;
 8001e3a:	f107 034c 	add.w	r3, r7, #76	; 0x4c
 8001e3e:	681b      	ldr	r3, [r3, #0]
        while(__HAL_RCC_GET_FLAG(RCC_FLAG_PLLRDY)  == RESET)
 8001e40:	fab3 f383 	clz	r3, r3
 8001e44:	b2db      	uxtb	r3, r3
 8001e46:	095b      	lsrs	r3, r3, #5
 8001e48:	b2db      	uxtb	r3, r3
 8001e4a:	f043 0301 	orr.w	r3, r3, #1
 8001e4e:	b2db      	uxtb	r3, r3
 8001e50:	2b01      	cmp	r3, #1
 8001e52:	d105      	bne.n	8001e60 <HAL_RCC_OscConfig+0xc48>
 8001e54:	4b01      	ldr	r3, [pc, #4]	; (8001e5c <HAL_RCC_OscConfig+0xc44>)
 8001e56:	681b      	ldr	r3, [r3, #0]
 8001e58:	e01e      	b.n	8001e98 <HAL_RCC_OscConfig+0xc80>
 8001e5a:	bf00      	nop
 8001e5c:	40021000 	.word	0x40021000
 8001e60:	f107 0348 	add.w	r3, r7, #72	; 0x48
 8001e64:	f04f 7200 	mov.w	r2, #33554432	; 0x2000000
 8001e68:	601a      	str	r2, [r3, #0]
   __ASM volatile ("rbit %0, %1" : "=r" (result) : "r" (value) );
 8001e6a:	f107 0348 	add.w	r3, r7, #72	; 0x48
 8001e6e:	681b      	ldr	r3, [r3, #0]
 8001e70:	fa93 f2a3 	rbit	r2, r3
 8001e74:	f107 0344 	add.w	r3, r7, #68	; 0x44
 8001e78:	601a      	str	r2, [r3, #0]
 8001e7a:	f107 0340 	add.w	r3, r7, #64	; 0x40
 8001e7e:	f04f 7200 	mov.w	r2, #33554432	; 0x2000000
 8001e82:	601a      	str	r2, [r3, #0]
 8001e84:	f107 0340 	add.w	r3, r7, #64	; 0x40
 8001e88:	681b      	ldr	r3, [r3, #0]
 8001e8a:	fa93 f2a3 	rbit	r2, r3
 8001e8e:	f107 033c 	add.w	r3, r7, #60	; 0x3c
 8001e92:	601a      	str	r2, [r3, #0]
 8001e94:	4b63      	ldr	r3, [pc, #396]	; (8002024 <HAL_RCC_OscConfig+0xe0c>)
 8001e96:	6a5b      	ldr	r3, [r3, #36]	; 0x24
 8001e98:	f107 0238 	add.w	r2, r7, #56	; 0x38
 8001e9c:	f04f 7100 	mov.w	r1, #33554432	; 0x2000000
 8001ea0:	6011      	str	r1, [r2, #0]
 8001ea2:	f107 0238 	add.w	r2, r7, #56	; 0x38
 8001ea6:	6812      	ldr	r2, [r2, #0]
 8001ea8:	fa92 f1a2 	rbit	r1, r2
 8001eac:	f107 0234 	add.w	r2, r7, #52	; 0x34
 8001eb0:	6011      	str	r1, [r2, #0]
  return result;
 8001eb2:	f107 0234 	add.w	r2, r7, #52	; 0x34
 8001eb6:	6812      	ldr	r2, [r2, #0]
 8001eb8:	fab2 f282 	clz	r2, r2
 8001ebc:	b2d2      	uxtb	r2, r2
 8001ebe:	f042 0220 	orr.w	r2, r2, #32
 8001ec2:	b2d2      	uxtb	r2, r2
 8001ec4:	f002 021f 	and.w	r2, r2, #31
 8001ec8:	2101      	movs	r1, #1
 8001eca:	fa01 f202 	lsl.w	r2, r1, r2
 8001ece:	4013      	ands	r3, r2
 8001ed0:	2b00      	cmp	r3, #0
 8001ed2:	d09b      	beq.n	8001e0c <HAL_RCC_OscConfig+0xbf4>
 8001ed4:	e0a0      	b.n	8002018 <HAL_RCC_OscConfig+0xe00>
 8001ed6:	f107 0330 	add.w	r3, r7, #48	; 0x30
 8001eda:	f04f 7280 	mov.w	r2, #16777216	; 0x1000000
 8001ede:	601a      	str	r2, [r3, #0]
   __ASM volatile ("rbit %0, %1" : "=r" (result) : "r" (value) );
 8001ee0:	f107 0330 	add.w	r3, r7, #48	; 0x30
 8001ee4:	681b      	ldr	r3, [r3, #0]
 8001ee6:	fa93 f2a3 	rbit	r2, r3
 8001eea:	f107 032c 	add.w	r3, r7, #44	; 0x2c
 8001eee:	601a      	str	r2, [r3, #0]
  return result;
 8001ef0:	f107 032c 	add.w	r3, r7, #44	; 0x2c
 8001ef4:	681b      	ldr	r3, [r3, #0]
        }
      }
      else
      {
        /* Disable the main PLL. */
        __HAL_RCC_PLL_DISABLE();
 8001ef6:	fab3 f383 	clz	r3, r3
 8001efa:	b2db      	uxtb	r3, r3
 8001efc:	f103 5384 	add.w	r3, r3, #276824064	; 0x10800000
 8001f00:	f503 1384 	add.w	r3, r3, #1081344	; 0x108000
 8001f04:	009b      	lsls	r3, r3, #2
 8001f06:	461a      	mov	r2, r3
 8001f08:	2300      	movs	r3, #0
 8001f0a:	6013      	str	r3, [r2, #0]
 
        /* Get Start Tick */
        tickstart = HAL_GetTick();
 8001f0c:	f7fe fee6 	bl	8000cdc <HAL_GetTick>
 8001f10:	f8c7 01f8 	str.w	r0, [r7, #504]	; 0x1f8
        
        /* Wait till PLL is disabled */  
        while(__HAL_RCC_GET_FLAG(RCC_FLAG_PLLRDY)  != RESET)
 8001f14:	e009      	b.n	8001f2a <HAL_RCC_OscConfig+0xd12>
        {
          if((HAL_GetTick() - tickstart ) > PLL_TIMEOUT_VALUE)
 8001f16:	f7fe fee1 	bl	8000cdc <HAL_GetTick>
 8001f1a:	4602      	mov	r2, r0
 8001f1c:	f8d7 31f8 	ldr.w	r3, [r7, #504]	; 0x1f8
 8001f20:	1ad3      	subs	r3, r2, r3
 8001f22:	2b02      	cmp	r3, #2
 8001f24:	d901      	bls.n	8001f2a <HAL_RCC_OscConfig+0xd12>
          {
            return HAL_TIMEOUT;
 8001f26:	2303      	movs	r3, #3
 8001f28:	e077      	b.n	800201a <HAL_RCC_OscConfig+0xe02>
 8001f2a:	f107 0328 	add.w	r3, r7, #40	; 0x28
 8001f2e:	f04f 7200 	mov.w	r2, #33554432	; 0x2000000
 8001f32:	601a      	str	r2, [r3, #0]
   __ASM volatile ("rbit %0, %1" : "=r" (result) : "r" (value) );
 8001f34:	f107 0328 	add.w	r3, r7, #40	; 0x28
 8001f38:	681b      	ldr	r3, [r3, #0]
 8001f3a:	fa93 f2a3 	rbit	r2, r3
 8001f3e:	f107 0324 	add.w	r3, r7, #36	; 0x24
 8001f42:	601a      	str	r2, [r3, #0]
  return result;
 8001f44:	f107 0324 	add.w	r3, r7, #36	; 0x24
 8001f48:	681b      	ldr	r3, [r3, #0]
        while(__HAL_RCC_GET_FLAG(RCC_FLAG_PLLRDY)  != RESET)
 8001f4a:	fab3 f383 	clz	r3, r3
 8001f4e:	b2db      	uxtb	r3, r3
 8001f50:	095b      	lsrs	r3, r3, #5
 8001f52:	b2db      	uxtb	r3, r3
 8001f54:	f043 0301 	orr.w	r3, r3, #1
 8001f58:	b2db      	uxtb	r3, r3
 8001f5a:	2b01      	cmp	r3, #1
 8001f5c:	d102      	bne.n	8001f64 <HAL_RCC_OscConfig+0xd4c>
 8001f5e:	4b31      	ldr	r3, [pc, #196]	; (8002024 <HAL_RCC_OscConfig+0xe0c>)
 8001f60:	681b      	ldr	r3, [r3, #0]
 8001f62:	e01b      	b.n	8001f9c <HAL_RCC_OscConfig+0xd84>
 8001f64:	f107 0320 	add.w	r3, r7, #32
 8001f68:	f04f 7200 	mov.w	r2, #33554432	; 0x2000000
 8001f6c:	601a      	str	r2, [r3, #0]
   __ASM volatile ("rbit %0, %1" : "=r" (result) : "r" (value) );
 8001f6e:	f107 0320 	add.w	r3, r7, #32
 8001f72:	681b      	ldr	r3, [r3, #0]
 8001f74:	fa93 f2a3 	rbit	r2, r3
 8001f78:	f107 031c 	add.w	r3, r7, #28
 8001f7c:	601a      	str	r2, [r3, #0]
 8001f7e:	f107 0318 	add.w	r3, r7, #24
 8001f82:	f04f 7200 	mov.w	r2, #33554432	; 0x2000000
 8001f86:	601a      	str	r2, [r3, #0]
 8001f88:	f107 0318 	add.w	r3, r7, #24
 8001f8c:	681b      	ldr	r3, [r3, #0]
 8001f8e:	fa93 f2a3 	rbit	r2, r3
 8001f92:	f107 0314 	add.w	r3, r7, #20
 8001f96:	601a      	str	r2, [r3, #0]
 8001f98:	4b22      	ldr	r3, [pc, #136]	; (8002024 <HAL_RCC_OscConfig+0xe0c>)
 8001f9a:	6a5b      	ldr	r3, [r3, #36]	; 0x24
 8001f9c:	f107 0210 	add.w	r2, r7, #16
 8001fa0:	f04f 7100 	mov.w	r1, #33554432	; 0x2000000
 8001fa4:	6011      	str	r1, [r2, #0]
 8001fa6:	f107 0210 	add.w	r2, r7, #16
 8001faa:	6812      	ldr	r2, [r2, #0]
 8001fac:	fa92 f1a2 	rbit	r1, r2
 8001fb0:	f107 020c 	add.w	r2, r7, #12
 8001fb4:	6011      	str	r1, [r2, #0]
  return result;
 8001fb6:	f107 020c 	add.w	r2, r7, #12
 8001fba:	6812      	ldr	r2, [r2, #0]
 8001fbc:	fab2 f282 	clz	r2, r2
 8001fc0:	b2d2      	uxtb	r2, r2
 8001fc2:	f042 0220 	orr.w	r2, r2, #32
 8001fc6:	b2d2      	uxtb	r2, r2
 8001fc8:	f002 021f 	and.w	r2, r2, #31
 8001fcc:	2101      	movs	r1, #1
 8001fce:	fa01 f202 	lsl.w	r2, r1, r2
 8001fd2:	4013      	ands	r3, r2
 8001fd4:	2b00      	cmp	r3, #0
 8001fd6:	d19e      	bne.n	8001f16 <HAL_RCC_OscConfig+0xcfe>
 8001fd8:	e01e      	b.n	8002018 <HAL_RCC_OscConfig+0xe00>
      }
    }
    else
    {
      /* Check if there is a request to disable the PLL used as System clock source */
      if((RCC_OscInitStruct->PLL.PLLState) == RCC_PLL_OFF)
 8001fda:	1d3b      	adds	r3, r7, #4
 8001fdc:	681b      	ldr	r3, [r3, #0]
 8001fde:	69db      	ldr	r3, [r3, #28]
 8001fe0:	2b01      	cmp	r3, #1
 8001fe2:	d101      	bne.n	8001fe8 <HAL_RCC_OscConfig+0xdd0>
      {
        return HAL_ERROR;
 8001fe4:	2301      	movs	r3, #1
 8001fe6:	e018      	b.n	800201a <HAL_RCC_OscConfig+0xe02>
      }
      else
      {
        /* Do not return HAL_ERROR if request repeats the current configuration */
        pll_config = RCC->CFGR;
 8001fe8:	4b0e      	ldr	r3, [pc, #56]	; (8002024 <HAL_RCC_OscConfig+0xe0c>)
 8001fea:	685b      	ldr	r3, [r3, #4]
 8001fec:	f8c7 31f4 	str.w	r3, [r7, #500]	; 0x1f4
        pll_config2 = RCC->CFGR2;
        if((READ_BIT(pll_config, RCC_CFGR_PLLSRC)   != RCC_OscInitStruct->PLL.PLLSource) ||      
           (READ_BIT(pll_config, RCC_CFGR_PLLMUL)   != RCC_OscInitStruct->PLL.PLLMUL)    ||      
           (READ_BIT(pll_config2, RCC_CFGR2_PREDIV)  != RCC_OscInitStruct->PLL.PREDIV))     
#else
        if((READ_BIT(pll_config, RCC_CFGR_PLLSRC)   != RCC_OscInitStruct->PLL.PLLSource) ||      
 8001ff0:	f8d7 31f4 	ldr.w	r3, [r7, #500]	; 0x1f4
 8001ff4:	f403 3280 	and.w	r2, r3, #65536	; 0x10000
 8001ff8:	1d3b      	adds	r3, r7, #4
 8001ffa:	681b      	ldr	r3, [r3, #0]
 8001ffc:	6a1b      	ldr	r3, [r3, #32]
 8001ffe:	429a      	cmp	r2, r3
 8002000:	d108      	bne.n	8002014 <HAL_RCC_OscConfig+0xdfc>
           (READ_BIT(pll_config, RCC_CFGR_PLLMUL)   != RCC_OscInitStruct->PLL.PLLMUL))
 8002002:	f8d7 31f4 	ldr.w	r3, [r7, #500]	; 0x1f4
 8002006:	f403 1270 	and.w	r2, r3, #3932160	; 0x3c0000
 800200a:	1d3b      	adds	r3, r7, #4
 800200c:	681b      	ldr	r3, [r3, #0]
 800200e:	6a5b      	ldr	r3, [r3, #36]	; 0x24
        if((READ_BIT(pll_config, RCC_CFGR_PLLSRC)   != RCC_OscInitStruct->PLL.PLLSource) ||      
 8002010:	429a      	cmp	r2, r3
 8002012:	d001      	beq.n	8002018 <HAL_RCC_OscConfig+0xe00>
#endif
        {
          return HAL_ERROR;
 8002014:	2301      	movs	r3, #1
 8002016:	e000      	b.n	800201a <HAL_RCC_OscConfig+0xe02>
        }
      }
    }
  }

  return HAL_OK;
 8002018:	2300      	movs	r3, #0
}
 800201a:	4618      	mov	r0, r3
 800201c:	f507 7700 	add.w	r7, r7, #512	; 0x200
 8002020:	46bd      	mov	sp, r7
 8002022:	bd80      	pop	{r7, pc}
 8002024:	40021000 	.word	0x40021000

08002028 <HAL_RCC_ClockConfig>:
  *         You can use @ref HAL_RCC_GetClockConfig() function to know which clock is
  *         currently used as system clock source.
  * @retval HAL status
  */
HAL_StatusTypeDef HAL_RCC_ClockConfig(RCC_ClkInitTypeDef  *RCC_ClkInitStruct, uint32_t FLatency)
{
 8002028:	b580      	push	{r7, lr}
 800202a:	b09e      	sub	sp, #120	; 0x78
 800202c:	af00      	add	r7, sp, #0
 800202e:	6078      	str	r0, [r7, #4]
 8002030:	6039      	str	r1, [r7, #0]
  uint32_t tickstart = 0U;
 8002032:	2300      	movs	r3, #0
 8002034:	677b      	str	r3, [r7, #116]	; 0x74

  /* Check Null pointer */
  if(RCC_ClkInitStruct == NULL)
 8002036:	687b      	ldr	r3, [r7, #4]
 8002038:	2b00      	cmp	r3, #0
 800203a:	d101      	bne.n	8002040 <HAL_RCC_ClockConfig+0x18>
  {
    return HAL_ERROR;
 800203c:	2301      	movs	r3, #1
 800203e:	e162      	b.n	8002306 <HAL_RCC_ClockConfig+0x2de>
  /* To correctly read data from FLASH memory, the number of wait states (LATENCY) 
  must be correctly programmed according to the frequency of the CPU clock 
    (HCLK) of the device. */

  /* Increasing the number of wait states because of higher CPU frequency */
  if(FLatency > __HAL_FLASH_GET_LATENCY())
 8002040:	4b90      	ldr	r3, [pc, #576]	; (8002284 <HAL_RCC_ClockConfig+0x25c>)
 8002042:	681b      	ldr	r3, [r3, #0]
 8002044:	f003 0307 	and.w	r3, r3, #7
 8002048:	683a      	ldr	r2, [r7, #0]
 800204a:	429a      	cmp	r2, r3
 800204c:	d910      	bls.n	8002070 <HAL_RCC_ClockConfig+0x48>
  {    
    /* Program the new number of wait states to the LATENCY bits in the FLASH_ACR register */
    __HAL_FLASH_SET_LATENCY(FLatency);
 800204e:	4b8d      	ldr	r3, [pc, #564]	; (8002284 <HAL_RCC_ClockConfig+0x25c>)
 8002050:	681b      	ldr	r3, [r3, #0]
 8002052:	f023 0207 	bic.w	r2, r3, #7
 8002056:	498b      	ldr	r1, [pc, #556]	; (8002284 <HAL_RCC_ClockConfig+0x25c>)
 8002058:	683b      	ldr	r3, [r7, #0]
 800205a:	4313      	orrs	r3, r2
 800205c:	600b      	str	r3, [r1, #0]
    
    /* Check that the new number of wait states is taken into account to access the Flash
    memory by reading the FLASH_ACR register */
    if(__HAL_FLASH_GET_LATENCY() != FLatency)
 800205e:	4b89      	ldr	r3, [pc, #548]	; (8002284 <HAL_RCC_ClockConfig+0x25c>)
 8002060:	681b      	ldr	r3, [r3, #0]
 8002062:	f003 0307 	and.w	r3, r3, #7
 8002066:	683a      	ldr	r2, [r7, #0]
 8002068:	429a      	cmp	r2, r3
 800206a:	d001      	beq.n	8002070 <HAL_RCC_ClockConfig+0x48>
    {
      return HAL_ERROR;
 800206c:	2301      	movs	r3, #1
 800206e:	e14a      	b.n	8002306 <HAL_RCC_ClockConfig+0x2de>
    }
  }

  /*-------------------------- HCLK Configuration --------------------------*/
  if(((RCC_ClkInitStruct->ClockType) & RCC_CLOCKTYPE_HCLK) == RCC_CLOCKTYPE_HCLK)
 8002070:	687b      	ldr	r3, [r7, #4]
 8002072:	681b      	ldr	r3, [r3, #0]
 8002074:	f003 0302 	and.w	r3, r3, #2
 8002078:	2b00      	cmp	r3, #0
 800207a:	d008      	beq.n	800208e <HAL_RCC_ClockConfig+0x66>
  {
    assert_param(IS_RCC_HCLK(RCC_ClkInitStruct->AHBCLKDivider));
    MODIFY_REG(RCC->CFGR, RCC_CFGR_HPRE, RCC_ClkInitStruct->AHBCLKDivider);
 800207c:	4b82      	ldr	r3, [pc, #520]	; (8002288 <HAL_RCC_ClockConfig+0x260>)
 800207e:	685b      	ldr	r3, [r3, #4]
 8002080:	f023 02f0 	bic.w	r2, r3, #240	; 0xf0
 8002084:	687b      	ldr	r3, [r7, #4]
 8002086:	689b      	ldr	r3, [r3, #8]
 8002088:	497f      	ldr	r1, [pc, #508]	; (8002288 <HAL_RCC_ClockConfig+0x260>)
 800208a:	4313      	orrs	r3, r2
 800208c:	604b      	str	r3, [r1, #4]
  }

  /*------------------------- SYSCLK Configuration ---------------------------*/ 
  if(((RCC_ClkInitStruct->ClockType) & RCC_CLOCKTYPE_SYSCLK) == RCC_CLOCKTYPE_SYSCLK)
 800208e:	687b      	ldr	r3, [r7, #4]
 8002090:	681b      	ldr	r3, [r3, #0]
 8002092:	f003 0301 	and.w	r3, r3, #1
 8002096:	2b00      	cmp	r3, #0
 8002098:	f000 80dc 	beq.w	8002254 <HAL_RCC_ClockConfig+0x22c>
  {    
    assert_param(IS_RCC_SYSCLKSOURCE(RCC_ClkInitStruct->SYSCLKSource));
    
    /* HSE is selected as System Clock Source */
    if(RCC_ClkInitStruct->SYSCLKSource == RCC_SYSCLKSOURCE_HSE)
 800209c:	687b      	ldr	r3, [r7, #4]
 800209e:	685b      	ldr	r3, [r3, #4]
 80020a0:	2b01      	cmp	r3, #1
 80020a2:	d13c      	bne.n	800211e <HAL_RCC_ClockConfig+0xf6>
 80020a4:	f44f 3300 	mov.w	r3, #131072	; 0x20000
 80020a8:	673b      	str	r3, [r7, #112]	; 0x70
   __ASM volatile ("rbit %0, %1" : "=r" (result) : "r" (value) );
 80020aa:	6f3b      	ldr	r3, [r7, #112]	; 0x70
 80020ac:	fa93 f3a3 	rbit	r3, r3
 80020b0:	66fb      	str	r3, [r7, #108]	; 0x6c
  return result;
 80020b2:	6efb      	ldr	r3, [r7, #108]	; 0x6c
    {
      /* Check the HSE ready flag */  
      if(__HAL_RCC_GET_FLAG(RCC_FLAG_HSERDY) == RESET)
 80020b4:	fab3 f383 	clz	r3, r3
 80020b8:	b2db      	uxtb	r3, r3
 80020ba:	095b      	lsrs	r3, r3, #5
 80020bc:	b2db      	uxtb	r3, r3
 80020be:	f043 0301 	orr.w	r3, r3, #1
 80020c2:	b2db      	uxtb	r3, r3
 80020c4:	2b01      	cmp	r3, #1
 80020c6:	d102      	bne.n	80020ce <HAL_RCC_ClockConfig+0xa6>
 80020c8:	4b6f      	ldr	r3, [pc, #444]	; (8002288 <HAL_RCC_ClockConfig+0x260>)
 80020ca:	681b      	ldr	r3, [r3, #0]
 80020cc:	e00f      	b.n	80020ee <HAL_RCC_ClockConfig+0xc6>
 80020ce:	f44f 3300 	mov.w	r3, #131072	; 0x20000
 80020d2:	66bb      	str	r3, [r7, #104]	; 0x68
   __ASM volatile ("rbit %0, %1" : "=r" (result) : "r" (value) );
 80020d4:	6ebb      	ldr	r3, [r7, #104]	; 0x68
 80020d6:	fa93 f3a3 	rbit	r3, r3
 80020da:	667b      	str	r3, [r7, #100]	; 0x64
 80020dc:	f44f 3300 	mov.w	r3, #131072	; 0x20000
 80020e0:	663b      	str	r3, [r7, #96]	; 0x60
 80020e2:	6e3b      	ldr	r3, [r7, #96]	; 0x60
 80020e4:	fa93 f3a3 	rbit	r3, r3
 80020e8:	65fb      	str	r3, [r7, #92]	; 0x5c
 80020ea:	4b67      	ldr	r3, [pc, #412]	; (8002288 <HAL_RCC_ClockConfig+0x260>)
 80020ec:	6a5b      	ldr	r3, [r3, #36]	; 0x24
 80020ee:	f44f 3200 	mov.w	r2, #131072	; 0x20000
 80020f2:	65ba      	str	r2, [r7, #88]	; 0x58
 80020f4:	6dba      	ldr	r2, [r7, #88]	; 0x58
 80020f6:	fa92 f2a2 	rbit	r2, r2
 80020fa:	657a      	str	r2, [r7, #84]	; 0x54
  return result;
 80020fc:	6d7a      	ldr	r2, [r7, #84]	; 0x54
 80020fe:	fab2 f282 	clz	r2, r2
 8002102:	b2d2      	uxtb	r2, r2
 8002104:	f042 0220 	orr.w	r2, r2, #32
 8002108:	b2d2      	uxtb	r2, r2
 800210a:	f002 021f 	and.w	r2, r2, #31
 800210e:	2101      	movs	r1, #1
 8002110:	fa01 f202 	lsl.w	r2, r1, r2
 8002114:	4013      	ands	r3, r2
 8002116:	2b00      	cmp	r3, #0
 8002118:	d17b      	bne.n	8002212 <HAL_RCC_ClockConfig+0x1ea>
      {
        return HAL_ERROR;
 800211a:	2301      	movs	r3, #1
 800211c:	e0f3      	b.n	8002306 <HAL_RCC_ClockConfig+0x2de>
      }
    }
    /* PLL is selected as System Clock Source */
    else if(RCC_ClkInitStruct->SYSCLKSource == RCC_SYSCLKSOURCE_PLLCLK)
 800211e:	687b      	ldr	r3, [r7, #4]
 8002120:	685b      	ldr	r3, [r3, #4]
 8002122:	2b02      	cmp	r3, #2
 8002124:	d13c      	bne.n	80021a0 <HAL_RCC_ClockConfig+0x178>
 8002126:	f04f 7300 	mov.w	r3, #33554432	; 0x2000000
 800212a:	653b      	str	r3, [r7, #80]	; 0x50
   __ASM volatile ("rbit %0, %1" : "=r" (result) : "r" (value) );
 800212c:	6d3b      	ldr	r3, [r7, #80]	; 0x50
 800212e:	fa93 f3a3 	rbit	r3, r3
 8002132:	64fb      	str	r3, [r7, #76]	; 0x4c
  return result;
 8002134:	6cfb      	ldr	r3, [r7, #76]	; 0x4c
    {
      /* Check the PLL ready flag */  
      if(__HAL_RCC_GET_FLAG(RCC_FLAG_PLLRDY) == RESET)
 8002136:	fab3 f383 	clz	r3, r3
 800213a:	b2db      	uxtb	r3, r3
 800213c:	095b      	lsrs	r3, r3, #5
 800213e:	b2db      	uxtb	r3, r3
 8002140:	f043 0301 	orr.w	r3, r3, #1
 8002144:	b2db      	uxtb	r3, r3
 8002146:	2b01      	cmp	r3, #1
 8002148:	d102      	bne.n	8002150 <HAL_RCC_ClockConfig+0x128>
 800214a:	4b4f      	ldr	r3, [pc, #316]	; (8002288 <HAL_RCC_ClockConfig+0x260>)
 800214c:	681b      	ldr	r3, [r3, #0]
 800214e:	e00f      	b.n	8002170 <HAL_RCC_ClockConfig+0x148>
 8002150:	f04f 7300 	mov.w	r3, #33554432	; 0x2000000
 8002154:	64bb      	str	r3, [r7, #72]	; 0x48
   __ASM volatile ("rbit %0, %1" : "=r" (result) : "r" (value) );
 8002156:	6cbb      	ldr	r3, [r7, #72]	; 0x48
 8002158:	fa93 f3a3 	rbit	r3, r3
 800215c:	647b      	str	r3, [r7, #68]	; 0x44
 800215e:	f04f 7300 	mov.w	r3, #33554432	; 0x2000000
 8002162:	643b      	str	r3, [r7, #64]	; 0x40
 8002164:	6c3b      	ldr	r3, [r7, #64]	; 0x40
 8002166:	fa93 f3a3 	rbit	r3, r3
 800216a:	63fb      	str	r3, [r7, #60]	; 0x3c
 800216c:	4b46      	ldr	r3, [pc, #280]	; (8002288 <HAL_RCC_ClockConfig+0x260>)
 800216e:	6a5b      	ldr	r3, [r3, #36]	; 0x24
 8002170:	f04f 7200 	mov.w	r2, #33554432	; 0x2000000
 8002174:	63ba      	str	r2, [r7, #56]	; 0x38
 8002176:	6bba      	ldr	r2, [r7, #56]	; 0x38
 8002178:	fa92 f2a2 	rbit	r2, r2
 800217c:	637a      	str	r2, [r7, #52]	; 0x34
  return result;
 800217e:	6b7a      	ldr	r2, [r7, #52]	; 0x34
 8002180:	fab2 f282 	clz	r2, r2
 8002184:	b2d2      	uxtb	r2, r2
 8002186:	f042 0220 	orr.w	r2, r2, #32
 800218a:	b2d2      	uxtb	r2, r2
 800218c:	f002 021f 	and.w	r2, r2, #31
 8002190:	2101      	movs	r1, #1
 8002192:	fa01 f202 	lsl.w	r2, r1, r2
 8002196:	4013      	ands	r3, r2
 8002198:	2b00      	cmp	r3, #0
 800219a:	d13a      	bne.n	8002212 <HAL_RCC_ClockConfig+0x1ea>
      {
        return HAL_ERROR;
 800219c:	2301      	movs	r3, #1
 800219e:	e0b2      	b.n	8002306 <HAL_RCC_ClockConfig+0x2de>
 80021a0:	2302      	movs	r3, #2
 80021a2:	633b      	str	r3, [r7, #48]	; 0x30
   __ASM volatile ("rbit %0, %1" : "=r" (result) : "r" (value) );
 80021a4:	6b3b      	ldr	r3, [r7, #48]	; 0x30
 80021a6:	fa93 f3a3 	rbit	r3, r3
 80021aa:	62fb      	str	r3, [r7, #44]	; 0x2c
  return result;
 80021ac:	6afb      	ldr	r3, [r7, #44]	; 0x2c
    }
    /* HSI is selected as System Clock Source */
    else
    {
      /* Check the HSI ready flag */  
      if(__HAL_RCC_GET_FLAG(RCC_FLAG_HSIRDY) == RESET)
 80021ae:	fab3 f383 	clz	r3, r3
 80021b2:	b2db      	uxtb	r3, r3
 80021b4:	095b      	lsrs	r3, r3, #5
 80021b6:	b2db      	uxtb	r3, r3
 80021b8:	f043 0301 	orr.w	r3, r3, #1
 80021bc:	b2db      	uxtb	r3, r3
 80021be:	2b01      	cmp	r3, #1
 80021c0:	d102      	bne.n	80021c8 <HAL_RCC_ClockConfig+0x1a0>
 80021c2:	4b31      	ldr	r3, [pc, #196]	; (8002288 <HAL_RCC_ClockConfig+0x260>)
 80021c4:	681b      	ldr	r3, [r3, #0]
 80021c6:	e00d      	b.n	80021e4 <HAL_RCC_ClockConfig+0x1bc>
 80021c8:	2302      	movs	r3, #2
 80021ca:	62bb      	str	r3, [r7, #40]	; 0x28
   __ASM volatile ("rbit %0, %1" : "=r" (result) : "r" (value) );
 80021cc:	6abb      	ldr	r3, [r7, #40]	; 0x28
 80021ce:	fa93 f3a3 	rbit	r3, r3
 80021d2:	627b      	str	r3, [r7, #36]	; 0x24
 80021d4:	2302      	movs	r3, #2
 80021d6:	623b      	str	r3, [r7, #32]
 80021d8:	6a3b      	ldr	r3, [r7, #32]
 80021da:	fa93 f3a3 	rbit	r3, r3
 80021de:	61fb      	str	r3, [r7, #28]
 80021e0:	4b29      	ldr	r3, [pc, #164]	; (8002288 <HAL_RCC_ClockConfig+0x260>)
 80021e2:	6a5b      	ldr	r3, [r3, #36]	; 0x24
 80021e4:	2202      	movs	r2, #2
 80021e6:	61ba      	str	r2, [r7, #24]
 80021e8:	69ba      	ldr	r2, [r7, #24]
 80021ea:	fa92 f2a2 	rbit	r2, r2
 80021ee:	617a      	str	r2, [r7, #20]
  return result;
 80021f0:	697a      	ldr	r2, [r7, #20]
 80021f2:	fab2 f282 	clz	r2, r2
 80021f6:	b2d2      	uxtb	r2, r2
 80021f8:	f042 0220 	orr.w	r2, r2, #32
 80021fc:	b2d2      	uxtb	r2, r2
 80021fe:	f002 021f 	and.w	r2, r2, #31
 8002202:	2101      	movs	r1, #1
 8002204:	fa01 f202 	lsl.w	r2, r1, r2
 8002208:	4013      	ands	r3, r2
 800220a:	2b00      	cmp	r3, #0
 800220c:	d101      	bne.n	8002212 <HAL_RCC_ClockConfig+0x1ea>
      {
        return HAL_ERROR;
 800220e:	2301      	movs	r3, #1
 8002210:	e079      	b.n	8002306 <HAL_RCC_ClockConfig+0x2de>
      }
    }

    __HAL_RCC_SYSCLK_CONFIG(RCC_ClkInitStruct->SYSCLKSource);
 8002212:	4b1d      	ldr	r3, [pc, #116]	; (8002288 <HAL_RCC_ClockConfig+0x260>)
 8002214:	685b      	ldr	r3, [r3, #4]
 8002216:	f023 0203 	bic.w	r2, r3, #3
 800221a:	687b      	ldr	r3, [r7, #4]
 800221c:	685b      	ldr	r3, [r3, #4]
 800221e:	491a      	ldr	r1, [pc, #104]	; (8002288 <HAL_RCC_ClockConfig+0x260>)
 8002220:	4313      	orrs	r3, r2
 8002222:	604b      	str	r3, [r1, #4]

    /* Get Start Tick */
    tickstart = HAL_GetTick();
 8002224:	f7fe fd5a 	bl	8000cdc <HAL_GetTick>
 8002228:	6778      	str	r0, [r7, #116]	; 0x74
    
    while (__HAL_RCC_GET_SYSCLK_SOURCE() != (RCC_ClkInitStruct->SYSCLKSource << RCC_CFGR_SWS_Pos))
 800222a:	e00a      	b.n	8002242 <HAL_RCC_ClockConfig+0x21a>
    {
      if ((HAL_GetTick() - tickstart) > CLOCKSWITCH_TIMEOUT_VALUE)
 800222c:	f7fe fd56 	bl	8000cdc <HAL_GetTick>
 8002230:	4602      	mov	r2, r0
 8002232:	6f7b      	ldr	r3, [r7, #116]	; 0x74
 8002234:	1ad3      	subs	r3, r2, r3
 8002236:	f241 3288 	movw	r2, #5000	; 0x1388
 800223a:	4293      	cmp	r3, r2
 800223c:	d901      	bls.n	8002242 <HAL_RCC_ClockConfig+0x21a>
      {
        return HAL_TIMEOUT;
 800223e:	2303      	movs	r3, #3
 8002240:	e061      	b.n	8002306 <HAL_RCC_ClockConfig+0x2de>
    while (__HAL_RCC_GET_SYSCLK_SOURCE() != (RCC_ClkInitStruct->SYSCLKSource << RCC_CFGR_SWS_Pos))
 8002242:	4b11      	ldr	r3, [pc, #68]	; (8002288 <HAL_RCC_ClockConfig+0x260>)
 8002244:	685b      	ldr	r3, [r3, #4]
 8002246:	f003 020c 	and.w	r2, r3, #12
 800224a:	687b      	ldr	r3, [r7, #4]
 800224c:	685b      	ldr	r3, [r3, #4]
 800224e:	009b      	lsls	r3, r3, #2
 8002250:	429a      	cmp	r2, r3
 8002252:	d1eb      	bne.n	800222c <HAL_RCC_ClockConfig+0x204>
      }
    }
  }
  /* Decreasing the number of wait states because of lower CPU frequency */
  if(FLatency < __HAL_FLASH_GET_LATENCY())
 8002254:	4b0b      	ldr	r3, [pc, #44]	; (8002284 <HAL_RCC_ClockConfig+0x25c>)
 8002256:	681b      	ldr	r3, [r3, #0]
 8002258:	f003 0307 	and.w	r3, r3, #7
 800225c:	683a      	ldr	r2, [r7, #0]
 800225e:	429a      	cmp	r2, r3
 8002260:	d214      	bcs.n	800228c <HAL_RCC_ClockConfig+0x264>
  {    
    /* Program the new number of wait states to the LATENCY bits in the FLASH_ACR register */
    __HAL_FLASH_SET_LATENCY(FLatency);
 8002262:	4b08      	ldr	r3, [pc, #32]	; (8002284 <HAL_RCC_ClockConfig+0x25c>)
 8002264:	681b      	ldr	r3, [r3, #0]
 8002266:	f023 0207 	bic.w	r2, r3, #7
 800226a:	4906      	ldr	r1, [pc, #24]	; (8002284 <HAL_RCC_ClockConfig+0x25c>)
 800226c:	683b      	ldr	r3, [r7, #0]
 800226e:	4313      	orrs	r3, r2
 8002270:	600b      	str	r3, [r1, #0]
    
    /* Check that the new number of wait states is taken into account to access the Flash
    memory by reading the FLASH_ACR register */
    if(__HAL_FLASH_GET_LATENCY() != FLatency)
 8002272:	4b04      	ldr	r3, [pc, #16]	; (8002284 <HAL_RCC_ClockConfig+0x25c>)
 8002274:	681b      	ldr	r3, [r3, #0]
 8002276:	f003 0307 	and.w	r3, r3, #7
 800227a:	683a      	ldr	r2, [r7, #0]
 800227c:	429a      	cmp	r2, r3
 800227e:	d005      	beq.n	800228c <HAL_RCC_ClockConfig+0x264>
    {
      return HAL_ERROR;
 8002280:	2301      	movs	r3, #1
 8002282:	e040      	b.n	8002306 <HAL_RCC_ClockConfig+0x2de>
 8002284:	40022000 	.word	0x40022000
 8002288:	40021000 	.word	0x40021000
    }
  }    

  /*-------------------------- PCLK1 Configuration ---------------------------*/ 
  if(((RCC_ClkInitStruct->ClockType) & RCC_CLOCKTYPE_PCLK1) == RCC_CLOCKTYPE_PCLK1)
 800228c:	687b      	ldr	r3, [r7, #4]
 800228e:	681b      	ldr	r3, [r3, #0]
 8002290:	f003 0304 	and.w	r3, r3, #4
 8002294:	2b00      	cmp	r3, #0
 8002296:	d008      	beq.n	80022aa <HAL_RCC_ClockConfig+0x282>
  {
    assert_param(IS_RCC_PCLK(RCC_ClkInitStruct->APB1CLKDivider));
    MODIFY_REG(RCC->CFGR, RCC_CFGR_PPRE1, RCC_ClkInitStruct->APB1CLKDivider);
 8002298:	4b1d      	ldr	r3, [pc, #116]	; (8002310 <HAL_RCC_ClockConfig+0x2e8>)
 800229a:	685b      	ldr	r3, [r3, #4]
 800229c:	f423 62e0 	bic.w	r2, r3, #1792	; 0x700
 80022a0:	687b      	ldr	r3, [r7, #4]
 80022a2:	68db      	ldr	r3, [r3, #12]
 80022a4:	491a      	ldr	r1, [pc, #104]	; (8002310 <HAL_RCC_ClockConfig+0x2e8>)
 80022a6:	4313      	orrs	r3, r2
 80022a8:	604b      	str	r3, [r1, #4]
  }
  
  /*-------------------------- PCLK2 Configuration ---------------------------*/ 
  if(((RCC_ClkInitStruct->ClockType) & RCC_CLOCKTYPE_PCLK2) == RCC_CLOCKTYPE_PCLK2)
 80022aa:	687b      	ldr	r3, [r7, #4]
 80022ac:	681b      	ldr	r3, [r3, #0]
 80022ae:	f003 0308 	and.w	r3, r3, #8
 80022b2:	2b00      	cmp	r3, #0
 80022b4:	d009      	beq.n	80022ca <HAL_RCC_ClockConfig+0x2a2>
  {
    assert_param(IS_RCC_PCLK(RCC_ClkInitStruct->APB2CLKDivider));
    MODIFY_REG(RCC->CFGR, RCC_CFGR_PPRE2, ((RCC_ClkInitStruct->APB2CLKDivider) << 3U));
 80022b6:	4b16      	ldr	r3, [pc, #88]	; (8002310 <HAL_RCC_ClockConfig+0x2e8>)
 80022b8:	685b      	ldr	r3, [r3, #4]
 80022ba:	f423 5260 	bic.w	r2, r3, #14336	; 0x3800
 80022be:	687b      	ldr	r3, [r7, #4]
 80022c0:	691b      	ldr	r3, [r3, #16]
 80022c2:	00db      	lsls	r3, r3, #3
 80022c4:	4912      	ldr	r1, [pc, #72]	; (8002310 <HAL_RCC_ClockConfig+0x2e8>)
 80022c6:	4313      	orrs	r3, r2
 80022c8:	604b      	str	r3, [r1, #4]
  }
 
  /* Update the SystemCoreClock global variable */
  SystemCoreClock = HAL_RCC_GetSysClockFreq() >> AHBPrescTable[(RCC->CFGR & RCC_CFGR_HPRE)>> RCC_CFGR_HPRE_BITNUMBER];
 80022ca:	f000 f829 	bl	8002320 <HAL_RCC_GetSysClockFreq>
 80022ce:	4601      	mov	r1, r0
 80022d0:	4b0f      	ldr	r3, [pc, #60]	; (8002310 <HAL_RCC_ClockConfig+0x2e8>)
 80022d2:	685b      	ldr	r3, [r3, #4]
 80022d4:	f003 03f0 	and.w	r3, r3, #240	; 0xf0
 80022d8:	22f0      	movs	r2, #240	; 0xf0
 80022da:	613a      	str	r2, [r7, #16]
   __ASM volatile ("rbit %0, %1" : "=r" (result) : "r" (value) );
 80022dc:	693a      	ldr	r2, [r7, #16]
 80022de:	fa92 f2a2 	rbit	r2, r2
 80022e2:	60fa      	str	r2, [r7, #12]
  return result;
 80022e4:	68fa      	ldr	r2, [r7, #12]
 80022e6:	fab2 f282 	clz	r2, r2
 80022ea:	b2d2      	uxtb	r2, r2
 80022ec:	40d3      	lsrs	r3, r2
 80022ee:	4a09      	ldr	r2, [pc, #36]	; (8002314 <HAL_RCC_ClockConfig+0x2ec>)
 80022f0:	5cd3      	ldrb	r3, [r2, r3]
 80022f2:	fa21 f303 	lsr.w	r3, r1, r3
 80022f6:	4a08      	ldr	r2, [pc, #32]	; (8002318 <HAL_RCC_ClockConfig+0x2f0>)
 80022f8:	6013      	str	r3, [r2, #0]

  /* Configure the source of time base considering new system clocks settings*/
  HAL_InitTick (uwTickPrio);
 80022fa:	4b08      	ldr	r3, [pc, #32]	; (800231c <HAL_RCC_ClockConfig+0x2f4>)
 80022fc:	681b      	ldr	r3, [r3, #0]
 80022fe:	4618      	mov	r0, r3
 8002300:	f7fe fca8 	bl	8000c54 <HAL_InitTick>
  
  return HAL_OK;
 8002304:	2300      	movs	r3, #0
}
 8002306:	4618      	mov	r0, r3
 8002308:	3778      	adds	r7, #120	; 0x78
 800230a:	46bd      	mov	sp, r7
 800230c:	bd80      	pop	{r7, pc}
 800230e:	bf00      	nop
 8002310:	40021000 	.word	0x40021000
 8002314:	0800348c 	.word	0x0800348c
 8002318:	20000000 	.word	0x20000000
 800231c:	20000004 	.word	0x20000004

08002320 <HAL_RCC_GetSysClockFreq>:
  *         right SYSCLK value. Otherwise, any configuration based on this function will be incorrect.
  *         
  * @retval SYSCLK frequency
  */
uint32_t HAL_RCC_GetSysClockFreq(void)
{
 8002320:	b480      	push	{r7}
 8002322:	b08b      	sub	sp, #44	; 0x2c
 8002324:	af00      	add	r7, sp, #0
  uint32_t tmpreg = 0U, prediv = 0U, pllclk = 0U, pllmul = 0U;
 8002326:	2300      	movs	r3, #0
 8002328:	61fb      	str	r3, [r7, #28]
 800232a:	2300      	movs	r3, #0
 800232c:	61bb      	str	r3, [r7, #24]
 800232e:	2300      	movs	r3, #0
 8002330:	627b      	str	r3, [r7, #36]	; 0x24
 8002332:	2300      	movs	r3, #0
 8002334:	617b      	str	r3, [r7, #20]
  uint32_t sysclockfreq = 0U;
 8002336:	2300      	movs	r3, #0
 8002338:	623b      	str	r3, [r7, #32]
  
  tmpreg = RCC->CFGR;
 800233a:	4b29      	ldr	r3, [pc, #164]	; (80023e0 <HAL_RCC_GetSysClockFreq+0xc0>)
 800233c:	685b      	ldr	r3, [r3, #4]
 800233e:	61fb      	str	r3, [r7, #28]
  
  /* Get SYSCLK source -------------------------------------------------------*/
  switch (tmpreg & RCC_CFGR_SWS)
 8002340:	69fb      	ldr	r3, [r7, #28]
 8002342:	f003 030c 	and.w	r3, r3, #12
 8002346:	2b04      	cmp	r3, #4
 8002348:	d002      	beq.n	8002350 <HAL_RCC_GetSysClockFreq+0x30>
 800234a:	2b08      	cmp	r3, #8
 800234c:	d003      	beq.n	8002356 <HAL_RCC_GetSysClockFreq+0x36>
 800234e:	e03c      	b.n	80023ca <HAL_RCC_GetSysClockFreq+0xaa>
  {
    case RCC_SYSCLKSOURCE_STATUS_HSE:  /* HSE used as system clock */
    {
      sysclockfreq = HSE_VALUE;
 8002350:	4b24      	ldr	r3, [pc, #144]	; (80023e4 <HAL_RCC_GetSysClockFreq+0xc4>)
 8002352:	623b      	str	r3, [r7, #32]
      break;
 8002354:	e03c      	b.n	80023d0 <HAL_RCC_GetSysClockFreq+0xb0>
    }
    case RCC_SYSCLKSOURCE_STATUS_PLLCLK:  /* PLL used as system clock */
    {
      pllmul = aPLLMULFactorTable[(uint32_t)(tmpreg & RCC_CFGR_PLLMUL) >> POSITION_VAL(RCC_CFGR_PLLMUL)];
 8002356:	69fb      	ldr	r3, [r7, #28]
 8002358:	f403 1370 	and.w	r3, r3, #3932160	; 0x3c0000
 800235c:	f44f 1270 	mov.w	r2, #3932160	; 0x3c0000
 8002360:	60ba      	str	r2, [r7, #8]
   __ASM volatile ("rbit %0, %1" : "=r" (result) : "r" (value) );
 8002362:	68ba      	ldr	r2, [r7, #8]
 8002364:	fa92 f2a2 	rbit	r2, r2
 8002368:	607a      	str	r2, [r7, #4]
  return result;
 800236a:	687a      	ldr	r2, [r7, #4]
 800236c:	fab2 f282 	clz	r2, r2
 8002370:	b2d2      	uxtb	r2, r2
